:020000040800F2
:10000000500F002015020008D11100080D0D000846
:10001000550F0008C9040008BF19000800000000BF
:10002000000000000000000000000000891400082B
:10003000CD04000800000000451200089D150008CE
:100040002F0200082F0200082F0200082F020008CC
:100050002F0200082F0200082F0200082F020008BC
:100060002F0200082F0200082F0200082F020008AC
:100070002F0200082F0200082F0200082F0200089C
:100080002F0200082F0200082F0200082F0200088C
:100090002F0200082F0200082F0200082F0200087C
:1000A0002F0200082F0200082F0200082F0200086C
:1000B0002F020008011600082F0200082F02000876
:1000C0002F0200082F0200082F0200082F0200084C
:1000D0002F0200089D1700082F0200082F020008B9
:1000E0002F0200082F0200082F0200082F0200082C
:1000F0002F0200082F0200082F0200082F0200081C
:100100002F0200082F0200082F0200082F0200080B
:100110002F0200082F0200082F0200082F020008FB
:100120002F0200082F0200082F0200082F020008EB
:1001300000F002F800F05FF80AA090E8000C82449A
:100140008344AAF10107DA4501D100F054F8AFF277
:10015000090EBAE80F0013F0010F18BFFB1A43F0A5
:100160000103184790340000B03400000A444FF0F7
:10017000000C10F8013B13F0070408BF10F8014B06
:100180001D1108BF10F8015B641E05D010F8016B4B
:10019000641E01F8016BF9D113F0080F1EBF10F8AF
:1001A000014BAD1C0C1B09D16D1E58BF01F801CBD2
:1001B000FAD505E014F8016B01F8016B6D1EF9D555
:1001C0009142D6D37047000000230024002500266A
:1001D000103A28BF78C1FBD8520728BF30C148BFAA
:1001E0000B607047642900F07780002070471FB5CE
:1001F0001FBD10B510BD00F037F91146FFF7F7FF2E
:1002000001F0E9FE00F055F903B4FFF7F2FF03BC7B
:1002100001F0D7FB0948804709480047FEE7FEE7A1
:10022000FEE7FEE7FEE7FEE7FEE7FEE7FEE7FEE7A6
:1002300004480549054A064B70470000A11500080F
:100240003101000850090020500F0020500B002001
:10025000500B0020704700000FB4044910B503AAEA
:10026000029800F0D3F810BC5DF814FBFC070020E6
:100270002DE9F0410E460446002020622046E16848
:10028000884730B3252805D0D4E901219047206A5A
:10029000401CF2E7E168204600278847050018D097
:1002A000A5F14100192802D820354FF400673246E5
:1002B000294620462760FFF795FF40B1012804D06A
:1002C000F61D26F007060836D8E7361DD6E728467D
:1002D000DAE7206ABDE8F0812DE9F0410646002406
:1002E00010687529314616A510D0AFF3008000289C
:1002F00002DA404213A507E031688A0701D512A54A
:1003000002E0490704D511A5012401E0AFF3008004
:1003100000210A2206F1240709E0B0FBF2FCB0FB41
:10032000F2F302FB1C00303078541846491C0028B8
:10033000F3D123462A463046BDE8F04100F00CB820
:10034000000000002D0000002B0000002000000035
:1003500070477047704770472DE9F0470D46994642
:100360009246044600F124080168880604D5E06935
:1003700021F01001216000E00120A84201DD471BAF
:1003800000E00027A1697A1902EB0900081AA061B0
:100390002078C00602D42046AFF30080002608E093
:1003A000D4E901211AF806009047206A401C761C07
:1003B00020624E45F4DB2078C0060AD52046AFF314
:1003C000008006E0D4E9012130209047206A401CDB
:1003D0002062381EA7F10107F4DC07E0D4E901210F
:1003E00018F805009047206A401C2062281EA5F1DD
:1003F0000105F3DC2046AFF300802078000602D52B
:100400000220BDE8F0870120FBE70000074B70B534
:100410000D467B4400F011F80446284600F020F811
:1004200010B14FF0FF3070BD204670BDB319000011
:1004300001694A1C02610878704700B58FB0CDE9A8
:1004400001310021059105497944CDE90310114698
:100450006846FFF70DFF0FB000BD0000E5FFFFFF8E
:10046000007B00F080007047754600F029F8AE462A
:1004700005006946534620F00700854618B020B5B0
:10048000FFF7D6FEBDE820404FF000064FF0000712
:100490004FF000084FF0000B21F00701AC46ACE82C
:1004A000C009ACE8C009ACE8C009ACE8C0098D4699
:1004B00070470446AFF300802046FFF7A5FE00001A
:1004C00000487047EC08002000BFFEE770470000BE
:1004D0002DE9F0410446002700250026642094FB06
:1004E000F0F0C7B2642094FBF0F100FB11400A2148
:1004F00090FBF1F0C5B2642094FBF0F100FB1140D9
:100500000A2190FBF1F201FB1200C6B2B4F57A7F2A
:1005100006D10027714A2321062001F0A5FB04E043
:100520006F4A2321062001F09FFB0A2F42D2DFE809
:1005300007F0050B11171D23292F353B694A2A2186
:10054000062001F091FB35E0644A2A21062001F0E3
:100550008BFB2FE0644A2A21062001F085FB29E06D
:10056000624A2A21062001F07FFB23E0604A2A210B
:10057000062001F079FB1DE05E4A2A21062001F0E9
:1005800073FB17E05C4A2A21062001F06DFB11E0A5
:100590005A4A2A21062001F067FB0BE0584A2A211B
:1005A000062001F061FB05E0564A2A21062001F0F1
:1005B0005BFB00BF00BF0A2D42D2DFE805F0050B50
:1005C00011171D23292F353B464A3121062001F002
:1005D0004BFB35E0414A3121062001F045FB2FE07D
:1005E000414A3121062001F03FFB29E03F4A3121F9
:1005F000062001F039FB23E03D4A3121062001F0BD
:1006000033FB1DE03B4A3121062001F02DFB17E0B2
:10061000394A3121062001F027FB11E0374A312108
:10062000062001F021FB0BE0354A3121062001F0C4
:100630001BFB05E0334A3121062001F015FB00BF0A
:1006400000BF0A2E42D2DFE806F0050B11171D236A
:10065000292F353B234A3C21062001F005FB35E0DC
:100660001E4A3C21062001F0FFFA2FE01E4A3C21E1
:10067000062001F0F9FA29E01C4A3C21062001F08D
:10068000F3FA23E01A4A3C21062001F0EDFA1DE0BE
:10069000184A3C21062001F0E7FA17E0164A3C21EF
:1006A000062001F0E1FA11E0144A3C21062001F095
:1006B000DBFA0BE0124A3C21062001F0D5FA05E0F6
:1006C000104A3C21062001F0CFFA00BF00BF0E4ABD
:1006D0003721062001F0C8FABDE8F0817D0700202F
:1006E00018080020710700208907002095070020C6
:1006F000A1070020AD070020B9070020C507002092
:10070000D1070020DD070020E90700202DE9F04196
:100710000446002700250026642094FBF0F0C7B2B1
:10072000642094FBF0F100FB11400A2190FBF1F0F2
:10073000C5B2642094FBF0F100FB11400A2190FB4C
:10074000F1F201FB1200C6B2B4F57A7F05D10027A1
:10075000714A022001F0E0FA04E0704A0A21022006
:1007600001F0DAFA0A2F42D2DFE807F0050B111781
:100770001D23292F353B6A4A1E21022001F0CCFAA5
:1007800035E0654A1E21022001F0C6FA2FE0654AD5
:100790001E21022001F0C0FA29E0634A1E21022036
:1007A00001F0BAFA23E0614A1E21022001F0B4FAF6
:1007B0001DE05F4A1E21022001F0AEFA17E05D4AFB
:1007C0001E21022001F0A8FA11E05B4A1E2102203E
:1007D00001F0A2FA0BE0594A1E21022001F09CFA16
:1007E00005E0574A1E21022001F096FA00BF00BF23
:1007F0000A2D42D2DFE805F0050B11171D23292F22
:10080000353B474A3221022001F086FA35E0424A60
:100810003221022001F080FA2FE0424A32210220E8
:1008200001F07AFA29E0404A3221022001F074FAFC
:1008300023E03E4A3221022001F06EFA1DE03C4ADC
:100840003221022001F068FA17E03A4A32210220F0
:1008500001F062FA11E0384A3221022001F05CFA1C
:100860000BE0364A3221022001F056FA05E0344A04
:100870003221022001F050FA00BF00BF0A2E42D2FE
:10088000DFE806F0050B11171D23292F353B244AFD
:100890005021022001F040FA35E01F4A5021022089
:1008A00001F03AFA2FE01F4A5021022001F034FAF9
:1008B00029E01D4A5021022001F02EFA23E01B4AB4
:1008C0005021022001F028FA1DE0194A502102208F
:1008D00001F022FA17E0174A5021022001F01CFA19
:1008E00011E0154A5021022001F016FA0BE0134ADC
:1008F0005021022001F010FA05E0114A5021022097
:1009000001F00AFA00BF00BF0E4A4221022001F0A6
:1009100003FABDE8F0810000A02E0008C0310008F5
:10092000502E0008F02E0008402F0008902F0008DD
:10093000E02F00083030000880300008D030000878
:10094000203100087031000870B53A480068057819
:10095000032D01DD032000E02846064636480078D6
:10096000A84215DB34480078FF2802D10020324924
:10097000087031480078A84203DB00202E49087037
:1009800006E02D480078002802DC681E2A4908701D
:100990002948017829A0FFF75FFC27480078032841
:1009A00024DB00241AE024490978C91E631C194479
:1009B000C1EBC1011F4B1B6803EB81018A68611CFD
:1009C0004906080E192101F095F8611C4906080E28
:1009D0001EA2012101F08EF8601CC4B2B442E2DB19
:1009E0001BA20121062001F085F822E0002415E079
:1009F000C4EBC4010F4B1B6803EB81018A68611CC7
:100A00004906080E192101F075F8611C4906080E07
:100A10000EA2012101F06EF8601CC4B2B442E7DB03
:100A200005490978491C4906080E09A2012101F06F
:100A300061F870BD68070020700700206974656D5B
:100A40005F696E6465783A25640D0A00A1F50000BF
:100A5000A1F6000010B5044621480078C0EBC000A4
:100A60002049096801EB80004078401E1C4908704D
:100A70001D4800681B4908600846006880691A49DB
:100A8000086000F0A1FF16480078C0EBC0001549CF
:100A9000096801EB8000407828B914A200210846BB
:100AA00001F028F814E00E480078C0EBC0000D49B2
:100AB000096801EB80004078401EC0EBC0000A4985
:100AC000096801EB800000218268084601F012F8F5
:100AD00008A26E21002001F00DF8FFF735FF10BDD0
:100AE00070070020680700206C070020B2CBB5A576
:100AF0003A0000003E3E00000D48008840F2E73119
:100B0000884209D10B480088401C0A4908800A48DD
:100B10000088401C0849088006480088B0F5167F08
:100B200005D100200349088001200349088070474F
:100B3000180000201A0000201C00002008B5012128
:100B4000202000F091FB4FF47E40ADF80000102013
:100B50008DF8030003208DF8020069460C4800F070
:100B60003DF84FF47E410A4800F0CCF84FF4804045
:100B7000ADF8000010208DF803006946044800F02D
:100B80002DF84FF48041024800F0BCF808BD000089
:100B90000014014008B54FF48040ADF80000142067
:100BA0008DF8030003208DF802006946014800F02B
:100BB00015F808BD0014014008B54FF48040ADF8A9
:100BC000000003208DF8020028208DF803006946FC
:100BD000014800F003F808BD001401402DE9F04180
:100BE000024600250026002000230024002791F85B
:100BF00003C00CF00F0591F803C00CF0100CBCF111
:100C0000000F03D091F802C04CEA050591F800C02E
:100C1000BCF1000F31D0146800202BE04FF0010C24
:100C20000CFA00F3B1F800C00CEA03069E4220D192
:100C300083004FF00F0C0CFA03F7BC4305FA03FCDA
:100C40004CEA040491F803C0BCF1280F06D14FF020
:100C5000010C0CFA00FCC2F814C00AE091F803C0C1
:100C6000BCF1480F05D14FF0010C0CFA00FCC2F8A2
:100C700010C0401C0828D1D31460B1F800C0BCF1EA
:100C8000FF0F34DD546800202EE000F1080C4FF017
:100C9000010808FA0CF3B1F800C00CEA03069E4202
:100CA00021D183004FF00F0C0CFA03F7BC4305FA77
:100CB00003FC4CEA040491F803C0BCF1280F05D1F1
:100CC00000F1080C08FA0CF8C2F8148091F803C07F
:100CD000BCF1480F07D100F1080C4FF0010808FAE9
:100CE0000CF8C2F81080401C0828CED35460BDE830
:100CF000F0810246002093680B400BB1012000E018
:100D000000207047416170470161704700BFFEE7F6
:100D100000BF00F059FE094800F0CAFE0DE0084887
:100D20000078012801D100F017F906480088FFF784
:100D3000EDFC04480088FFF7CBFBF0E750260008E5
:100D40001E0000201A00002008B50121442000F0F8
:100D50008BFA1C20ADF8000048208DF8030069468E
:100D60000648FFF73BFF0120ADF8000028208DF872
:100D7000030069460248FFF731FF08BD0018014033
:100D80000008014010B560480088142190FBF1F282
:100D900001FB1200002879D104215C48FFF7A9FF6C
:100DA00008BB59480088282190FBF1F201FB120092
:100DB000F0B904215548FFF79CFF70B90120544950
:100DC0000870002053490880012053490880534887
:100DD0000088401C514908800AE000204C490870F6
:100DE0004E49088004E00020494908704B490880BA
:100DF00008214648FFF77DFF08BB434800880A21C9
:100E000090FBF1F201FB1200F0B908213F48FFF717
:100E100070FF70B901204249087000203D490880E8
:100E200001203D4908803F480088401C3D4908801A
:100E30000AE000203A4908703A49088004E000209E
:100E4000374908703749088001213748FFF751FFBB
:100E5000012822D12C4800880A2190FBF1F201FBE5
:100E60001200F8B901213048FFF743FF01280ED1E5
:100E70002E49087000202749088001202649088053
:100E80002B480088401C2A4908800BE03BE00020EA
:100E9000264908702649088004E00020234908708C
:100EA0002349088010211948FFF723FF08BB164883
:100EB0000088282190FBF1F201FB1200F0B910210B
:100EC0001248FFF716FF70B901201A490870002078
:100ED0001049088001201049088017480088401CEC
:100EE000154908800AE0002012490870124908805C
:100EF00004E000200F4908700F490880024800886C
:100F0000401C0149088010BD180000200018014055
:100F10001E0000201A0000201C00002020000020DD
:100F200022000020240000200008014026000020AC
:100F3000280000202A0000202C000020044800F097
:100F4000B7FD4FF47A7000F08DFDFFF7E1FE000071
:100F50005022000800BFFEE71EE1904800780128FB
:100F600077D18F48008840F2EE218842F4D10020EA
:100F70008A49087000F028FD8AA20021084600F086
:100F8000B9FD8AA26E21002000F0B4FDFFF7DCFC61
:100F9000FFE08748008814280AD116208449088079
:100FA00084480078401C83490870FFF7CDFC0DE0B1
:100FB00081480088142809D116207F4908807D487F
:100FC0000078401E7B490870FFF7BEFC7B48008814
:100FD00014287CD116207A49087076480078C0EB36
:100FE000C0007849096801EB8000007B652802D0C9
:100FF00066286ED14DE06F480078C0EBC0007149A3
:10100000096801EB80004069E8B36E4800686E49EA
:10101000086068480078C0EBC0006A49096801EBC5
:10102000800040696749086000206249087000F04C
:10103000CBFC60480078C0EBC0006249096801EB56
:101040008000407830B957A20021084600F052FDD8
:1010500015E09FE057480078C0EBC0005949096887
:1010600001EB80004078401EC0EBC0005649096883
:1010700001EB800000218268084600F03BFD4BA296
:101080006E21002000E003E000F034FDFFF75CFC7F
:1010900020E048480078C0EBC0004A49096801EBED
:1010A0008000006990B1434A1278C2EBC202454BFE
:1010B0001B6803EB820290683E4A1278C2EBC202C0
:1010C000404B1B6803EB82021169884702E002E093
:1010D000FFE700BF00BF32480088142851D102202A
:1010E0002E4908704FF43C702D490880364800683E
:1010F000F0B330480078C0EBC0003249096801EB1A
:1011000080004078401E2B4908702F4800682D4908
:1011100008600846006880692B49086000F054FCAC
:1011200024480078C0EBC0002649096801EB800024
:10113000407828B91BA20021084600F0DBFC14E02F
:101140001C480078C0EBC0001E49096801EB800014
:101150004078401EC0EBC0001B49096801EB8000CD
:1011600000218268084600F0C5FC10A26E2100E054
:1011700005E0002000F0BEFCFFF7E6FB01E0FFF712
:10118000C7FD1248008840F25721884201D1FFF77D
:10119000BFFDFEE6FFF7BCFDDFE600001E000020FD
:1011A00020000020B2CBB5A53A0000003E3E000072
:1011B0002400002070070020280000202C000020C0
:1011C0002A000020680700206C0700201A00002079
:1011D0007047000070B5002100230F22C47804B3CB
:1011E000154C246804F4E064C4F5E064210AC1F1FC
:1011F0000403CA40447804FA03F18478144021437C
:1012000009010E4C0678A155047804F01F0501244D
:10121000AC4005786D11AD0005F1E025C5F8004141
:1012200009E0047804F01F050124AC40044D067861
:10123000761145F8264070BD0CED00E000E400E0BA
:1012400080E100E07047000029B1064AD2690243FC
:10125000044BDA6104E0034AD2698243014BDA614C
:10126000704700000010024029B1064A926902430B
:10127000044B9A6104E0034A92698243014B9A61EC
:1012800070470000001002400F48006840F0010065
:101290000D490860084640680C4908400A49486002
:1012A000084600680A49084007490860084600687F
:1012B00020F4802008600846406820F4FE00486062
:1012C0004FF41F0088607047001002400000FFF8D4
:1012D000FFFFF6FE30B500210022002400232D4D33
:1012E0006D6805F00C0121B1042905D0082923D12E
:1012F00005E0294D056022E0274D05601FE0254DE2
:101300006D6805F47012234D6D6805F48034022574
:1013100005EB92421CB9214D554305600BE01D4D74
:101320006D6805F400351DB11C4D5543056002E0A4
:10133000194D5543056002E0174D056000BF00BF21
:10134000144D6D6805F0F0010909154D6B5C0568D9
:10135000DD4045600F4D6D6805F4E061090A104DF0
:101360006B5C4568DD4085600A4D6D6805F4605131
:10137000C90A0B4D6B5C4568DD40C560054D6D6865
:1013800005F44041890B074D6B5CC568B5FBF3F56F
:10139000056130BD0010024000127A0000093D00D6
:1013A000020800201208002010B501460022002388
:1013B00000204A11012A02D1094C236806E0022AC2
:1013C00002D1074C236A01E0054C636A01F01F0259
:1013D000012494401C400CB1012000E0002010BD0D
:1013E000001002400248406800F00C007047000006
:1013F0000010024001460020034A506820F0F0002F
:101400000843506070470000001002400149086026
:10141000704700000000424201460020034A506825
:1014200020F4E06008435060704700000010024064
:1014300001460020034A506820F4605040EAC10091
:101440005060704700100240014908667047000074
:101450000000424202460020044B586820F47C10F1
:1014600042EA01031843014B5860704700100240E4
:1014700001460020034A506820F0030008435060F2
:101480007047000000100240704710B500F002F8ED
:1014900010BD00000CB5002001900090334800689A
:1014A00040F480303149086000BF3048006800F4E3
:1014B000003000900198401C0190009818B90198E4
:1014C000B0F5A06FF1D12948006800F4003010B1E8
:1014D0000120009001E0002000900098012843D1F5
:1014E0002348006840F01000214908600846006861
:1014F00020F0030008600846006840F00200086021
:101500001A484068194948600846406848600846DB
:10151000406840F4806048600846406820F47C10D1
:1015200048600846406840F4E81048600846006893
:1015300040F08070086000BF0C48006800F0007048
:101540000028F9D00948406820F0030007494860A6
:101550000846406840F00200486000BF0348406809
:1015600000F00C000828F9D10CBD0000001002406A
:1015700000200240042808D14FF0E021096941F021
:1015800004014FF0E022116107E04FF0E02109690A
:1015900021F004014FF0E022116170477047000014
:1015A00010B51348006840F0010011490860084672
:1015B0004068104908400E494860084600680E49D6
:1015C00008400B4908600846006820F48020086045
:1015D0000846406820F4FE0048604FF41F00886011
:1015E000FFF753FF4FF000600449086010BD000092
:1015F000001002400000FFF8FFFFF6FE08ED00E0DB
:1016000010B5FFF7BFFBFFF777FA01210B4800F099
:1016100058F888B10A480088B0F57A7F03DB0120CA
:101620000749088004E006480088401C04490880F7
:101630000121024800F036F810BD0000000400400F
:10164000180000207FB505460C4601210220FFF757
:10165000FBFDADF80850ADF804400020ADF80A00DD
:10166000ADF8060001A90E4800F046F80122114627
:101670000B4800F037F81D208DF8000006208DF88B
:10168000010000208DF8020001208DF8030068465B
:10169000FFF7A0FD0121024800F007F87FBD000020
:1016A00000040040CA430282704721B1028842F020
:1016B0000102028004E002884FF6FE731A400280A5
:1016C000704730B50246002000230024158A05EA41
:1016D0000103958905EA010413B10CB1012000E072
:1016E000002030BD1AB183890B43838102E08389D6
:1016F0008B43838170470000002202881D4B984273
:101700000ED01D4B98420BD0B0F1804F08D01B4B30
:10171000984205D01A4B984202D01A4B984204D1F5
:101720004FF68F731A404B881A43174B984207D0D5
:10173000164B984204D04FF6FF431A40CB881A4309
:1017400002808B8883850B8803850A4B98420BD0D7
:10175000094B984208D00E4B984205D00D4B984249
:1017600002D00D4B984201D10B7A0386012383826C
:1017700070470000002C014000340140000400408C
:1017800000080040000C0040001000400014004021
:1017900000400140004401400048014010B540F2C3
:1017A00025511D4800F04AF810B31B4800F002F91B
:1017B000C4B21A48008800F40040C8B9174800882D
:1017C00000F4804060B10A2C03D000201349088047
:1017D00020E01248008840F400401049088019E0D9
:1017E0000D2C06D10D48008840F480400B4908803C
:1017F00010E00A480088C0F30D0009490C5407485E
:101800000088401C0549088008460088C72801DD7B
:101810000020088010BD00000038014000080020B2
:101820002408002021B1828942F40052828104E020
:1018300082894DF6FF731A408281704770B5024667
:10184000002400230025002040F66A16B14200D192
:1018500000BFC1F3421501F01F03012606FA03F38E
:10186000012D02D19689334006E0022D02D1168A5D
:10187000334001E0968A33400C12012606FA04F444
:101880001688344013B10CB1012000E0002070BD77
:10189000F0B50346002400260025002040F66A1714
:1018A000B94200D100BF1846C1F3421401F01F062F
:1018B000012707FA06F5012C01D10C3004E0022CB7
:1018C00001D1103000E014301AB107682F430760CF
:1018D00002E00768AF430760F0BD00002DE9F04764
:1018E00086B005460E460024A24600BFA14600274A
:1018F000B08900B100BF2F462C8A4CF6FF7004401F
:10190000F08804432C82AC894EF6F3100440B08872
:1019100031890843718908430443AC81AC8A4FF68E
:10192000FF400440B0890443AC8201A8FFF7D2FC19
:101930001F48874202D1DDF810A001E0DDF80CA0BD
:10194000A88900F4004040B10AEBCA0000EB0A107D
:1019500031684900B0FBF1F807E00AEBCA0000EB80
:101960000A1031688900B0FBF1F86420B8FBF0F090
:1019700004012009642101FB1089A88900F40040BA
:1019800040B1322000EBC900B0FBF1F000F00700DD
:10199000044308E0322000EB09106421B0FBF1F0B1
:1019A00000F00F0004432C8106B0BDE8F087000072
:1019B0000038014001468888C0F30800704700BF26
:1019C000FEE7014600BF704770B54FF40051134861
:1019D000FFF798F94FF400411048FFF795F90024FC
:1019E00014E004F1B00000F06FFB002000F06CFB8D
:1019F000102000F069FB002504E0002000F09EFBB1
:101A0000681CC5B2802DF8DB601CC4B2082CE8DB72
:101A10004FF400510148FFF777F970BD0014014001
:101A200010B56FF00400FFF7A5FD0A4800680A49E9
:101A3000B0FBF1F0094908700846007800EB40015E
:101A4000C1EBC0104FF6FF7101EAC00004490880E5
:101A500010BD00000000002000127A00F6070020F0
:101A6000F80700200146114A12884A434FF0E0234C
:101A70005A6100229A611A46126942F001021A6103
:101A800000BF4FF0E022106900F001021AB100F42B
:101A90008032002AF5D04FF0E022126922F00102D4
:101AA0004FF0E0231A6100229A617047F807002086
:101AB00070B504464FF400510D48FFF723F9002597
:101AC0000DE0E9B2002000F075FA002604E020786D
:101AD00000F034FB641C761C802EF8D36D1C082D9E
:101AE000EFD34FF400510248FFF70EF970BD00002C
:101AF000001401402DE9F0478EB082460E4615468F
:101B00000024A6E0285DB02836DB285DF72833DC0A
:101B1000601C285CA1282FDB285DB0385E2148437B
:101B20004F490860601C285C00F2AD200968084439
:101B30004B49086008460068400108600846006894
:101B4000C0F3074708460088C0F30728084690F806
:101B50000090202006AB4A4641460090384600F0EF
:101B600077F906AA3146504600F0A8F8A01CC4B286
:101B700006F11000C6B26CE0285DA12835DB285DB7
:101B8000A32832DC601C285CA1282EDB285DA1384C
:101B90005E21484332490860601C285CA13809680E
:101BA00008442F490860084600684001086008465C
:101BB0000068C0F3074708460088C0F307280846B6
:101BC00090F80090202006AB4A46414600903846E7
:101BD00000F03EF906AA3146504600F06FF8A01C0E
:101BE000C4B206F11000C6B233E0285D20282EDB17
:101BF000285D7E282BDC285D2038194908600846BE
:101C00000068000108600846006816490844144945
:101C1000086008460068C0F3074708460088C0F31C
:101C20000728084690F80090102002AB4A4641462B
:101C30000090384600F00CF902AA3146504600F0F8
:101C400099F8601CC4B206F10800C6B201E0601C3D
:101C5000C4B2285D00283FF755AF0EB0BDE8F0874D
:101C60001400002080CF03002DE9F04104460E4609
:101C700015464FF400511048FFF744F84FF00208A2
:101C80000FE0E1B2304600F095F9002704E0287833
:101C900000F054FA6D1C7F1C062FF8D3641CA8F1C9
:101CA0000108B8F1000FECD14FF400510248FFF7E2
:101CB0002BF8BDE8F0810000001401402DE9F0414F
:101CC00004460E4615464FF400511248FFF71AF825
:101CD0004FF400410F48FFF717F84FF002080FE0EC
:101CE000E1B2F0B200F066F9002704E0287800F0D5
:101CF00025FA6D1C7F1C102FF8D3641CA8F1010875
:101D0000B8F1000FECD14FF400510248FEF7FCFF90
:101D1000BDE8F081001401402DE9F04104460E4673
:101D200015464FF400511248FEF7ECFF4FF4004106
:101D30000F48FEF7E9FF4FF004080FE0E1B2F0B200
:101D400000F038F9002704E0287800F0F7F96D1C5E
:101D50007F1C102FF8D3641CA8F10108B8F1000F04
:101D6000ECD14FF400510248FEF7CEFFBDE8F08100
:101D7000001401402DE9F04104460E4615464FF48B
:101D800000511048FEF7BEFF4FF002080FE0E1B22D
:101D9000304600F00FF9002704E0287800F0CEF973
:101DA0006D1C7F1C082FF8D3641CA8F10108B8F142
:101DB000000FECD14FF400510248FEF7A5FFBDE83B
:101DC000F08100000014014000BF054A128802F0B3
:101DD0004002002AF9D0C2B2014B1B1D1A80704785
:101DE0000038014070B500244FF400711748FEF729
:101DF0008BFF00BFFEF7E0FE002520E04FF480419E
:101E00001248FEF781FF00BF4FF400710F48FEF744
:101E100079FF00BF6006040E4FF480410B48FEF7C7
:101E200068FF18B1601CC4B200BF01E0E4B200BF9B
:101E30004FF400710548FEF767FF681CC5B2082D16
:101E4000DCDBFEF7A7FE204670BD00000014014059
:101E50002DE9F04780460D4616461F46DDF82090D6
:101E60004FF400411448FEF74DFF4FF40051124863
:101E7000FEF74AFF4FF400710F48FEF743FF0320BF
:101E800000F0F8F8404600F0F5F8284600F0F2F8C7
:101E9000304600F0EFF8002404E0FFF7A3FF3855C8
:101EA000601CC4B24C45F8DB4FF400410248FEF719
:101EB0002BFFBDE8F08700000014014010B54FF47F
:101EC000C870FFF7CFFDFEF739FE4FF400613848C8
:101ED000FEF718FF4FF4C870FFF7C4FD4FF4006120
:101EE0003348FEF711FF4FF400513148FEF70AFF67
:101EF0004FF400412E48FEF707FFAE2000F0E4F853
:101F0000202000F0E1F8102000F0DEF8B02000F012
:101F1000DBF8C82000F0D8F8002000F0D5F8102039
:101F200000F0D2F8402000F0CFF8812000F0CCF88B
:101F3000FF2000F0C9F8A12000F0C6F8A62000F0AC
:101F4000C3F8A82000F0C0F83F2000F0BDF8A4209E
:101F500000F0BAF8D32000F0B7F8002000F0B4F891
:101F6000D52000F0B1F8F02000F0AEF8D92000F054
:101F7000ABF8222000F0A8F8DA2000F0A5F8122033
:101F800000F0A2F8DB2000F09FF8202000F09CF881
:101F90008D2000F099F8142000F096F8AF2000F0A2
:101FA00093F84FF400510248FEF7AEFE10BD00005A
:101FB0000014014070B504460D4605F1B00000F074
:101FC00083F8102141EA141000F07EF804F00F00AD
:101FD00000F07AF870BD00BF00F016F8FFF720FDA2
:101FE0004FF4165000F0E4F8FEF7AEFE40F27F2109
:101FF0000920FFF727FBFFF761FFFFF7E5FC01E092
:10200000FEF79CFFFCE7000010B5FFF73DF901204B
:10201000FFF7FCF900BF2120FFF7C6F90028FAD02E
:102020000020FFF7E7F94FF48060FFF7F5F9002093
:10203000FFF7FEF94FF460110020FFF70BFA0C4890
:10204000006840F032000A4908600120FFF7FCF9FF
:1020500000BF3920FFF7A8F90028FAD00220FFF7C7
:1020600007FA00BFFFF7BEF90828FBD110BD00003A
:102070000020024070B5044600251FE004F08000F7
:1020800030B14FF480610F48FEF73EFE00BF05E01F
:102090004FF480610B48FEF735FE00BF6006040E6A
:1020A0004FF400710748FEF72DFE00BF4FF400719A
:1020B0000448FEF729FE00BF681CC5B2082DDDDB11
:1020C00070BD00000014014070B504464FF480510B
:1020D0001948FEF717FE4FF400511748FEF712FE9D
:1020E00000251BE04FF400711348FEF70BFE04F0CF
:1020F000800028B14FF480610F48FEF705FE04E030
:102100004FF480610C48FEF7FDFD4FF400710A4862
:10211000FEF7FAFD00BF6400681CC5B2082DE1DBC4
:102120004FF480510448FEF7EFFD4FF40051024890
:10213000FEF7EAFD70BD00000014014070B50446D2
:102140004FF480511948FEF7DFFD4FF40051174856
:10215000FEF7D8FD00251BE04FF400711348FEF791
:10216000D1FD04F0800028B14FF480610F48FEF7E4
:10217000CBFD04E04FF480610C48FEF7C3FD4FF443
:1021800000710A48FEF7C0FD00BF6400681CC5B2BC
:10219000082DE1DB4FF480510448FEF7B5FD4FF404
:1021A00000510248FEF7B0FD70BD00000014014070
:1021B00010B586B00446012144F20400FFF754F83C
:1021C0004FF40070ADF8140003208DF816001820AD
:1021D0008DF8170005A91C48FEF700FD4FF480603C
:1021E000ADF8140004208DF8170005A91648FEF775
:1021F000F5FC25208DF8000003208DF801008DF8F6
:10220000020001208DF803006846FEF7E3FF019409
:102210000020ADF80800ADF80A00ADF80C00ADF8EC
:1022200010000C20ADF80E0001A90848FFF756FB7E
:10223000012240F225510548FFF72AFB01210348FE
:10224000FFF7F0FA06B010BD000801400038014069
:10225000000000000000000000000000000000007E
:10226000000000000000000000000000000000006E
:10227000000000000000000000000000000000005E
:102280000000008080C0C0E0E0606020302020209E
:10229000002000000080FCF0E08000000000000052
:1022A000000000000000000000000000000000002E
:1022B000000000000000000000000000000000001E
:1022C000000000000000000000000000000000000E
:1022D00000000000000000000000000000000000FE
:1022E00000000000000000000000000000000000EE
:1022F00000000000000000000000000080E0F0FC92
:10230000FC7E1F0F0703010000000000000000001A
:102310000000000000FAFFFFFFFFFFFCF0C000001C
:1023200000000000000000000000000000000000AD
:10233000000000000000000000000000000000009D
:10234000000000000000000000000000000000008D
:10235000000000000000000000000000000000007D
:10236000000000000000000000000000000000006D
:1023700000000000000000000000E8FEFFFFFF1F5B
:102380000100000000000000000000000080C0E02C
:10239000F0F8FC0CA0FFFFFFFFFFFFFFFFFFFEF8C0
:1023A00080000000000000000000000000000000AD
:1023B000000000000000000000000000000000001D
:1023C000000000000000000000000000000000000D
:1023D00000000000000000000000000000000000FD
:1023E00000000000000000000000000000000000ED
:1023F000000000000000000000000F7FFFFFFFFA58
:10240000C0000000000000000000000C06070F0FD5
:102410001F7F0380FEBFCFCFC7C3E3E3E3636367E0
:102420006F600000000000000000000000000000DD
:10243000000000000000000000000000000000009C
:10244000000000000000000000000000000000008C
:10245000000000000000000000000000000000007C
:10246000000000000000000000000000000000006C
:1024700000000000000000000000000001070F3F06
:102480003F7FFCF8F0E0C08080103018180C0C661C
:1024900037331B1D8FCF67370B2F0A060606060042
:1024A000000000000000000000000000000000002C
:1024B000000000000000000000000000000000001C
:1024C000000000000000000000000000000000000C
:1024D00000000000000000000000000000000000FC
:1024E00000000000000000000000000000000000EC
:1024F00000000000000000000000000000000000DC
:102500000000000101030307070707060E060E0679
:1025100004060602030202000000000000000000A2
:1025200000000000000000000000000000000000AB
:10253000000000000000000000000000000000009B
:10254000000000000000000000000000000000008B
:10255000000000000000000000000000000000007B
:10256000000000000000000000000000000000006B
:1025700000008080FE8282FE8080FE8282FEFE80DD
:102580000000F80808FF08F800FE02E282FE0000E2
:102590000000000202020202FEFE0202020202002B
:1025A000000010F0C00003FF0000FF0000C070003A
:1025B000000000000000000000000000000000001B
:1025C000000000000000000000000000000000000B
:1025D00000000000000000000000000000000000FB
:1025E00000000000000000000000000000000000EB
:1025F0000000203E0700203F40780F00203F1F00D2
:1026000000000F00003F082718070000013F203896
:1026100000001010101010101F1F101010101010BC
:10262000000020202320203F20203F2021232020A5
:10263000000000000000000000000000000000009A
:10264000000000000000000000000000000000008A
:102650000000000020F0201010E00000E01010103A
:10266000E00000605090B00020F20010FC1000204C
:10267000F20000E0101010E00020F0201010E00048
:10268000000000000000000000000000000000004A
:10269000000000000000000000000000000000003A
:1026A000000000000000000000000000000000002A
:1026B00000000000000000000000000000F008041E
:1026C000021C22229C6010CC2220C0020408F000D0
:1026D00040404040505F51424241404041424242AE
:1026E00041404043424241404243424043424142D2
:1026F00043424041424242414042434240424342BF
:1027000040404040404040404040404040404040C9
:1027100040404040404040404040404040404040B9
:1027200040404040404040404040404040404040A9
:10273000404040404040404040404040404344488A
:102740005040404340404041424241504844434051
:102750000000000000000000000000000000000079
:102760000000000000000000000000000000000069
:102770000000000000000000000000000000000059
:102780000000000000000000000000000000000049
:1029900000000000E01010E0008060100000000067
:1029A0000000609090102070000000808000008087
:1029B000E0800000800080800000000080808000B7
:1029C000000090000080008080000080E080000017
:1029D00000000000000000000000000000000000F7
:1029E00000000000000000000000000000000000E7
:1029F00000000000000000000000000000000000D7
:102A000000000000000000000000000000000000C6
:102A1000000000000001190403000E11110E000057
:102A200000001C081011110E00000F12120B000004
:102A30001F100881FF8910100F00000F1010100FD9
:102A400000111F10111F1100101F10001F1008008F
:102A50000000000000000000000000000000000076
:102A60000000000000000000000000000000000066
:102A70000000000000000000000000000000000056
:102A80000000000000000000000000000000000046
:102E60000000FEFFFF0303030303030303FFFFFE52
:102E70000000FFFFFF0000000000000000FFFFFF58
:102E800000007FFFFFC0C0C0C0C0C0C0C0FFFF7F48
:102E90000000000000000000000000000000000032
:102EA0000000000000000000000000000000000022
:102EB000000000000000000000000060FEFFFF00B6
:102EC000000000000000000000000000FFFFFF0005
:102ED000000000000000000000000000FFFFFF00F5
:102EE00000000000000000000000000000000000E2
:102EF00000000000000000000000000000000000D2
:102F000000007E7F7F0303030303030303FFFFFE31
:102F10000000000000000080C0F0783C0F070300B4
:102F20000000C0E0F8FCDECFC3C1C0C0C0C0C0C05C
:102F30000000000000000000000000000000000091
:102F40000000000000000000000000000000000081
:102F500000007E7F7F0303030303030303FFFFFEE1
:102F600000000000000000081C1C363663E3C1C1ED
:102F700000007FFFFFC0C0C0C0C0C0C0C0FFFF7F57
:102F80000000000000000000000000000000000041
:102F90000000000000000000000000000000000031
:102FA0000000000000C0F0FC3F0F838080000000A4
:102FB00000C0F0FC3F0F03000000FFFFFF00000017
:102FC00003030303030303030303FFFFFF030303DD
:102FD00000000000000000000000000000000000F1
:102FE00000000000000000000000000000000000E1
:102FF0000000FFFFFF0303030303030303030303B3
:1030000000000707070606060606060606FEFEFC83
:1030100000007FFFFFC0C0C0C0C0C0C0C0FFFF7FB6
:1030200000000000000000000000000000000000A0
:103030000000000000000000000000000000000090
:103040000000FEFFFF03030303030303033F3F3EB0
:103050000000FFFFFF0C0C0C0C0C0C0C0CFCFCF823
:1030600000007FFFFFC0C0C0C0C0C0C0C0FFFF7F66
:103070000000000000000000000000000000000050
:103080000000000000000000000000000000000040
:1030900000003F3F3F03030303030383F3FF3F07A6
:1030A000000000000000000000E0FCFF1F01000025
:1030B000000000000000C0F8FF3F07000000000013
:1030C0000000000000000000000000000000000000
:1030D00000000000000000000000000000000000F0
:1030E0000000FEFFFF0303030303030303FFFFFED0
:1030F0000000E1E3F7363E1C1C1C1C3E36F7E3C122
:1031000000007FFFFFC0C0C0C0C0C0C0C0FFFF7FC5
:1031100000000000000000000000000000000000AF
:10312000000000000000000000000000000000009F
:103130000000FEFFFF0303030303030303FFFFFE7F
:1031400000001F3F3F3030303030303030FFFFFF65
:1031500000007CFCFCC0C0C0C0C0C0C0C0FFFF7F7E
:10316000000000000000000000000000000000005F
:10317000000000000000000000000000000000004F
:10318000000000000000000000000000000000003F
:10319000000000000000000000000000000000002F
:1031A000000000000000E0E0E0000000000000007F
:1031B000000000000000000000000000000000000F
:1031C00000000000000000000000000000000000FF
:1031D00000000000000000000000000000000000EF
:1031E00000000000000000000000000000000000DF
:1031F00000000000000000000000000000000000CF
:1032000000000000000000000000000000000000BE
:10321000312E4B5031202020202020202000000083
:10322000332E545631202020202020202000000062
:10323000322E4B5032202020202020202000000061
:10324000342E545632202020202020202000000040
:10325000352E4169722020202020202020000000EF
:10326000362E4169722020202020202020000000DE
:10327000372E4169722020202020202020000000CD
:10328000382E4169722020202020202020000000BC
:10329000392E4169722020202020202020000000AB
:1032A000342E4558495420202020202020000000A2
:1032B000362E455849542020202020202000000090
:1032C000382E45584954202020202020200000007E
:1032D000392E45584954202020202020200000006D
:1032E000352E54455354202020202020200000005B
:1032F00031302E4169722020202020202000000043
:1033000031312E4169722020202020202000000031
:10331000342E414C41524D2020202020200000001E
:1033200031322E4558495420202020202000000012
:10333000352E455849542020202020200000000030
:10334000342E54455354202020202020000000001B
:1033500043616E63656C2020202020200000000067
:10336000322E53505F52474520202020200000007D
:10337000372E54524156454C20202020200000007A
:10338000332E414354494F4E20202020200000007E
:10339000352E414354494F4E20202020200000006C
:1033A000342E4354524C455220202020200000004F
:1033B000312E4D494E5F5652202020202000000023
:1033C000322E4D41585F5652202020202000000010
:1033D000436F6E6669726D2020202020000000007F
:1033E000372E52414D50A1C4202020202000000043
:1033F000382E52414D50A1C5202020202000000031
:10340000322E504F535F53573120202020000000B0
:10341000332E504F535F535732202020200000009E
:10342000312E4D494E5F524745202020200000009C
:10343000322E4D494E5F524745202020200000008B
:10344000322E4D41585F5247452020202000000079
:10345000332E4D41585F505247202020200000005D
:10346000352E414C41524D532020202000000000B9
:10347000342E434841524143542020202000000074
:10348000342E5350524E475F593220202000000006
:10349000352E41444A5F4D4F444520202000000016
:1034A000312E4C4541434B41474520202000000030
:1034B000332E53454E535F524745202020000000D5
:1034C000362E534855542D4F4646202020000000EC
:1034D000362E4D414E5F41444A202020000000001E
:1034E000332E4143544155544F52202020000000B8
:1034F000362E5354524B5F4354522020200000007C
:10350000332E5A45524F5F504F5320202000000069
:10351000312E54494D455F4F555420202000000066
:10352000352E54494D455F4F555420202000000052
:10353000342E5357315F4143545620202000000061
:10354000352E5357325F414354562020200000004F
:10355000332E544F4C5F42414E4420200000000067
:10356000312E5354414E444152442020000000006B
:10357000322E4155544F5F41444A20200000000044
:10358000372E4354524C5F5041522020000000001F
:10359000312E4143545541544F5220200000000029
:1035A000332E4143545541544F5220200000000017
:1035B000342E4D4553534147455320200000000011
:1035C000322E534554504F494E54202000000000E5
:1035D000382E414E4C475F4F5554202000000000CC
:1035E000312E5369676E616C537973746500000006
:1035F0000000000014360008000000201808000039
:103600006C010008A03800081808002038070000E6
:10361000C80100081184A24A043809010203040603
:103620000708090C590401101A081613F0351B0875
:10363000600472651310014A201C3A021C9AC01CD7
:103640007A9C1C3A031C9AA01C6B98021C3A041C1E
:103650009AB01C6B08031C4A05708A341C7AB01C93
:103660003A061C9AD01C6B90041C3A071C9A805492
:103670006B38051C4A0838991C4B88061C4B050101
:10368000E09A901C4122304C200501E09A701C13F6
:1036900030074A201C49E00A13503849E00B124019
:1036A000331C49E01A301C32661B550A9D591C4BCD
:1036B00009028C0A11E0544B09028C9A30FC891CD7
:1036C000598C09131C498C0A13701C498C0A1190DF
:1036D000A83C0902061C0A13C0384A07A809133877
:1036E0003A081C0A13F01C3A091C0B10D032FC4B90
:1036F0000403FC0A1120704B0403FC0A13401C490C
:10370000FC11190409101C49FC0A11A0704B060495
:10371000700A1110384B060470110911704B060421
:10372000700A13101C49700A1330544A05C4091357
:103730001C3A061C0A11B0A84B0805A89AA07013E1
:1037400030074A201C49A80B1260331C49A80A13F1
:10375000B03849A80A13A03849A89A20A8891C495A
:10376000A80A13F0543A071C0A1370543A081C0AAA
:1037700011C0E04B0606E09AB038891C49E00A13F4
:10378000C01C49E09AE08C891C49E00A13801C495E
:10379000E00A13901C49E00A11B0A84B0C07A81AC4
:1037A000101CE9384B0C07A80A13301C49A80A134F
:1037B000201C49A80A13401C49A80A13501C49A8F8
:1037C0000A13601C3A071C0A13701C3A081C0A13DF
:1037D000801C3A091C0A13901C3A0A1C0A13F01C9C
:1037E0003A0B1C110A12331C4A0CFC191C32661BC2
:1037F000550A28591C4C0608011C0A1034383C068E
:1038000008021C0A13401C4A03C40911703C060834
:10381000041C0A13101C3A051C0A11E0C43C0608DB
:10382000061C1AB01CE9A84B0202A81A505441C940
:103830001C49A80A11D0E029046116E0101010E01C
:103840001A0F06420F5320F0121F166010109060DE
:103850003E18141211100C12E0260C1011120E2436
:103860008060901D0605041FCE193612103E091106
:1038700011110F4812601A0F0C120E1A30303270EC
:103880006B1807603A0E18490C3A0D30810213107C
:103890002D0102030404180806070809020406B6ED
:0400000508000215D8
:00000001FF
