:020000040800F2
:10000000981500201D020008111A00082913000885
:10001000AD18000891080008D9240008000000006D
:10002000000000000000000000000000211D00088A
:100030009D0B000800000000851A0008351E00080E
:1000400037020008370200083702000837020008AC
:10005000370200083702000837020008370200089C
:10006000370200083702000837020008370200088C
:10007000370200083702000837020008370200087C
:10008000370200083702000837020008370200086C
:10009000370200083702000837020008370200085C
:1000A000370200083702000837020008370200084C
:1000B00037020008991E00083702000837020008BE
:1000C000370200083702000837020008370200082C
:1000D00037020008792200083702000837020008BA
:1000E000370200083702000837020008370200080C
:1000F00037020008370200083702000837020008FC
:1001000037020008370200083702000837020008EB
:1001100037020008370200083702000837020008DB
:1001200037020008370200083702000837020008CB
:1001300000F002F800F062F80AA090E8000C824497
:100140008344AAF10107DA4501D100F057F8AFF274
:10015000090EBAE80F0013F0010F18BFFB1A43F0A5
:1001600001031847C0410000E04100000A444FF07D
:10017000000C10F8013B13F0070408BF10F8014B06
:100180001D1108BF10F8015B641E05D010F8016B4B
:10019000641E01F8016BF9D113F0080F1EBF10F8AF
:1001A000014BAD1C0C1B09D16D1E58BF01F801CBD2
:1001B000FAD505E014F8016B01F8016B6D1EF9D555
:1001C0009142D6D37047000000230024002500266A
:1001D000103A28BF78C1FBD8520728BF30C148BFAA
:1001E0000B607047642900F0A580732900F04D81F1
:1001F000002070471FB51FBD10B510BD00F078F985
:100200001146FFF7F7FF02F09EFC00F096F903B4E9
:10021000FFF7F2FF03BC02F061F9000009488047D4
:1002200009480047FEE7FEE7FEE7FEE7FEE7FEE7D8
:10023000FEE7FEE7FEE7FEE704480549054A064BF0
:1002400070470000391E000831010008980F002097
:100250009815002098110020981100207047000088
:100260000FB4044910B503AA029800F013F910BCAA
:100270005DF814FB180E00202DE9F0410E460446EF
:10028000002020622046E168884730B3252805D049
:10029000D4E901219047206A401CF2E7E16820463A
:1002A00000278847050018D0A5F14100192802D879
:1002B00020354FF400673246294620462760FFF775
:1002C00091FF40B1012804D0F61D26F0070608363C
:1002D000D8E7361DD6E72846DAE7206ABDE8F08180
:1002E00070B50C460546012A05D02878800600D551
:1002F000EA69002302E0012305E05B1C934202D27D
:10030000E05C0028F9D1A869E618C01AA861286A3B
:10031000184428622846AFF3008004E0D5E90121A3
:1003200014F8010B9047B442F8D32846AFF300808D
:1003300070BD00002DE9F0410646002410687529C3
:10034000314616A510D0AFF30080002802DA4042F3
:1003500013A507E031688A0701D512A502E0490715
:1003600004D511A5012401E0AFF3008000210A2289
:1003700006F1240709E0B0FBF2FCB0FBF2F302FB4C
:100380001C00303078541846491C0028F3D123460D
:100390002A463046BDE8F04100F00CB800000000ED
:1003A0002D0000002B000000200000007047704767
:1003B000704770472DE9F0470D469946924604462E
:1003C00000F124080168880604D5E06921F01001D5
:1003D000216000E00120A84201DD471B00E000276A
:1003E000A1697A1902EB0900081AA0612078C006F9
:1003F00002D42046AFF30080002608E0D4E90121B2
:100400001AF806009047206A401C761C20624E4570
:10041000F4DB2078C0060AD52046AFF3008006E062
:10042000D4E9012130209047206A401C2062381E08
:10043000A7F10107F4DC07E0D4E9012118F8050071
:100440009047206A401C2062281EA5F10105F3DCBC
:100450002046AFF300802078000602D50220BDE8D8
:10046000F0870120FBE710B5436913B1AFF30080BB
:1004700001E0FFF735FF012010BD127800F12401E3
:100480000A7000224A700122EDE711684FF0FF3236
:10049000E9E70000074B70B50D467B4400F011F80A
:1004A0000446284600F020F810B14FF0FF3070BD30
:1004B000204670BD9B24000001694A1C0261087837
:1004C000704700B58FB0CDE9013100210591054994
:1004D0007944CDE9031011466846FFF7CDFE0FB011
:1004E00000BD0000E5FFFFFF007B00F080007047CB
:1004F000754600F029F8AE4605006946534620F0DF
:100500000700854618B020B5FFF796FEBDE82040ED
:100510004FF000064FF000074FF000084FF0000BBF
:1005200021F00701AC46ACE8C009ACE8C009ACE872
:10053000C009ACE8C0098D4670470446AFF300809F
:100540002046FFF764FE000000487047340F00208B
:1005500021B1826842F00102826003E0826822F0E9
:1005600001028260704721B1826842F48072826029
:1005700003E0826822F480728260704710B50446FE
:100580001248844208D10121401501F0B9FA002136
:10059000601501F0B5FA17E00D48844208D1012139
:1005A000001501F0ADFA0021201501F0A9FA0BE0C9
:1005B0000848844208D10121C80301F0A1FA0021B2
:1005C0004FF4004001F09CFA10BD000000240140EF
:1005D00000280140003C0140014600208A6802F0EA
:1005E00004020AB1012000E000207047014600200B
:1005F0008A6802F008020AB1012000E0002070477A
:1006000030B502460020002350680F4C20400D7981
:100610000C6844EA05242043506090680B4C20404D
:10062000D1E902542C434D7944EA450420439060BB
:10063000D06A20F470000C7C641EE4B2234340EACC
:100640000350D06230BD0000FFFEF0FFFDF7F1FF68
:10065000F0B504460D4600200021092D11DDE068AB
:10066000A5F10A0606EB4607072606FA07F18843B6
:10067000A5F10A0606EB460603FA06F10843E06018
:100680000CE0206905EB4507072606FA07F18843C9
:1006900005EB450603FA06F108432061072A0FDA45
:1006A000606B561E06EB86071F2606FA07F1884385
:1006B000561E06EB860605FA06F10843606322E043
:1006C0000D2A0FDA206BD61F06EB86071F2606FAC7
:1006D00007F18843D61F06EB860605FA06F10843A4
:1006E000206310E0E06AA2F10D0606EB86071F26E4
:1006F00006FA07F18843A2F10D0606EB860605FA15
:1007000006F10843E062F0BD816841F008018160B4
:10071000704721B1826842F4A002826003E08268DF
:1007200022F4A00282607047816841F00401816078
:100730007047000000B587B0012140F2192001F098
:10074000CFF94FF4004001F09FF90320ADF8040009
:1007500000208DF8070003208DF8060001A92F481E
:1007600000F04AFD3020ADF8040000208DF80700AD
:1007700003208DF8060001A9294800F03DFD294815
:10078000FFF7FCFE0020029001208DF80C008DF890
:100790000D00002005904FF46020049004208DF897
:1007A000180002A91F48FFF72BFF0623012208218A
:1007B0001C48FFF74DFF0623022209211948FFF7C5
:1007C00047FF062303220E211648FFF741FF0623A9
:1007D00004220F211348FFF73BFF01211148FFF7C7
:1007E000C2FE01210F48FFF7B3FE0E48FFF78CFF52
:1007F00000BF0C48FFF7FAFE0028FAD10948FFF7BE
:1008000093FF00BF0748FFF7E7FE0028FAD1012158
:100810000448FFF77EFF07B000BD0000000C014058
:100820000010014000240140002023E0164909681F
:1008300001EB4011C98A05291AD113490968134AE5
:10084000127801EB421189780F4A126802EB4012CC
:100850009278914206D10D210B4A126802EB4012A8
:10086000918205E00E21084A126802EB4012918243
:10087000411CC8B204490968044A127801EB4211CC
:1008800009788142D2DC70476C000020740000209F
:1008900000BFFEE706460C460027258801F022FE31
:1008A00032460121002001F0B3FE30A219210220BE
:1008B00001F0AEFE31A21921042001F0A9FE33A2FD
:1008C0000121022001F0A4FE30A20121042001F048
:1008D0009FFE0D2D05D12EA20121042001F098FECE
:1008E00006E00E2D04D12AA20121022001F090FE83
:1008F0003BE0002000F046FE0746012F2AD0022FE1
:1009000004D0032F0ED0042F2DD117E020A20121F7
:10091000022001F07DFE1DA20121042001F078FEDD
:100920000E2521E019A20121022001F071FE18A27A
:100930000121042001F06CFE0D2515E00120154970
:10094000087040F2EE20144908802580FFF76CFF04
:1009500000F0AEFF01200F49087040F2EE200E4972
:10096000088000F0A5FF00BF00BFC2E743616E63CF
:10097000656C20202020202000000000436F6E6660
:1009800069726D202020202000000000A1F50000E9
:10099000A1F60000140000201600002021B102681A
:1009A00042F00102026004E002684FF6FE731A4052
:1009B0000260704710B50121084601F071F8114836
:1009C00000F028F8104811490860114848600020DC
:1009D00088600420C86000200861802048614000D1
:1009E00088618000C86120200862C0014862002040
:1009F0008862044800F0B4F801210248FFF7CEFFF6
:100A000010BD0000080002404C240140400E0020B0
:100A1000020E002001684FF6FE72114001600021B5
:100A2000016041608160C1604B49884208D14A49F8
:100A30000839496841F00F01474A083A51608AE095
:100A400045491431884208D143490839496841F081
:100A5000F001414A083A51607DE03F49283188421F
:100A600008D13D490839496841F470613A4A083A69
:100A7000516070E038493C31884208D13649083924
:100A8000496841F47041344A083A516063E03249A0
:100A90005031884208D130490839496841F4702101
:100AA0002D4A083A516056E02B496431884208D1FA
:100AB00029490839496841F47001274A083A5160C8
:100AC00049E025497831884208D1234908394968E5
:100AD00041F07061204A083A51603CE01F49884269
:100AE00006D1011F096841F00F01021F116032E0B9
:100AF0001A491431884208D11849091F096841F080
:100B0000F001164A121F116025E01449283188426D
:100B100008D11249091F096841F470610F4A121F78
:100B2000116018E00D493C31884208D10B49091F7A
:100B3000096841F47041094A121F11600BE007492E
:100B40005031884207D10549091F096841F47021D5
:100B5000024A121F11607047080002400804024058
:100B600010B50022026847F6F0739A430C6A8B684E
:100B700023430C6923434C6923438C692343CC6989
:100B800023434C6A23438C6A23431A430260CB6895
:100B900043600B6883604B68C36010BD7047000002
:100BA0002DE9F0410446002700250026642094FB2F
:100BB000F0F0C7B2642094FBF0F100FB11400A2171
:100BC00090FBF1F0C5B2642094FBF0F100FB114002
:100BD0000A2190FBF1F201FB1200C6B2B4F57A7F54
:100BE00006D10027714A2321062001F0CBFD04E045
:100BF0006F4A2321062001F0C5FD0A2F42D2DFE80B
:100C000007F0050B11171D23292F353B694A2A21AF
:100C1000062001F0B7FD35E0644A2A21062001F0E4
:100C2000B1FD2FE0644A2A21062001F0ABFD29E046
:100C3000624A2A21062001F0A5FD23E0604A2A210C
:100C4000062001F09FFD1DE05E4A2A21062001F0EA
:100C500099FD17E05C4A2A21062001F093FD11E07E
:100C60005A4A2A21062001F08DFD0BE0584A2A211C
:100C7000062001F087FD05E0564A2A21062001F0F2
:100C800081FD00BF00BF0A2D42D2DFE805F0050B51
:100C900011171D23292F353B464A3121062001F02B
:100CA00071FD35E0414A3121062001F06BFD2FE056
:100CB000414A3121062001F065FD29E03F4A3121FA
:100CC000062001F05FFD23E03D4A3121062001F0BE
:100CD00059FD1DE03B4A3121062001F053FD17E08C
:100CE000394A3121062001F04DFD11E0374A31210A
:100CF000062001F047FD0BE0354A3121062001F0C6
:100D000041FD05E0334A3121062001F03BFD00BFE3
:100D100000BF0A2E42D2DFE806F0050B11171D2393
:100D2000292F353B234A3C21062001F02BFD35E0DD
:100D30001E4A3C21062001F025FD2FE01E4A3C21E1
:100D4000062001F01FFD29E01C4A3C21062001F08D
:100D500019FD23E01A4A3C21062001F013FD1DE095
:100D6000184A3C21062001F00DFD17E0164A3C21EF
:100D7000062001F007FD11E0144A3C21062001F095
:100D800001FD0BE0124A3C21062001F0FBFC05E0CE
:100D9000104A3C21062001F0F5FC00BF00BF0E4ABE
:100DA0003721062001F0EEFCBDE8F0812A0D00207D
:100DB000340E00201E0D0020360D0020420D0020B4
:100DC0004E0D00205A0D0020660D0020720D0020EF
:100DD0007E0D00208A0D0020960D00202DE9F041A7
:100DE0000446002700250026642094FBF0F0C7B2DB
:100DF000642094FBF0F100FB11400A2190FBF1F01C
:100E0000C5B2642094FBF0F100FB11400A2190FB75
:100E1000F1F201FB1200C6B2B4F57A7F05D10027CA
:100E2000714A022001F006FD04E0704A0A21022006
:100E300001F000FD0A2F42D2DFE807F0050B111781
:100E40001D23292F353B6A4A1E21022001F0F2FCA6
:100E500035E0654A1E21022001F0ECFC2FE0654AD6
:100E60001E21022001F0E6FC29E0634A1E21022037
:100E700001F0E0FC23E0614A1E21022001F0DAFCCF
:100E80001DE05F4A1E21022001F0D4FC17E05D4AFC
:100E90001E21022001F0CEFC11E05B4A1E2102203F
:100EA00001F0C8FC0BE0594A1E21022001F0C2FCEF
:100EB00005E0574A1E21022001F0BCFC00BF00BF24
:100EC0000A2D42D2DFE805F0050B11171D23292F4B
:100ED000353B474A3221022001F0ACFC35E0424A62
:100EE0003221022001F0A6FC2FE0424A32210220EA
:100EF00001F0A0FC29E0404A3221022001F09AFCD6
:100F000023E03E4A3221022001F094FC1DE03C4ADD
:100F10003221022001F08EFC17E03A4A32210220F1
:100F200001F088FC11E0384A3221022001F082FCF5
:100F30000BE0364A3221022001F07CFC05E0344A05
:100F40003221022001F076FC00BF00BF0A2E42D2FF
:100F5000DFE806F0050B11171D23292F353B244A26
:100F60005221022001F066FC35E01F4A5221022086
:100F700001F060FC2FE01F4A5221022001F05AFCD0
:100F800029E01D4A5221022001F054FC23E01B4AB3
:100F90005221022001F04EFC1DE0194A522102208C
:100FA00001F048FC17E0174A5221022001F042FCF0
:100FB00011E0154A5221022001F03CFC0BE0134ADB
:100FC0005221022001F036FC05E0114A5221022094
:100FD00001F030FC00BF00BF0E4A4221022001F0A8
:100FE00029FCBDE8F0810000183A0008383D0008EF
:100FF000C8390008683A0008B83A0008083B0008F9
:10100000583B0008A83B0008F83B0008483C000893
:10101000983C0008E83C000870B53A48006805783C
:10102000032D01DD032000E02846064636480078FF
:10103000A84215DB34480078FF2802D1002032494D
:10104000087031480078A84203DB00202E49087060
:1010500006E02D480078002802DC681E2A49087046
:1010600001F040FA2748006801214268002001F0A1
:10107000CFFA25480078032822DB002418E0224913
:101080000978C91E631C19441E4B1B6803EB4111F0
:101090008A68611C4906080E192101F0B9FA611C21
:1010A0004906080E19A2012101F0B2FA601CC4B26F
:1010B000B442E4DB16A20121062001F0A9FA20E0E7
:1010C000002413E00F49096801EB44118A68611C90
:1010D0004906080E192101F09BFA611C4906080E09
:1010E0000AA2012101F094FA601CC4B2B442E9DB07
:1010F00005490978491C4906080E05A2012101F09D
:1011000087FA70BD6C00002074000020A1F500007B
:10111000A1F600000D48008840F2E731884209D16D
:101120000B480088401C0A4908800A480088401C77
:101130000849088006480088B0F5167F05D10020D0
:10114000034908800120034908807047180D0020DA
:101150001A0D00201C0D002008B50121202000F0F0
:10116000BFFC4FF47E40ADF8000010208DF8030066
:1011700003208DF8020069460C4800F03DF84FF45A
:101180007E410A4800F0CCF84FF48040ADF80000F2
:1011900010208DF803006946044800F02DF84FF444
:1011A0008041024800F0BCF808BD00000014014076
:1011B00008B54FF48040ADF8000014208DF803000E
:1011C00003208DF802006946014800F015F808BDBB
:1011D0000014014008B54FF48040ADF80000032032
:1011E0008DF8020028208DF803006946014800F0C0
:1011F00003F808BD001401402DE9F0410246002526
:101200000026002000230024002791F803C00CF0E2
:101210000F0591F803C00CF0100CBCF1000F03D0C7
:1012200091F802C04CEA050591F800C0BCF1000F2E
:1012300031D0146800202BE04FF0010C0CFA00F3C1
:10124000B1F800C00CEA03069E4220D183004FF0A3
:101250000F0C0CFA03F7BC4305FA03FC4CEA040438
:1012600091F803C0BCF1280F06D14FF0010C0CFA25
:1012700000FCC2F814C00AE091F803C0BCF1480FAA
:1012800005D14FF0010C0CFA00FCC2F810C0401C54
:101290000828D1D31460B1F800C0BCF1FF0F34DDD1
:1012A000546800202EE000F1080C4FF0010808FA05
:1012B0000CF3B1F800C00CEA03069E4221D1830072
:1012C0004FF00F0C0CFA03F7BC4305FA03FC4CEA91
:1012D000040491F803C0BCF1280F05D100F1080CFB
:1012E00008FA0CF8C2F8148091F803C0BCF1480F5A
:1012F00007D100F1080C4FF0010808FA0CF8C2F809
:101300001080401C0828CED35460BDE8F08102460E
:10131000002093680B400BB1012000E000207047D3
:10132000416170470161704700BFFEE701F0DAF8E4
:10133000764801F04BF9E7E075480078012801D1C3
:1013400000F0B6FA73480088FFF748FD714800883E
:10135000FFF726FC142001F013F96E4800881E28C0
:10136000E9D16D48838A826841686CA0FEF778FFF6
:101370006948838E826A416868A0FEF771FF6648FB
:10138000B0F85430826C416864A0FEF769FF67A032
:10139000FEF766FF6648838A826841685FA0FEF7B1
:1013A0005FFF6348838E826A41685CA0FEF758FF46
:1013B0005F48B0F85430826C416858A0FEF750FF87
:1013C0005B48B0F87430826E416854A0FEF748FF65
:1013D00056A0FEF745FF5748838A826841684FA0B0
:1013E000FEF73EFF5348838E826A41684BA0FEF7AA
:1013F00037FF5048B0F85430826C416847A0FEF780
:101400002FFF4C48B0F87430826E416843A0FEF75D
:1014100027FF4848B0F89430D0F8882041683FA0B2
:10142000FEF71EFF4348B0F8B430D0F8A82041685A
:101430003AA0FEF715FF3DA0FEF712FF3E48838A53
:101440008268416835A0FEF70BFF3B48838E826AB5
:10145000416832A0FEF704FF34A0FEF701FF3748D1
:10146000838A826841682DA0FEF7FAFE3348838E96
:10147000826A416829A0FEF7F3FE2CA0FEF7F0FE79
:101480002F48838A8268416824A0FEF7E9FE2C4831
:10149000838E826A416821A0FEF7E2FE23A0FEF758
:1014A000DFFE2848838A826841681CA0FEF7D8FEC8
:1014B0002448838E826A416818A0FEF7D1FE214835
:1014C000B0F85430826C416814A0FEF7C9FE1D4884
:1014D000B0F87430826E416810A0FEF7C1FE194862
:1014E000B0F89430D0F8882041680CA0FEF7B8FE20
:1014F0001448B0F8B430D0F8A820416807A0FEF72F
:10150000AFFE0AA0FEF7ACFE16E70000C8310008E7
:10151000140000201A0D0020F801002025732D2D45
:101520002025733A25640D0A000000000D0A0D0005
:1015300098020020B80300209804002058050020DD
:10154000580600201807002008B50121442000F0AB
:10155000C7FA1C20ADF8000048208DF8030069464A
:101560000648FFF749FE0120ADF8000028208DF85D
:10157000030069460248FFF73FFE08BD001801401E
:101580000008014010B5044614B101204649087016
:101590004548007800286AD04448007801280BD0DC
:1015A00043480078012807D042480078012803D03A
:1015B0004148007801285AD1032C12D13C480078C8
:1015C000012805D13D4A2A21062001F061F908E0F1
:1015D00038480078012804D1394A4B21062001F00F
:1015E00057F9384800882D2803DC364800881E2823
:1015F00017DA354800882D2803DC334800881E2878
:101600000FDA324800882D2803DC304800881E2875
:1016100007DA2F4800882D2844DC2D4800881E2832
:1016200040DB2148047021480078012804D10020C3
:1016300024490880012010BD1D480078012804D1EC
:101640000020214908800220F5E71A480078012887
:1016500004D100201D4908800320ECE716480078DB
:1016600001281FD100201A4908800420E3E70F4811
:101670000078B8B90E480078A0B90E48007888B94B
:101680000D48007870B9012007490870032C09D172
:10169000104A2A21062001F0FBF80F4A4B210620B0
:1016A00001F0F6F80020C6E7240000201400002016
:1016B000180000201C00002020000020BA0D00208F
:1016C000EA0D0020160000201A0000201E00002055
:1016D00022000020A20D0020D20D002010B560488D
:1016E0000088142190FBF1F201FB1200002879D14F
:1016F00004215C48FFF70BFE08BB594800882821ED
:1017000090FBF1F201FB1200F0B904215548FFF7FC
:10171000FEFD70B90120544908700020534908802B
:1017200001205349088053480088401C51490880D3
:101730000AE000204C4908704E49088004E000206F
:10174000494908704B49088001214B48FFF7DFFDEC
:10175000012821D1424800880A2190FBF1F201FBC7
:101760001200F0B901214448FFF7D1FD01280DD145
:101770004249087000203D49088001203C4908800A
:101780003F480088401C3E4908800AE000203B4951
:1017900008703B49088004E0002038490870384947
:1017A000088008212F48FFF7B2FD10BB2C480088A5
:1017B0000A2190FBF1F201FB1200F8B90821294837
:1017C000FFF7A5FD78B901202E49087000202749B0
:1017D00008800120264908802B480088401C2A499F
:1017E00008800BE03BE0002026490870264908806D
:1017F00004E000202349087023490880102119487B
:10180000FFF785FD08BB16480088282190FBF1F200
:1018100001FB1200F0B910211248FFF778FD70B9F2
:1018200001201A4908700020104908800120104941
:10183000088017480088401C154908800AE00020ED
:10184000124908701249088004E000200F4908700E
:101850000F49088002480088401C0149088010BDDB
:10186000180D002000180140140000201A0D00205F
:101870001C0D002016000020000801401800002068
:101880001A0000201C0000201E0000202000002064
:1018900022000020044800F099FE4FF47A7000F016
:1018A0006FFEFFF743FD0000C82D000800BFFEE7F4
:1018B0000024A0E05048007801286FD14F480088EC
:1018C00040F2EE218842F4D100204B490870FFF726
:1018D000A3FB8DE00020FFF755FE0446012C61D0EC
:1018E000022C04D0032C0AD0042C77D10FE04448FA
:1018F0000078401E42490870FFF78EFB6FE04048B9
:101900000078401C3E490870FFF786FB67E03D48C1
:1019100000683B49097800EB4110007B0B2802D09E
:101920000C283CD11AE0374800683549097800EBAB
:101930004110806988B133480068334908603148F4
:1019400000682F49097800EB411080692D49086033
:1019500000202B490870FFF75FFB21E02948006851
:101960002749097800EB41100069B0B1254B1B688D
:10197000234D2D7803EB451303F11401214B1B6814
:101980001F4D2D7803EB451398681E4B1B681C4DAB
:101990002D7803EB45131A69904701E029E000BF59
:1019A00000BF1CE018480068A8B116480068144938
:1019B000097800EB4110407811490870124800681E
:1019C0001049086008460068C0690F490860FFF7C1
:1019D00023FB02E002E0FFF7A9FC00E000BF00BF2C
:1019E0000A48008840F25721884201D1FFF79EFC47
:1019F00070E7FFF79BFC5DE7140000201600002055
:101A0000740000206C000020700000201A0D0020DF
:101A10007047000070B5002100230F22C47804B382
:101A2000154C246804F4E064C4F5E064210AC1F1B3
:101A30000403CA40447804FA03F184781440214333
:101A400009010E4C0678A155047804F01F05012405
:101A5000AC4005786D11AD0005F1E025C5F80041F9
:101A600009E0047804F01F050124AC40044D067819
:101A7000761145F8264070BD0CED00E000E400E072
:101A800080E100E07047000001460020034A5068F2
:101A900020F44040084350607047000000100240AE
:101AA00029B1064A52690243044B5A6104E0034AD1
:101AB00052698243014B5A61704700000010024096
:101AC00029B1064AD2690243044BDA6104E0034AB1
:101AD000D2698243014BDA61704700000010024076
:101AE00029B1064A92690243044B9A6104E0034A11
:101AF00092698243014B9A617047000000100240D6
:101B000029B1064AD2680243044BDA6004E0034A72
:101B1000D2688243014BDA60704700000010024037
:101B20000F48006840F001000D4908600846406811
:101B30000C4908400A494860084600680A490840BC
:101B4000074908600846006820F4802008600846BD
:101B5000406820F4FE0048604FF41F008860704722
:101B6000001002400000FFF8FFFFF6FE30B5002134
:101B70000022002400232D4D6D6805F00C0121B1D9
:101B8000042905D0082923D105E0294D056022E06C
:101B9000274D05601FE0254D6D6805F47012234D3B
:101BA0006D6805F48034022505EB92421CB9214D85
:101BB000554305600BE01D4D6D6805F400351DB102
:101BC0001C4D5543056002E0194D5543056002E088
:101BD000174D056000BF00BF144D6D6805F0F001A2
:101BE0000909154D6B5C0568DD4045600F4D6D685A
:101BF00005F4E061090A104D6B5C4568DD408560C5
:101C00000A4D6D6805F46051C90A0B4D6B5C45685F
:101C1000DD40C560054D6D6805F44041890B074DF9
:101C20006B5CC568B5FBF3F5056130BD0010024083
:101C300000127A0000093D001E0E00202E0E00202A
:101C400010B501460022002300204A11012A02D1CA
:101C5000094C236806E0022A02D1074C236A01E0FE
:101C6000054C636A01F01F02012494401C400CB132
:101C7000012000E0002010BD001002400248406832
:101C800000F00C00704700000010024001460020E8
:101C9000034A506820F0F00008435060704700008D
:101CA00000100240014908607047000000004242F5
:101CB00001460020034A506820F4E0600843506069
:101CC000704700000010024001460020034A50689F
:101CD00020F4605040EAC10050607047001002409C
:101CE0000149086670470000000042420246002099
:101CF000044B586820F47C1042EA01031843014B5E
:101D0000586070470010024001460020034A5068A6
:101D100020F00300084350607047000000100240AC
:101D2000704710B500F002F810BD00000CB500209F
:101D3000019000903348006840F4803031490860D9
:101D400000BF3048006800F4003000900198401C4B
:101D50000190009818B90198B0F5A06FF1D1294809
:101D6000006800F4003010B10120009001E0002074
:101D700000900098012843D12348006840F01000EB
:101D8000214908600846006820F003000860084602
:101D9000006840F0020008601A484068194948602D
:101DA0000846406848600846406840F480604860E3
:101DB0000846406820F47C1048600846406840F4BB
:101DC000E81048600846006840F08070086000BF76
:101DD0000C48006800F000700028F9D009484068FD
:101DE00020F00300074948600846406840F00200C0
:101DF000486000BF0348406800F00C000828F9D193
:101E00000CBD00000010024000200240042808D150
:101E10004FF0E021096941F004014FF0E022116127
:101E200007E04FF0E021096921F004014FF0E022C2
:101E3000116170477047000010B51348006840F00A
:101E400001001149086008464068104908400E49E1
:101E50004860084600680E4908400B49086008467B
:101E6000006820F4802008600846406820F4FE00E6
:101E700048604FF41F008860FFF753FF4FF0006089
:101E80000449086010BD0000001002400000FFF887
:101E9000FFFFF6FE08ED00E010B5FFF71FFCFFF7AF
:101EA00039F901210B4800F0D5F888B10A480088BB
:101EB000B0F57A7F03DB01200749088004E006487B
:101EC0000088401C044908800121024800F0B3F852
:101ED00010BD000000040040180D00207FB505462D
:101EE0000C4601210220FFF7EBFDADF80850ADF8DC
:101EF00004400020ADF80A00ADF8060001A90E4824
:101F000000F068F9012211460B4800F0B4F81D20DA
:101F10008DF8000006208DF8010000208DF80200E9
:101F200001208DF803006846FFF774FD0121024887
:101F300000F084F87FBD00000004004000B589B0C7
:101F400001210420FFF7BCFD01210820FFF7C8FD97
:101F500001210846FFF7C4FD4FF44070ADF82000A2
:101F600018208DF8230003208DF8220008A92248AC
:101F7000FFF742F940F2E730ADF8180040F23F10A9
:101F8000ADF814000020ADF81A00ADF8160005A950
:101F90001A4800F01FF96020ADF804000120ADF8E8
:101FA00006004FF47A70ADF80A000020ADF80C007E
:101FB00001A9124800F068F80821104800F0B4F8B0
:101FC00001A90E4800F0BAF808210C4800F0F4F816
:101FD00000220821094800F01FF800220C210748C0
:101FE00000F01AF80121054800F00AF80121034821
:101FF00000F024F809B000BD000C014000080040CA
:1020000021B1028842F08002028004E002884FF68B
:102010007F731A400280704730B5002301248C4042
:10202000A3B2048C9C430484048C02FA01F5ADB283
:102030002C43048430BDCA430282704721B1028818
:1020400042F00102028004E002884FF6FE731A405B
:102050000280704730B50246002000230024158A14
:1020600005EA0103958905EA010413B10CB10120C9
:1020700000E0002030BD1AB183890B43838102E068
:1020800083898B438381704770B50024002200232D
:10209000058C4FF6FF6635400584028C8388848B5F
:1020A0004FF68F752C404FF6FC752C400D882C4355
:1020B0004FF6FF552A400D894FF6FF7606EA0525B3
:1020C0002A434D8806EA05252A43154DA84202D029
:1020D000144DA8421DD14FF2FF752A404D894FF68D
:1020E000FF7606EA05252A434FF6FF352A408D88FC
:1020F00006EA05252A434EF6FF752B404DF6FF757F
:102100002B408D8906EA05152B43CD8906EA051576
:102110002B4383808483CD888587028470BD000033
:10212000002C0140003401400A460021818B4FF60B
:10213000F7731940114381837047000070B5002286
:1021400000230024058C4EF6FF7635400584038C71
:102150008488828B48F6FF752A404FF6FF452A4057
:102160000D884FF6FF7606EA05252A434DF6FF75E2
:102170002B400D8906EA05352B434D8806EA0535C7
:102180002B430B4DA84202D00A4DA84208D14BF672
:10219000FF752C408D894FF6FF7606EA85152C4396
:1021A00084808283CD88A0F84050038470BD0000F5
:1021B000002C0140003401400A460021818B4FF27F
:1021C000FF7319404FF6FF7303EA0223194381831B
:1021D00070470000002202881D4B98420ED01D4B14
:1021E00098420BD0B0F1804F08D01B4B984205D0DD
:1021F0001A4B984202D01A4B984204D14FF68F7373
:102200001A404B881A43174B984207D0164B9842F6
:1022100004D04FF6FF431A40CB881A4302808B88C4
:1022200083850B8803850A4B98420BD0094B984253
:1022300008D00E4B984205D00D4B984202D00D4B62
:10224000984201D10B7A03860123838270470000F4
:10225000002C014000340140000400400008004010
:10226000000C0040001000400014004000400140FD
:10227000004401400048014010B540F225511D487E
:1022800000F04AF810B31B4800F002F9C4B21A4833
:10229000008800F40040C8B91748008800F4804066
:1022A00060B10A2C03D000201349088020E01248B6
:1022B000008840F400401049088019E00D2C06D138
:1022C0000D48008840F480400B49088010E00A481F
:1022D0000088C0F30D0009490C5407480088401CD1
:1022E0000549088008460088C72801DD00200880CD
:1022F00010BD0000003801401C0E00206C0E0020B4
:1023000021B1828942F40052828104E082894DF633
:10231000FF731A408281704770B502460024002383
:102320000025002040F66A16B14200D100BFC1F37B
:10233000421501F01F03012606FA03F3012D02D115
:102340009689334006E0022D02D1168A334001E01F
:10235000968A33400C12012606FA04F4168834409B
:1023600013B10CB1012000E0002070BDF0B50346B0
:10237000002400260025002040F66A17B94200D14B
:1023800000BF1846C1F3421401F01F06012707FAE7
:1023900006F5012C01D10C3004E0022C01D11030E3
:1023A00000E014301AB107682F43076002E00768A5
:1023B000AF430760F0BD00002DE9F04786B0054649
:1023C0000E460024A24600BFA1460027B08900B1F6
:1023D00000BF2F462C8A4CF6FF700440F08804435F
:1023E0002C82AC894EF6F3100440B0883189084342
:1023F000718908430443AC81AC8A4FF6FF40044026
:10240000B0890443AC8201A8FFF7B0FB1F488742A4
:1024100002D1DDF810A001E0DDF80CA0A88900F4DD
:10242000004040B10AEBCA0000EB0A1031684900D5
:10243000B0FBF1F807E00AEBCA0000EB0A103168C4
:102440008900B0FBF1F86420B8FBF0F0040120092A
:10245000642101FB1089A88900F4004040B13220BA
:1024600000EBC900B0FBF1F000F00700044308E006
:10247000322000EB09106421B0FBF1F000F00F00F6
:1024800004432C8106B0BDE8F0870000003801400D
:1024900001468888C0F308007047000070B5044604
:1024A0000D460A4800680A49097800EB4110407857
:1024B0000749087007480068044908600846006832
:1024C000C06904490860FEF7A7FD70BD6C000020DC
:1024D000740000207000002000BFFEE7014600BF2E
:1024E0007047000070B54FF400511348FEF718FF15
:1024F0004FF400411048FEF715FF002414E004F1EA
:10250000B00000F09DFB002000F09AFB102000F0CE
:1025100097FB002504E0002000F0CCFB681CC5B24E
:10252000802DF8DB601CC4B2082CE8DB4FF40051AE
:102530000148FEF7F7FE70BD0014014010B56FF0C2
:102540000400FFF763FC0A4800680A49B0FBF1F099
:10255000094908700846007800EB4001C1EBC01043
:102560004FF6FF7101EAC0000449088010BD000069
:102570000000002000127A00120E0020140E00202D
:102580000146114A12884A434FF0E0235A61002263
:102590009A611A46126942F001021A6100BF4FF0B7
:1025A000E022106900F001021AB100F48032002A22
:1025B000F5D04FF0E022126922F001024FF0E02343
:1025C0001A6100229A617047140E002070B504460B
:1025D0004FF400510D48FEF7A3FE00250DE0E9B2CF
:1025E000002000F09FFA002604E0207800F062FB53
:1025F000641C761C802EF8D36D1C082DEFD34FF48D
:1026000000510248FEF78EFE70BD0000001401402C
:102610002DE9F0478EB082460E4615460024A6E00E
:10262000285DB02836DB285DF72833DC601C285C89
:10263000A1282FDB285DB0385E2148434F49086050
:10264000601C285C00F2AD20096808444B49086012
:10265000084600684001086008460068C0F3074764
:1026600008460088C0F30728084690F8009020200C
:1026700006AB4A4641460090384600F0A1F906AA4A
:102680003146504600F0A8F8A01CC4B206F1100074
:10269000C6B26CE0285DA12835DB285DA32832DCBA
:1026A000601C285CA1282EDB285DA1385E214843F0
:1026B00032490860601C285CA138096808442F4929
:1026C0000860084600684001086008460068C0F3DA
:1026D000074708460088C0F30728084690F800908E
:1026E000202006AB4A4641460090384600F068F983
:1026F00006AA3146504600F06FF8A01CC4B206F19D
:102700001000C6B233E0285D20282EDB285D7E282D
:102710002BDC285D20381949086008460068000154
:1027200008600846006816490844144908600846CD
:102730000068C0F3074708460088C0F3072808462A
:1027400090F80090102002AB4A464146009038466F
:1027500000F036F902AA3146504600F0C3F8601C7A
:10276000C4B206F10800C6B201E0601CC4B2285D24
:1027700000283FF755AF0EB0BDE8F08728000020D5
:1027800080CF03002DE9F04104460E4615464FF474
:1027900000511048FEF7C4FD4FF002080FE0E1B20F
:1027A000304600F0BFF9002704E0287800F082FAF4
:1027B0006D1C7F1C062FF8D3641CA8F10108B8F12A
:1027C000000FECD14FF400510248FEF7ABFDBDE81D
:1027D000F0810000001401402DE9F04104460E464E
:1027E00015464FF400511248FEF79AFD4FF4004190
:1027F0000F48FEF797FD4FF002080FE0E1B2F0B28C
:1028000000F090F9002704E0287800F053FA6D1CDE
:102810007F1C102FF8D3641CA8F10108B8F1000F39
:10282000ECD14FF400510248FEF77CFDBDE8F08189
:10283000001401402DE9F04104460E4615464FF4C0
:1028400000511248FEF76CFD4FF400410F48FEF7AF
:1028500069FD4FF004080FE0E1B2F0B200F062F958
:10286000002704E0287800F025FA6D1C7F1C102F4B
:10287000F8D3641CA8F10108B8F1000FECD14FF4B3
:1028800000510248FEF74EFDBDE8F0810014014002
:102890002DE9F04104460E4615464FF4005110480C
:1028A000FEF73EFD4FF002080FE0E1B2304600F0C7
:1028B00039F9002704E0287800F0FCF96D1C7F1C32
:1028C0000C2FF8D3641CA8F10108B8F1000FECD16B
:1028D0004FF400510248FEF725FDBDE8F0810000ED
:1028E000001401402DE9F04104460E4615464FF410
:1028F00000511048FEF714FD4FF002080FE0E1B25E
:10290000304600F00FF9002704E0287800F0D2F9F3
:102910006D1C7F1C082FF8D3641CA8F10108B8F1C6
:10292000000FECD14FF400510248FEF7FBFCBDE86C
:10293000F08100000014014000BF054A128802F037
:102940004002002AF9D0C2B2014B1B1D1A80704709
:102950000038014070B500244FF400711748FEF7AD
:10296000E1FC00BFFEF736FC002520E04FF480417B
:102970001248FEF7D7FC00BF4FF400710F48FEF776
:10298000CFFC00BF6006040E4FF480410B48FEF7F9
:10299000BEFC18B1601CC4B200BF01E0E4B200BFCD
:1029A0004FF400710548FEF7BDFC681CC5B2082D48
:1029B000DCDBFEF7FDFB204670BD0000001401408B
:1029C0002DE9F04780460D4616461F46DDF820905B
:1029D0004FF400411448FEF7A3FC4FF40051124895
:1029E000FEF7A0FC4FF400710F48FEF799FC03209E
:1029F00000F0FCF8404600F0F9F8284600F0F6F840
:102A0000304600F0F3F8002404E0FFF7A3FF385548
:102A1000601CC4B24C45F8DB4FF400410248FEF79D
:102A200081FCBDE8F08700000014014010B54FF4B0
:102A3000C870FFF7A5FDFEF78FFB4FF40061384823
:102A4000FEF76EFC4FF4C870FFF79AFD4FF400617B
:102A50003348FEF767FC4FF400513148FEF760FC45
:102A60004FF400412E48FEF75DFCAE2000F0E8F880
:102A7000202000F0E5F8102000F0E2F8B02000F08F
:102A8000DFF8C82000F0DCF8002000F0D9F81020B2
:102A900000F0D6F8402000F0D3F8812000F0D0F804
:102AA000FF2000F0CDF8A12000F0CAF8A62000F029
:102AB000C7F8A82000F0C4F83F2000F0C1F8A42017
:102AC00000F0BEF8D32000F0BBF8002000F0B8F80A
:102AD000D52000F0B5F8F02000F0B2F8D92000F0D1
:102AE000AFF8222000F0ACF8DA2000F0A9F81220AC
:102AF00000F0A6F8DB2000F0A3F8202000F0A0F8FA
:102B00008D2000F09DF8142000F09AF8AF2000F01E
:102B100097F84FF400510248FEF704FC10BD000086
:102B20000014014070B504460D4605F1B00000F0F8
:102B300087F8102141EA141000F082F804F00F0029
:102B400000F07EF870BD00F01BF8FFF7F7FC4FF4C3
:102B5000165000F0E9F8FEF7F7FC40F27F2109205B
:102B6000FFF7BCF9FFF762FFFDF724FFFDF7E2FD79
:102B7000FFF7E4F9FFF7B6FC01E0FEF78BFEFCE798
:102B800010B5FEF7CDFF0120FFF78CF800BF212024
:102B9000FFF756F80028FAD00020FFF777F84FF437
:102BA0008060FFF785F80020FFF78EF84FF4601182
:102BB0000020FFF79BF80C48006840F032000A49FB
:102BC00008600120FFF78CF800BF3920FFF738F8C4
:102BD0000028FAD00220FFF797F800BFFFF74EF861
:102BE0000828FBD110BD00000020024070B504464B
:102BF00000251FE004F0800030B14FF480610F48E1
:102C0000FEF790FB00BF05E04FF480610B48FEF734
:102C100087FB00BF6006040E4FF400710748FEF703
:102C20007FFB00BF4FF400710448FEF77BFB00BF41
:102C3000681CC5B2082DDDDB70BD0000001401402A
:102C400070B504464FF480511948FEF769FB4FF404
:102C500000511748FEF764FB00251BE04FF400719C
:102C60001348FEF75DFB04F0800028B14FF480614B
:102C70000F48FEF757FB04E04FF480610C48FEF765
:102C80004FFB4FF400710A48FEF74CFB00BF640095
:102C9000681CC5B2082DE1DB4FF480510448FEF7F3
:102CA00041FB4FF400510248FEF73CFB70BD0000B1
:102CB0000014014070B504464FF480511948FEF7E6
:102CC00031FB4FF400511748FEF72AFB00251BE0AB
:102CD0004FF400711348FEF723FB04F0800028B185
:102CE0004FF480610F48FEF71DFB04E04FF4806154
:102CF0000C48FEF715FB4FF400710A48FEF712FB73
:102D000000BF6400681CC5B2082DE1DB4FF48051A0
:102D10000448FEF707FB4FF400510248FEF702FBA0
:102D200070BD00000014014010B586B004460121BA
:102D300044F20400FEF7D4FE4FF40070ADF8140026
:102D400003208DF8160018208DF8170005A91C48DF
:102D5000FEF752FA4FF48060ADF8140004208DF8AD
:102D6000170005A91648FEF747FA25208DF8000040
:102D700003208DF801008DF8020001208DF803007A
:102D80006846FEF747FE01940020ADF80800ADF854
:102D90000A00ADF80C00ADF810000C20ADF80E00E4
:102DA00001A90848FFF708FB012240F22551054818
:102DB000FFF7DCFA01210348FFF7A2FA06B010BDC5
:102DC0000008014000380140000000000000000041
:102DD00000000000000000000000000000000000F3
:102DE00000000000000000000000000000000000E3
:102DF00000000000000000000000008080C0C0E073
:102E0000E060602030202020002000000080FCF0E6
:102E1000E080000000000000000000000000000052
:102E200000000000000000000000000000000000A2
:102E30000000000000000000000000000000000092
:102E40000000000000000000000000000000000082
:102E50000000000000000000000000000000000072
:102E60000000000000000000000000000000000062
:102E70000000000080E0F0FCFC7E1F0F0703010053
:102E800000000000000000000000000000FAFFFF4A
:102E9000FFFFFFFCF0C00000000000000000000089
:102EA0000000000000000000000000000000000022
:102EB0000000000000000000000000000000000012
:102EC0000000000000000000000000000000000002
:102ED00000000000000000000000000000000000F2
:102EE00000000000000000000000000000000000E2
:102EF0000000E8FEFFFFFF1F0100000000000000CF
:102F0000000000000080C0E0F0F8FC0CA0FFFFFF14
:102F1000FFFFFFFFFFFFFEF8800000000000000041
:102F200000000000000000000000000000000000A1
:102F30000000000000000000000000000000000091
:102F40000000000000000000000000000000000081
:102F50000000000000000000000000000000000071
:102F60000000000000000000000000000000000061
:102F700000000F7FFFFFFFFAC0000000000000000C
:102F80000000000C06070F0F1F7F0380FEBFCFCF8E
:102F9000C7C3E3E3E36363676F6000000000000002
:102FA0000000000000000000000000000000000021
:102FB0000000000000000000000000000000000011
:102FC0000000000000000000000000000000000001
:102FD00000000000000000000000000000000000F1
:102FE00000000000000000000000000000000000E1
:102FF0000000000001070F3F3F7FFCF8F0E0C080B9
:1030000080103018180C0C6637331B1D8FCF6737B4
:103010000B2F0A0606060600000000000000000054
:1030200000000000000000000000000000000000A0
:103030000000000000000000000000000000000090
:103040000000000000000000000000000000000080
:103050000000000000000000000000000000000070
:103060000000000000000000000000000000000060
:103070000000000000000000000000010103030741
:10308000070707060E060E060406060203020200E4
:103090000000000000000000000000000000000030
:1030A0000000000000000000000000000000000020
:1030B0000000000000000000000000000000000010
:1030C0000000000000000000000000000000000000
:1030D00000000000000000000000000000000000F0
:1030E000000000000000000000008080FE8282FEE0
:1030F0008080FE8282FEFE800000F80808FF08F84B
:1031000000FE02E282FE0000000000020202020253
:10311000FEFE020202020200000010F0C00003FFE7
:103120000000FF0000C07000000000000000000070
:10313000000000000000000000000000000000008F
:10314000000000000000000000000000000000007F
:10315000000000000000000000000000000000006F
:1031600000000000000000000000203E0700203F9B
:1031700040780F00203F1F0000000F00003F08278D
:1031800018070000013F2038000010101010101028
:103190001F1F101010101010000020202320203FAF
:1031A00020203F20212320200000000000000000FC
:1031B000000000000000000000000000000000000F
:1031C00000000000000000000000000020F02010BF
:1031D00010E00000E0101010E00000605090B0001F
:1031E00020F20010FC100020F20000E0101010E0AF
:1031F0000020F0201010E00000000000000000009F
:1032000000000000000000000000000000000000BE
:1032100000000000000000000000000000000000AE
:10322000000000000000000000000000000000009E
:103230000000000000F00804021C22229C6010CC58
:103240002220C0020408F00040404040505F51423C
:10325000424140404142424241404043424241405B
:103260004243424043424142434240414242424142
:103270004042434240424342404040404040404040
:10328000404040404040404040404040404040403E
:10329000404040404040404040404040404040402E
:1032A000404040404040404040404040404040401E
:1032B00040404040404344485040404340404041EB
:1032C00042424150484443400000000000000000DA
:1032D00000000000000000000000000000000000EE
:1032E00000000000000000000000000000000000DE
:1032F00000000000000000000000000000000000CE
:1033000000000000000000000000000000000000BD
:10350000000000000000000000000000E01010E0DB
:10351000008060100000000000006090901020709B
:103520000000008080000080E0800000800080803B
:10353000000000008080800000009000008000807B
:1035400080000080E080000000000000000000001B
:10355000000000000000000000000000000000006B
:10356000000000000000000000000000000000005B
:10357000000000000000000000000000000000004B
:10358000000000000000000000000000000119041D
:1035900003000E11110E000000001C081011110E86
:1035A00000000F12120B00001F100881FF8910107D
:1035B0000F00000F1010100F00111F10111F11002D
:1035C000101F10001F100800000000000000000085
:1035D00000000000000000000000000000000000EB
:1035E00000000000000000000000000000000000DB
:1035F00000000000000000000000000000000000CB
:1036000000000000000000000000000000000000BA
:1036100000000000000000000000000000000000AA
:10362000000000000000000000000000000000009A
:10363000000000000000000000000000000000008A
:10364000000000000000000000000000000000007A
:10365000000000000000000000000000000000006A
:10366000000000000000000000000000000000005A
:10367000000000000000000000000000000000004A
:10368000000000000000000000000000000000003A
:10369000000000000000000000000000000000002A
:1036A000000000000000000000000000000000001A
:1036B000000000000000000000000000000000000A
:1036C00000000000000000000202020202020202EA
:1036D00002020202020202020202020202020202CA
:1036E00002020202020202020202020202020202BA
:1036F00002020202020202020202020202020202AA
:103700000202020202020202020202020202020299
:103710000202020202020202020202020202020289
:103720000202020202020202020202020202020279
:103730000202020202020202020202020202020269
:103740000202020202020202000000000000000069
:103750000000000000000000000000000000000069
:103760000000000000000000000000000000000059
:103770000000000000000000000000000000000049
:103780000000000000000000000000000000000039
:1039D00000000000000000000000FEFFFF030303E2
:1039E0000303030303FFFFFE0000FFFFFF000000CF
:1039F0000000000000FFFFFF00007FFFFFC0C0C00D
:103A0000C0C0C0C0C0FFFF7F000000000000000079
:103A100000000000000000000000000000000000A6
:103A20000000000000000000000000000000000096
:103A300000000060FEFFFF0000000000000000002A
:103A400000000000FFFFFF00000000000000000079
:103A500000000000FFFFFF00000000000000000069
:103A60000000000000000000000000000000000056
:103A7000000000000000000000007E7F7F030303C1
:103A80000303030303FFFFFE0000000000000080AB
:103A9000C0F0783C0F0703000000C0E0F8FCDECF68
:103AA000C3C1C0C0C0C0C0C0000000000000000012
:103AB0000000000000000000000000000000000006
:103AC000000000000000000000007E7F7F03030371
:103AD0000303030303FFFFFE0000000000000008D3
:103AE0001C1C363663E3C1C100007FFFFFC0C0C0AD
:103AF000C0C0C0C0C0FFFF7F000000000000000089
:103B000000000000000000000000000000000000B5
:103B100000000000000000000000000000C0F0FCF9
:103B20003F0F83808000000000C0F0FC3F0F0300C7
:103B30000000FFFFFF000000030303030303030370
:103B40000303FFFFFF030303000000000000000069
:103B50000000000000000000000000000000000065
:103B600000000000000000000000FFFFFF0303034F
:103B70000303030303030303000007070706060606
:103B80000606060606FEFEFC00007FFFFFC0C0C062
:103B9000C0C0C0C0C0FFFF7F0000000000000000E8
:103BA0000000000000000000000000000000000015
:103BB00000000000000000000000FEFFFF03030300
:103BC00003030303033F3F3E0000FFFFFF0C0C0C09
:103BD0000C0C0C0C0CFCFCF800007FFFFFC0C0C0FC
:103BE000C0C0C0C0C0FFFF7F000000000000000098
:103BF00000000000000000000000000000000000C5
:103C0000000000000000000000003F3F3F030303EE
:103C100003030383F3FF3F070000000000000000E0
:103C200000E0FCFF1F010000000000000000C0F8E1
:103C3000FF3F07000000000000000000000000003F
:103C40000000000000000000000000000000000074
:103C500000000000000000000000FEFFFF0303035F
:103C60000303030303FFFFFE0000E1E3F7363E1CFE
:103C70001C1C1C3E36F7E3C100007FFFFFC0C0C024
:103C8000C0C0C0C0C0FFFF7F0000000000000000F7
:103C90000000000000000000000000000000000024
:103CA00000000000000000000000FEFFFF0303030F
:103CB0000303030303FFFFFE00001F3F3F303030CC
:103CC0003030303030FFFFFF00007CFCFCC0C0C053
:103CD000C0C0C0C0C0FFFF7F0000000000000000A7
:103CE00000000000000000000000000000000000D4
:103CF00000000000000000000000000000000000C4
:103D000000000000000000000000000000000000B3
:103D10000000000000000000000000000000E0E0E3
:103D2000E0000000000000000000000000000000B3
:103D30000000000000000000000000000000000083
:103D40000000000000000000000000000000000073
:103D50000000000000000000000000000000000063
:103D60000000000000000000000000000000000053
:103D70000000000000000000000000000000000043
:103D80000000000000000000382E495120202020B3
:103D9000202020202020202000000000312E45522D
:103DA000312020202020202020000000322E4552EB
:103DB000322020202020202020000000332E4552D9
:103DC000332020202020202020000000342E4552C7
:103DD000342020202020202020000000362E4E50AD
:103DE0004E2020202020202020000000352E504E84
:103DF000502020202020202020000000332E313AA7
:103E0000333020202020202020000000342E313AA2
:103E1000343020202020202020000000352E313A90
:103E2000353020202020202020000000322E313A82
:103E3000323520202020202020000000312E45583F
:103E4000495420202020202020000000332E4558F7
:103E5000495420202020202020000000352E4558E5
:103E6000495420202020202020000000372E4558D3
:103E7000495420202020202020000000382E4558C2
:103E8000495420202020202020000000332E302DF7
:103E9000355620202020202020000000342E302DF8
:103EA000355620202020202020000000392E526589
:103EB00073746F72652020202020202000000000F5
:103EC000312ED7D4B6AF20202020202020000000A3
:103ED000322ECAD6B6AF202020202020200000009D
:103EE000312ECFDFD0D42020202020202000000041
:103EF000312E466F726D20312020202020200000BE
:103F0000312E465F3031202020202020000000008C
:103F1000322E466F726D203220202020202000009B
:103F2000322E465F3032202020202020000000006A
:103F3000332E465F30332020202020200000000058
:103F4000342E465F30342020202020200000000046
:103F5000352E465F30352020202020200000000034
:103F6000362E465F30362020202020200000000022
:103F7000372E465F30372020202020200000000010
:103F8000382E465F303820202020202000000000FE
:103F9000392E465F303920202020202000000000EC
:103FA000322E52455345542020202020200000006E
:103FB000342E4558495420202020202000000000A5
:103FC000372E455849542020202020200000000092
:103FD000342E302D313056202020202020000000AB
:103FE000332EB5E7D1B95620202020202000000034
:103FF00043616E63656C20202020202000000000BB
:10400000322E532F4EBAC520202020202000000041
:1040100031302E465F31302020202020000000006B
:10402000312E466F726D20312020202020000000AC
:1040300031312E465F313120202020200000000049
:10404000322E466F726D203220202020200000008A
:1040500031322E465F313220202020200000000027
:10406000332E466F726D2033202020202000000068
:10407000312E302D32306D412020202020000000D4
:10408000322E342D32306D412020202020000000BF
:10409000322EB5E7C1F76D4120202020200000001E
:1040A000312E4E5245534554202020202000000040
:1040B000322E526576657273652020202020000024
:1040C000332E53776974636820202020200000007D
:1040D000436F6E6669726D20202020200000000072
:1040E000312EB5A5D7F7D3C3202020202000000013
:1040F000322ECBABD7F7D3C32020202020000000E6
:10410000322EB7B4D7F7D3C32020202020000000E0
:10411000312ED5FDD7F7D3C320202020200000006A
:10412000362ED7D4B6A8D2E52020202020000000CB
:10413000312EB0D9B7D6B1C82520202020000000EC
:10414000322E566F6C7461676520202020000000BD
:10415000322E5265766572736520202020000000A3
:10416000312E506F7369746976652020202000001D
:10417000312E43757272656E74202020200000007D
:10418000312EB2FAC6B7D0CDBAC52020202000000B
:10419000352EC8ABBFAACAB1BCE420202020000045
:1041A000342ECAB9D3C3CAB1BCE4202020200000F9
:1041B000362EC8ABB9D8CAB1BCE4202020200000FC
:1041C000372EB4EDCEF3BEAFB8E62020202000009D
:1041D000342E416374696F6E204D6F64652020201A
:1041E00000000000362E41646A757374204D6F64C0
:1041F0006520202000000000312E506F7369746923
:104200007665202020000000312E446973706C61B7
:1042100079204D6F6465202000000000372E4F701C
:10422000656E696E67206D6F646520200000000078
:10423000322E496E707574205369676E616C202050
:1042400000000000332EB3CCD0F2B0E6B1BEBAC548
:1042500020200000332E4F75746F757420536967EA
:104260006E616C2000000000352E416374696F6E32
:10427000204D616E6E65722000000000B2CBB5A5C6
:10428000A3BA20202020202020203E3E0000000055
:10429000325F312E5369676E616C202020203E3ED4
:1042A00000000000385F322E414354494F4E202019
:1042B000203E3E00325F342E414354494F4E202071
:1042C000203E3E00315F312E4143545541544F5200
:1042D00020203E3E00000000365F322E4143544114
:1042E00055544F52203E3E0031302E4572726F724F
:1042F000204D6573736167650000000031312E52F7
:1043000065736572766564206D656E7500000000EA
:1043100031322E5265736572766564206D656E75F7
:10432000000000004443000800000020340E00009C
:104330006C0100082C470008340E002064070000C0
:10434000C80100081184A24A0400091001020304F4
:104350000607080902110123804073A041E2024BC5
:10436000C8420409102C22788220320C137C42129D
:1043700008123FB3080B4BF801241A0C76132043A4
:10438000DB0820206B98022019091920DA30206BF5
:10439000B8032019091920EA40406A0420190919B4
:1043A00020DA50206B58052019091920EA60206A8C
:1043B000062019091920DA70206B1807201909192D
:1043C00020EA80806A082019091920EA90206A09E9
:1043D0002019091920CB1040207AF8203A0A20DA57
:1043E00030201A981749204A0BE0E940592032043E
:1043F0001B084240124133080C1395081B080DF4AA
:104400004122781320044A01A019406920BA0E20E5
:104410003A02201AE0C00914203A03205AB0201BA7
:104420009D24F171292001202305011A30A09A70E2
:1044300080A9A04B0501A00A1580A04B0501A00B87
:10444000168C3E2049A00A15D0C03C050104205A14
:104450005C40092EC001602307021354428C08708F
:1044600040C09A0DC03C070201C09A8020A9E03CE0
:10447000070202205A8CE00910203A03200A179CF8
:10448000203A04200B16EC3D203A05200A17DC20C8
:104490003A06205A6C60139D2482082920197F1146
:1044A00013D0410B1508E0E04B0203E00A15F0E0E1
:1044B0004B0203E00A154C600160230204136842BA
:1044C0001B0810C40913C04A04C0119920B9C00ABE
:1044D0007C04C001401A02CB1AE4DC5AC0C029E0B7
:1044E000AA0DE03B0501E09AD020BA0E203A022046
:1044F0005A4C20139D2482082920016023070613AB
:104500001C420B1508E0C04B0706C00A152CC04B17
:104510000706C00B16FC3D203A03200A170C403A50
:1045200004200A171C203A05200B162041203A06C9
:10453000204BC03F20139D248208292001A023087E
:104540000713883D1B0880E0F20B29C03C080701D7
:10455000E0110A1640203A02200B164442203A038A
:10456000200A17A0603A04200A1790203A05200A72
:1045700017B0203A06200A17C0203A0720137C3EC5
:1045800033080C1B9D24CC99201A030E1AAC1C1A5C
:10459000A0E02920139508BB080E204A01C00A1686
:1045A0003F203A02200A154C6023050913E8420C0B
:1045B00014089C3DA04B0509600A17AC2049600A0D
:1045C00017BC203A03200A17CC203A04200A155CB5
:1045D000A023010A1AFCA00A153C2001401A0195EB
:1045E0001A108009566032031AC4C04B2040601371
:1045F000950873086513F801132003190519809AAB
:104600004020BA66203A02209A6020BA6720211A18
:1046100090608B70412072C91A983B79609920BADA
:10462000CA2049609AC0609ACB202302041AB46061
:104630009AF840BAF12049609A5020DAF2401AD82C
:10464000408BF03E20636D024B58062029408B10B2
:104650003F20DA6E201AA4409A60602A35F529605E
:104660008A08409AB0C0AA3620194C29201AF06056
:10467000414B9D2408411A781B4B0202C05AD0407E
:10468000E9203201190416E0101010E01A0F06425A
:104690000F5320F0121F1660101090603E18141275
:1046A00011100C12E0260C1011120E2480609016CE
:1046B0000605041F041AF03612103E091111110FDD
:1046C0004812601A0F0C120E1A303032706B180735
:1046D000603A0E18490C3A0D30815210568060181D
:1046E00038C01D302C23200154233C204CE0F8F826
:1046F000183C203C3F012918500B0C34C40404041E
:1047000084641C042C030C06CD311C1C7CFC01634E
:104710007C1C5C010F0718011E2D010203040420FC
:0C47200009060708090204060800000052
:040000050800021DD0
:00000001FF
