:020000040800F2
:1000000068120020150200081D110008B10C00083C
:10001000C50F0008C90400084F1A000800000000BE
:10002000000000000000000000000000191500089A
:10003000CD04000800000000D51200082D160008AD
:100040002F0200082F0200082F0200082F020008CC
:100050002F0200082F0200082F0200082F020008BC
:100060002F0200082F0200082F0200082F020008AC
:100070002F0200082F0200082F0200082F0200089C
:100080002F0200082F0200082F0200082F0200088C
:100090002F0200082F0200082F0200082F0200087C
:1000A0002F0200082F0200082F0200082F0200086C
:1000B0002F020008911600082F0200082F020008E6
:1000C0002F0200082F0200082F0200082F0200084C
:1000D0002F0200082D1800082F0200082F02000828
:1000E0002F0200082F0200082F0200082F0200082C
:1000F0002F0200082F0200082F0200082F0200081C
:100100002F0200082F0200082F0200082F0200080B
:100110002F0200082F0200082F0200082F020008FB
:100120002F0200082F0200082F0200082F020008EB
:1001300000F002F800F05FF80AA090E8000C82449A
:100140008344AAF10107DA4501D100F054F8AFF277
:10015000090EBAE80F0013F0010F18BFFB1A43F0A5
:1001600001031847A43C0000C43C00000A444FF0BF
:10017000000C10F8013B13F0070408BF10F8014B06
:100180001D1108BF10F8015B641E05D010F8016B4B
:10019000641E01F8016BF9D113F0080F1EBF10F8AF
:1001A000014BAD1C0C1B09D16D1E58BF01F801CBD2
:1001B000FAD505E014F8016B01F8016B6D1EF9D555
:1001C0009142D6D37047000000230024002500266A
:1001D000103A28BF78C1FBD8520728BF30C148BFAA
:1001E0000B607047642900F07780002070471FB5CE
:1001F0001FBD10B510BD00F037F91146FFF7F7FF2E
:1002000001F0D1FF00F055F903B4FFF7F2FF03BC92
:1002100001F01FFC0948804709480047FEE7FEE758
:10022000FEE7FEE7FEE7FEE7FEE7FEE7FEE7FEE7A6
:1002300004480549054A064B70470000311600087E
:1002400031010008680C002068120020680E0020B0
:10025000680E0020704700000FB4044910B503AACF
:10026000029800F0D3F810BC5DF814FB140B0020CA
:100270002DE9F0410E460446002020622046E16848
:10028000884730B3252805D0D4E901219047206A5A
:10029000401CF2E7E168204600278847050018D097
:1002A000A5F14100192802D820354FF400673246E5
:1002B000294620462760FFF795FF40B1012804D06A
:1002C000F61D26F007060836D8E7361DD6E728467D
:1002D000DAE7206ABDE8F0812DE9F0410646002406
:1002E00010687529314616A510D0AFF3008000289C
:1002F00002DA404213A507E031688A0701D512A54A
:1003000002E0490704D511A5012401E0AFF3008004
:1003100000210A2206F1240709E0B0FBF2FCB0FB41
:10032000F2F302FB1C00303078541846491C0028B8
:10033000F3D123462A463046BDE8F04100F00CB820
:10034000000000002D0000002B0000002000000035
:1003500070477047704770472DE9F0470D46994642
:100360009246044600F124080168880604D5E06935
:1003700021F01001216000E00120A84201DD471BAF
:1003800000E00027A1697A1902EB0900081AA061B0
:100390002078C00602D42046AFF30080002608E093
:1003A000D4E901211AF806009047206A401C761C07
:1003B00020624E45F4DB2078C0060AD52046AFF314
:1003C000008006E0D4E9012130209047206A401CDB
:1003D0002062381EA7F10107F4DC07E0D4E901210F
:1003E00018F805009047206A401C2062281EA5F1DD
:1003F0000105F3DC2046AFF300802078000602D52B
:100400000220BDE8F0870120FBE70000074B70B534
:100410000D467B4400F011F80446284600F020F811
:1004200010B14FF0FF3070BD204670BD831B00003F
:1004300001694A1C02610878704700B58FB0CDE9A8
:1004400001310021059105497944CDE90310114698
:100450006846FFF70DFF0FB000BD0000E5FFFFFF8E
:10046000007B00F080007047754600F029F8AE462A
:1004700005006946534620F00700854618B020B5B0
:10048000FFF7D6FEBDE820404FF000064FF0000712
:100490004FF000084FF0000B21F00701AC46ACE82C
:1004A000C009ACE8C009ACE8C009ACE8C0098D4699
:1004B00070470446AFF300802046FFF7A5FE00001A
:1004C00000487047040C002000BFFEE770470000A2
:1004D0002DE9F0410446002700250026642094FB06
:1004E000F0F0C7B2642094FBF0F100FB11400A2148
:1004F00090FBF1F0C5B2642094FBF0F100FB1140D9
:100500000A2190FBF1F201FB1200C6B2B4F57A7F2A
:1005100006D10027714A2321062001F0EDFB04E0FB
:100520006F4A2321062001F0E7FB0A2F42D2DFE8C1
:1005300007F0050B11171D23292F353B694A2A2186
:10054000062001F0D9FB35E0644A2A21062001F09B
:10055000D3FB2FE0644A2A21062001F0CDFB29E0DD
:10056000624A2A21062001F0C7FB23E0604A2A21C3
:10057000062001F0C1FB1DE05E4A2A21062001F0A1
:10058000BBFB17E05C4A2A21062001F0B5FB11E015
:100590005A4A2A21062001F0AFFB0BE0584A2A21D3
:1005A000062001F0A9FB05E0564A2A21062001F0A9
:1005B000A3FB00BF00BF0A2D42D2DFE805F0050B08
:1005C00011171D23292F353B464A3121062001F002
:1005D00093FB35E0414A3121062001F08DFB2FE0ED
:1005E000414A3121062001F087FB29E03F4A3121B1
:1005F000062001F081FB23E03D4A3121062001F075
:100600007BFB1DE03B4A3121062001F075FB17E022
:10061000394A3121062001F06FFB11E0374A3121C0
:10062000062001F069FB0BE0354A3121062001F07C
:1006300063FB05E0334A3121062001F05DFB00BF7A
:1006400000BF0A2E42D2DFE806F0050B11171D236A
:10065000292F353B234A3C21062001F04DFB35E094
:100660001E4A3C21062001F047FB2FE01E4A3C2198
:10067000062001F041FB29E01C4A3C21062001F044
:100680003BFB23E01A4A3C21062001F035FB1DE02C
:10069000184A3C21062001F02FFB17E0164A3C21A6
:1006A000062001F029FB11E0144A3C21062001F04C
:1006B00023FB0BE0124A3C21062001F01DFB05E064
:1006C000104A3C21062001F017FB00BF00BF0E4A74
:1006D0003721062001F010FBBDE8F081360A00202A
:1006E000300B00202A0A0020420A00204E0A002077
:1006F0005A0A0020660A0020720A00207E0A0020A2
:100700008A0A0020960A0020A20A00202DE9F04162
:100710000446002700250026642094FBF0F0C7B2B1
:10072000642094FBF0F100FB11400A2190FBF1F0F2
:10073000C5B2642094FBF0F100FB11400A2190FB4C
:10074000F1F201FB1200C6B2B4F57A7F05D10027A1
:10075000714A022001F028FB04E0704A0A210220BD
:1007600001F022FB0A2F42D2DFE807F0050B111738
:100770001D23292F353B6A4A1E21022001F014FB5C
:1007800035E0654A1E21022001F00EFB2FE0654A8C
:100790001E21022001F008FB29E0634A1E210220ED
:1007A00001F002FB23E0614A1E21022001F0FCFA65
:1007B0001DE05F4A1E21022001F0F6FA17E05D4AB3
:1007C0001E21022001F0F0FA11E05B4A1E210220F6
:1007D00001F0EAFA0BE0594A1E21022001F0E4FA86
:1007E00005E0574A1E21022001F0DEFA00BF00BFDB
:1007F0000A2D42D2DFE805F0050B11171D23292F22
:10080000353B474A3221022001F0CEFA35E0424A18
:100810003221022001F0C8FA2FE0424A32210220A0
:1008200001F0C2FA29E0404A3221022001F0BCFA6C
:1008300023E03E4A3221022001F0B6FA1DE03C4A94
:100840003221022001F0B0FA17E03A4A32210220A8
:1008500001F0AAFA11E0384A3221022001F0A4FA8C
:100860000BE0364A3221022001F09EFA05E0344ABC
:100870003221022001F098FA00BF00BF0A2E42D2B6
:10088000DFE806F0050B11171D23292F353B244AFD
:100890005021022001F088FA35E01F4A5021022041
:1008A00001F082FA2FE01F4A5021022001F07CFA69
:1008B00029E01D4A5021022001F076FA23E01B4A6C
:1008C0005021022001F070FA1DE0194A5021022047
:1008D00001F06AFA17E0174A5021022001F064FA89
:1008E00011E0154A5021022001F05EFA0BE0134A94
:1008F0005021022001F058FA05E0114A502102204F
:1009000001F052FA00BF00BF0E4A4221022001F05E
:100910004BFABDE8F0810000D6340008F637000835
:10092000863400082635000876350008C6350008EC
:100930001636000866360008B63600080637000886
:1009400056370008A637000870B53D48006805789E
:10095000032D01DD032000E02846064639480078D3
:10096000A84215DB37480078FF2802D1002035491E
:10097000087034480078A84203DB00203149087031
:1009800006E030480078002802DC681E2D49087017
:100990002C4801782CA0FFF75FFC01F05DF8284897
:1009A000006801214268002001F0ECF82548007839
:1009B000032822DB002418E022490978C91E631CA1
:1009C00019441F4B1B6803EB41118A68611C4906DF
:1009D000080E192101F0D6F8611C4906080E1EA266
:1009E000012101F0CFF8601CC4B2B442E4DB1BA2C9
:1009F0000121062001F0C6F820E0002413E0104990
:100A0000096801EB44118A68611C4906080E192126
:100A100001F0B8F8611C4906080E0FA2012101F08F
:100A2000B1F8601CC4B2B442E9DB06490978491C3C
:100A30004906080E09A2012101F0A4F870BD0000CA
:100A400038000020400000206974656D5F696E64A5
:100A500065783A25640D0A00A1F50000A1F60000B2
:100A600010B504460A4800680A49097800EB4110AD
:100A70004078401E0749087007480068044908602C
:100A800008460068C06904490860FFF75DFF10BDB3
:100A900038000020400000203C0000200D48008865
:100AA00040F2E731884209D10B480088401C0A49CE
:100AB00008800A480088401C0849088006480088C9
:100AC000B0F5167F05D100200349088001200349B5
:100AD00008807047240A0020260A0020280A0020E7
:100AE00008B50121202000F007FC4FF47E40ADF84E
:100AF000000010208DF8030003208DF802006946E5
:100B00000C4800F03DF84FF47E410A4800F0CCF864
:100B10004FF48040ADF8000010208DF803006946C6
:100B2000044800F02DF84FF48041024800F0BCF872
:100B300008BD00000014014008B54FF48040ADF836
:100B4000000014208DF8030003208DF80200694690
:100B5000014800F015F808BD0014014008B54FF435
:100B60008040ADF8000003208DF8020028208DF8A9
:100B700003006946014800F003F808BD0014014075
:100B80002DE9F04102460025002600200023002424
:100B9000002791F803C00CF00F0591F803C00CF08A
:100BA000100CBCF1000F03D091F802C04CEA05050F
:100BB00091F800C0BCF1000F31D0146800202BE088
:100BC0004FF0010C0CFA00F3B1F800C00CEA030678
:100BD0009E4220D183004FF00F0C0CFA03F7BC4368
:100BE00005FA03FC4CEA040491F803C0BCF1280F99
:100BF00006D14FF0010C0CFA00FCC2F814C00AE058
:100C000091F803C0BCF1480F05D14FF0010C0CFA6C
:100C100000FCC2F810C0401C0828D1D31460B1F801
:100C200000C0BCF1FF0F34DD546800202EE000F15D
:100C3000080C4FF0010808FA0CF3B1F800C00CEAF8
:100C400003069E4221D183004FF00F0C0CFA03F7EC
:100C5000BC4305FA03FC4CEA040491F803C0BCF160
:100C6000280F05D100F1080C08FA0CF8C2F814801E
:100C700091F803C0BCF1480F07D100F1080C4FF008
:100C8000010808FA0CF8C2F81080401C0828CED3DE
:100C90005460BDE8F0810246002093680B400BB120
:100CA000012000E0002070474161704701617047FA
:100CB00000BFFEE700F0D0FE094800F041FF0DE064
:100CC00008480078012801D100F07EF90648008824
:100CD000FFF71CFD04480088FFF7FAFBF0E700006F
:100CE000862C000814000020260A002008B50121E7
:100CF000442000F001FB1C20ADF8000048208DF8D6
:100D0000030069460648FFF73BFF0120ADF80000ED
:100D100028208DF8030069460248FFF731FF08BD1F
:100D20000018014000080140014611B101202E4A7F
:100D300010702D480078002845D02C4800780128F4
:100D40000BD02B480078012807D02A4800780128CA
:100D500003D029480078012835D128480088142874
:100D60000BD027480088142807D02648008814286C
:100D700003D025480088142801D11B4801701F4862
:100D80000088142804DB00201C4A108001207047D2
:100D90001B480088142804DB0020194A1080022018
:100DA000F5E718480088142804DB0020154A108055
:100DB0000320ECE714480088142813DB0020124AB3
:100DC00010800420E3E70948007858B90848007803
:100DD00040B90848007828B90748007810B90120C0
:100DE000014A10700020D2E72400002014000020E7
:100DF000180000201C000020200000201600002009
:100E00001A0000201E0000202200002010B56048BB
:100E10000088142190FBF1F201FB1200002879D127
:100E200004215C48FFF737FF08BB59480088282198
:100E300090FBF1F201FB1200F0B904215548FFF7D5
:100E40002AFF70B9012054490870002053490880D6
:100E500001205349088053480088401C51490880AC
:100E60000AE000204C4908704E49088004E0002048
:100E7000494908704B49088008214648FFF70BFF95
:100E800008BB434800880A2190FBF1F201FB1200E5
:100E9000F0B908213F48FFF7FEFE70B90120424932
:100EA000087000203D49088001203D4908803F48E6
:100EB0000088401C3D4908800AE000203A4908703B
:100EC0003A49088004E00020374908703749088013
:100ED00001213748FFF7DFFE012822D12C48008886
:100EE0000A2190FBF1F201FB1200F8B90121304810
:100EF000FFF7D1FE01280ED12E49087000202749A6
:100F000008800120264908802B480088401C2A4977
:100F100008800BE03BE00020264908702649088045
:100F200004E0002023490870234908801021194853
:100F3000FFF7B1FE08BB16480088282190FBF1F2AC
:100F400001FB1200F0B910211248FFF7A4FE70B99E
:100F500001201A490870002010490880012010491A
:100F6000088017480088401C154908800AE00020C6
:100F7000124908701249088004E000200F490870E7
:100F80000F49088002480088401C0149088010BDB4
:100F9000240A00200018014014000020260A002026
:100FA000280A002016000020180000201A00002047
:100FB000000801401C0000201E000020200000202E
:100FC0002200002000BFFEE7002499E04D48007891
:100FD00001287DD14C48008840F2EE218842F4D1AE
:100FE000002048490870FFF7AFFC86E00020FFF7BB
:100FF0009BFE0446012C58D0022C04D0032C0AD0AE
:10100000042C70D10FE041480078401C3F49087023
:10101000FFF79AFC68E03D480078401E3B490870A5
:10102000FFF792FC60E03A4800683849097800EB25
:101030004110007B0B2802D00C2833D11AE0344831
:1010400000683249097800EB4110806988B1304866
:101050000068304908602E4800682C49097800EB88
:10106000411080692A490860002028490870FFF76C
:101070006BFC18E0264800682449097800EB411011
:10108000006970B1224A1268204B1B7802EB4312B0
:1010900090681F4A12681D4B1B7802EB43121169BE
:1010A000884700E000BF00BF1EE01A480068B8B1E2
:1010B000174800681549097800EB4110407813493A
:1010C000087014480068124908600846006801E08A
:1010D00014E008E0C0690F490860FFF735FC01E043
:1010E000FFF7E8FD00E000BF00BF0B48008840F2BA
:1010F0005721884201D1FFF7DDFD77E7FFF7DAFDE1
:1011000064E70000140000201600002040000020CA
:10111000380000203C000020260A00207047000014
:1011200070B5002100230F22C47804B3154C246845
:1011300004F4E064C4F5E064210AC1F10403CA4088
:10114000447804FA03F184781440214309010E4CD9
:101150000678A155047804F01F050124AC400578F9
:101160006D11AD0005F1E025C5F8004109E00478F6
:1011700004F01F050124AC40044D0678761145F8B3
:10118000264070BD0CED00E000E400E080E100E0EE
:10119000054600240026D32D09D14549454800685D
:1011A00001F074FA074601F009FA84B208E04049F8
:1011B0004148006801F06AFA074601F0FFF984B27D
:1011C00000F04AFC72E00020FFF7AEFD0646012E5B
:1011D00052D0022E04D0032E1AD0042E52D12FE06A
:1011E00033493548006801F051FA0746204601F0BE
:1011F00005FA8046394601F015FA02D2601C84B225
:1012000000E000BF2D4A2A21062000F0FBFD3AE055
:1012100027492848006801F039FA0746204601F0BE
:10122000EDF98046394601F0FDFA02D2601E84B223
:1012300000E000BF224A3C21062000F0E3FD22E04E
:10124000D32D0CD1204601F0D9F91A49086018496C
:101250001848006801F0F0F8164908600BE02046D5
:1012600001F0CCF91449086011491348006801F0F5
:10127000E3F81149086006E040F2EE2011490880C9
:10128000FFF7A2FE00BF00BF0F4A2A21062000F090
:10129000B9FD0E4A3C21062000F0B4FD2046FFF7C0
:1012A00035FA0BA26E21062000F032FE8BE700001B
:1012B000000020412C00002030000020F60A002011
:1012C000C60A002016000020DE0A0020AE0A002018
:1012D0006D4100007047000029B1064AD2690243FF
:1012E000044BDA6104E0034AD2698243014BDA61BC
:1012F000704700000010024029B1064A926902437B
:10130000044B9A6104E0034A92698243014B9A615B
:1013100070470000001002400F48006840F00100D4
:101320000D490860084640680C4908400A49486071
:10133000084600680A4908400749086008460068EE
:1013400020F4802008600846406820F4FE004860D1
:101350004FF41F0088607047001002400000FFF843
:10136000FFFFF6FE30B500210022002400232D4DA2
:101370006D6805F00C0121B1042905D0082923D19D
:1013800005E0294D056022E0274D05601FE0254D51
:101390006D6805F47012234D6D6805F480340225E4
:1013A00005EB92421CB9214D554305600BE01D4DE4
:1013B0006D6805F400351DB11C4D5543056002E014
:1013C000194D5543056002E0174D056000BF00BF91
:1013D000144D6D6805F0F0010909154D6B5C056849
:1013E000DD4045600F4D6D6805F4E061090A104D60
:1013F0006B5C4568DD4085600A4D6D6805F46051A1
:10140000C90A0B4D6B5C4568DD40C560054D6D68D4
:1014100005F44041890B074D6B5CC568B5FBF3F5DE
:10142000056130BD0010024000127A0000093D0045
:101430001A0B00202A0B002010B5014600220023C1
:1014400000204A11012A02D1094C236806E0022A31
:1014500002D1074C236A01E0054C636A01F01F02C8
:10146000012494401C400CB1012000E0002010BD7C
:10147000001002400248406800F00C007047000075
:101480000010024001460020034A506820F0F0009E
:101490000843506070470000001002400149086096
:1014A000704700000000424201460020034A506895
:1014B00020F4E060084350607047000000100240D4
:1014C00001460020034A506820F4605040EAC10001
:1014D00050607047001002400149086670470000E4
:1014E0000000424202460020044B586820F47C1061
:1014F00042EA01031843014B586070470010024054
:1015000001460020034A506820F003000843506061
:101510007047000000100240704710B500F002F85C
:1015200010BD00000CB50020019000903348006809
:1015300040F480303149086000BF3048006800F452
:10154000003000900198401C0190009818B9019853
:10155000B0F5A06FF1D12948006800F4003010B157
:101560000120009001E0002000900098012843D164
:101570002348006840F010002149086008460068D0
:1015800020F0030008600846006840F00200086090
:101590001A4840681949486008464068486008464B
:1015A000406840F4806048600846406820F47C1041
:1015B00048600846406840F4E81048600846006803
:1015C00040F08070086000BF0C48006800F00070B8
:1015D0000028F9D00948406820F003000749486016
:1015E0000846406840F00200486000BF0348406879
:1015F00000F00C000828F9D10CBD000000100240DA
:1016000000200240042808D14FF0E021096941F090
:1016100004014FF0E022116107E04FF0E021096979
:1016200021F004014FF0E022116170477047000083
:1016300010B51348006840F00100114908600846E1
:101640004068104908400E494860084600680E4945
:1016500008400B4908600846006820F480200860B4
:101660000846406820F4FE0048604FF41F00886080
:10167000FFF753FF4FF000600449086010BD000001
:10168000001002400000FFF8FFFFF6FE08ED00E04A
:1016900010B5FFF7BBFBFFF701FA01210B4800F083
:1016A00058F888B10A480088B0F57A7F03DB01203A
:1016B0000749088004E006480088401C0449088067
:1016C0000121024800F036F810BD0000000400407F
:1016D000240A00207FB505460C4601210220FFF7B1
:1016E000FBFDADF80850ADF804400020ADF80A004D
:1016F000ADF8060001A90E4800F046F80122114697
:101700000B4800F037F81D208DF8000006208DF8FA
:10171000010000208DF8020001208DF803006846CA
:10172000FFF7FEFC0121024800F007F87FBD000032
:1017300000040040CA430282704721B1028842F08F
:101740000102028004E002884FF6FE731A40028014
:10175000704730B50246002000230024158A05EAB0
:101760000103958905EA010413B10CB1012000E0E1
:10177000002030BD1AB183890B43838102E0838945
:101780008B43838170470000002202881D4B9842E2
:101790000ED01D4B98420BD0B0F1804F08D01B4BA0
:1017A000984205D01A4B984202D01A4B984204D165
:1017B0004FF68F731A404B881A43174B984207D045
:1017C000164B984204D04FF6FF431A40CB881A4379
:1017D00002808B8883850B8803850A4B98420BD047
:1017E000094B984208D00E4B984205D00D4B9842B9
:1017F00002D00D4B984201D10B7A038601238382DC
:1018000070470000002C01400034014000040040FB
:1018100000080040000C0040001000400014004090
:1018200000400140004401400048014010B540F232
:1018300025511D4800F04AF810B31B4800F002F98A
:10184000C4B21A48008800F40040C8B9174800889C
:1018500000F4804060B10A2C03D0002013490880B6
:1018600020E01248008840F400401049088019E048
:101870000D2C06D10D48008840F480400B490880AB
:1018800010E00A480088C0F30D0009490C540748CD
:101890000088401C0549088008460088C72801DDEB
:1018A0000020088010BD000000380140180B002007
:1018B0003C0B002021B1828942F40052828104E075
:1018C00082894DF6FF731A408281704770B50246D7
:1018D000002400230025002040F66A16B14200D102
:1018E00000BFC1F3421501F01F03012606FA03F3FE
:1018F000012D02D19689334006E0022D02D1168ACD
:10190000334001E0968A33400C12012606FA04F4B3
:101910001688344013B10CB1012000E0002070BDE6
:10192000F0B50346002400260025002040F66A1783
:10193000B94200D100BF1846C1F3421401F01F069E
:10194000012707FA06F5012C01D10C3004E0022C26
:1019500001D1103000E014301AB107682F4307603E
:1019600002E00768AF430760F0BD00002DE9F047D3
:1019700086B005460E460024A24600BFA1460027B9
:10198000B08900B100BF2F462C8A4CF6FF7004408E
:10199000F08804432C82AC894EF6F3100440B088E2
:1019A00031890843718908430443AC81AC8A4FF6FE
:1019B000FF400440B0890443AC8201A8FFF7D2FC89
:1019C0001F48874202D1DDF810A001E0DDF80CA02D
:1019D000A88900F4004040B10AEBCA0000EB0A10ED
:1019E00031684900B0FBF1F807E00AEBCA0000EBF0
:1019F0000A1031688900B0FBF1F86420B8FBF0F000
:101A000004012009642101FB1089A88900F4004029
:101A100040B1322000EBC900B0FBF1F000F007004C
:101A2000044308E0322000EB09106421B0FBF1F020
:101A300000F00F0004432C8106B0BDE8F0870000E1
:101A40000038014001468888C0F30800704700BF95
:101A5000FEE7014600BF704770B54FF400511348D0
:101A6000FFF722F94FF400411048FFF71FF9002457
:101A700014E004F1B00000F00FFC002000F00CFCBA
:101A8000102000F009FC002504E0002000F03EFCDE
:101A9000681CC5B2802DF8DB601CC4B2082CE8DBE2
:101AA0004FF400510148FFF701F970BD00140140E7
:101AB00010B56FF00400FFF7A5FD0A4800680A4959
:101AC000B0FBF1F0094908700846007800EB4001CE
:101AD000C1EBC0104FF6FF7101EAC0000449088055
:101AE00010BD00000000002000127A000E0B002044
:101AF000100B00200146114A12884A434FF0E023A0
:101B00005A6100229A611A46126942F001021A6172
:101B100000BF4FF0E022106900F001021AB100F49A
:101B20008032002AF5D04FF0E022126922F0010243
:101B30004FF0E0231A6100229A617047100B0020D9
:101B400070B504464FF400510D48FFF7ADF800257D
:101B50000DE0E9B2002000F015FB002604E020783B
:101B600000F0D4FB641C761C802EF8D36D1C082D6D
:101B7000EFD34FF400510248FFF798F870BD000012
:101B8000001401402DE9F0478EB082460E461546FE
:101B90000024A6E0285DB02836DB285DF72833DC7A
:101BA000601C285CA1282FDB285DB0385E214843EB
:101BB0004F490860601C285C00F2AD2009680844A9
:101BC0004B49086008460068400108600846006804
:101BD000C0F3074708460088C0F30728084690F876
:101BE0000090202006AB4A4641460090384600F05F
:101BF00017FA06AA3146504600F0A8F8A01CC4B255
:101C000006F11000C6B26CE0285DA12835DB285D26
:101C1000A32832DC601C285CA1282EDB285DA138BB
:101C20005E21484332490860601C285CA13809687D
:101C300008442F49086008460068400108600846CB
:101C40000068C0F3074708460088C0F30728084625
:101C500090F80090202006AB4A4641460090384656
:101C600000F0DEF906AA3146504600F06FF8A01CDD
:101C7000C4B206F11000C6B233E0285D20282EDB86
:101C8000285D7E282BDC285D20381949086008462D
:101C900000680001086008460068164908441449B5
:101CA000086008460068C0F3074708460088C0F38C
:101CB0000728084690F80090102002AB4A4641469B
:101CC0000090384600F0ACF902AA3146504600F0C8
:101CD000F5F8601CC4B206F10800C6B201E0601C51
:101CE000C4B2285D00283FF755AF0EB0BDE8F087BD
:101CF0002800002080CF03002DE9F04104460E4665
:101D000015464FF400511048FEF7CEFF4FF0020881
:101D10000FE0E1B2304600F035FA002704E0287801
:101D200000F0F4FA6D1C7F1C062FF8D3641CA8F198
:101D30000108B8F1000FECD14FF400510248FEF752
:101D4000B5FFBDE8F0810000001401402DE9F0412D
:101D500004460E4615464FF400511248FEF7A4FF04
:101D60004FF400410F48FEF7A1FF4FF002080FE0CB
:101D7000E1B2F0B200F006FA002704E0287800F0A3
:101D8000C5FA6D1C7F1C102FF8D3641CA8F1010844
:101D9000B8F1000FECD14FF400510248FEF786FF76
:101DA000BDE8F081001401402DE9F04104460E46E3
:101DB00015464FF400511248FEF776FF4FF40041EC
:101DC0000F48FEF773FF4FF004080FE0E1B2F0B2E6
:101DD00000F0D8F9002704E0287800F097FA6D1C8D
:101DE0007F1C102FF8D3641CA8F10108B8F1000F74
:101DF000ECD14FF400510248FEF758FFBDE8F081E6
:101E0000001401402DE9F04104460E4615464FF4FA
:101E100000511048FEF748FF4FF002080FE0E1B212
:101E2000304600F0AFF9002704E0287800F06EFAA1
:101E30006D1C7F1C0C2FF8D3641CA8F10108B8F1AD
:101E4000000FECD14FF400510248FEF72FFFBDE820
:101E5000F0810000001401402DE9F04706460C46D1
:101E6000154606F1AF0000F0FF084FF4005112488C
:101E7000FEF71AFF04F00F00401E00F0FF091020CB
:101E800000EB141A404600F007FA504600F004FA3E
:101E9000484600F001FA002704E0287800F036FAFE
:101EA0006D1C7F1C062FF8D34FF400510248FEF73B
:101EB000FDFEBDE8F0870000001401402DE9F0416F
:101EC00004460E4615464FF400511048FEF7ECFE4E
:101ED0004FF002080FE0E1B2304600F053F900275E
:101EE00004E0287800F012FA6D1C7F1C082FF8D34C
:101EF000641CA8F10108B8F1000FECD14FF40051B7
:101F00000248FEF7D3FEBDE8F08100000014014056
:101F10002DE9FE4F82460E461546002432E0285D2C
:101F200020282DDB285D7E282ADC285D20381849F2
:101F3000086008460068C000086008460068154947
:101F400008441349086008460068C0F3074708467C
:101F50000088C0F30728084690F80090082001ABDD
:101F60004A4641460090384600F05AF801AA3146E8
:101F70005046FFF771FF601CC4B2B01DC6B201E04D
:101F8000601CC4B2285D0028C9DCBDE8FE8F0000DB
:101F900028000020C0BF030000BF054A128802F0DD
:101FA0004002002AF9D0C2B2014B1B1D1A807047B3
:101FB0000038014070B500244FF400711748FEF757
:101FC00075FE00BFFEF7CAFD002520E04FF48041FA
:101FD0001248FEF76BFE00BF4FF400710F48FEF78A
:101FE00063FE00BF6006040E4FF480410B48FEF70D
:101FF00052FE18B1601CC4B200BF01E0E4B200BFE1
:102000004FF400710548FEF751FE681CC5B2082D5B
:10201000DCDBFEF791FD204670BD0000001401409E
:102020002DE9F04780460D4616461F46DDF8209004
:102030004FF400411448FEF737FE4FF400511248A8
:10204000FEF734FE4FF400710F48FEF72DFE03201B
:1020500000F0F8F8404600F0F5F8284600F0F2F8F5
:10206000304600F0EFF8002404E0FFF7A3FF3855F6
:10207000601CC4B24C45F8DB4FF400410248FEF747
:1020800015FEBDE8F08700000014014010B54FF4C4
:10209000C870FFF72FFDFEF723FD4FF400613848AD
:1020A000FEF702FE4FF4C870FFF724FD4FF4006105
:1020B0003348FEF7FBFD4FF400513148FEF7F4FDC5
:1020C0004FF400412E48FEF7F1FDAE2000F0E4F899
:1020D000202000F0E1F8102000F0DEF8B02000F041
:1020E000DBF8C82000F0D8F8002000F0D5F8102068
:1020F00000F0D2F8402000F0CFF8812000F0CCF8BA
:10210000FF2000F0C9F8A12000F0C6F8A62000F0DA
:10211000C3F8A82000F0C0F83F2000F0BDF8A420CC
:1021200000F0BAF8D32000F0B7F8002000F0B4F8BF
:10213000D52000F0B1F8F02000F0AEF8D92000F082
:10214000ABF8222000F0A8F8DA2000F0A5F8122061
:1021500000F0A2F8DB2000F09FF8202000F09CF8AF
:102160008D2000F099F8142000F096F8AF2000F0D0
:1021700093F84FF400510248FEF798FD10BD00009F
:102180000014014070B504460D4605F1B00000F0A2
:1021900083F8102141EA141000F07EF804F00F00DB
:1021A00000F07AF870BD00BF00F016F8FFF780FC71
:1021B0004FF4165000F0E4F8FEF798FD40F27F214E
:1021C0000920FFF787FAFFF761FFFFF745FC02E000
:1021D000D320FEF7DDFFFBE710B5FFF79DF80120E8
:1021E000FFF75CF900BF2120FFF726F90028FAD09D
:1021F0000020FFF747F94FF48060FFF755F9002002
:10220000FFF75EF94FF460110020FFF76BF90C48FF
:10221000006840F032000A4908600120FFF75CF9CD
:1022200000BF3920FFF708F90028FAD00220FFF795
:1022300067F900BFFFF71EF90828FBD110BD0000A9
:102240000020024070B5044600251FE004F0800025
:1022500030B14FF480610F48FEF728FD00BF05E064
:102260004FF480610B48FEF71FFD00BF6006040EAF
:102270004FF400710748FEF717FD00BF4FF40071DF
:102280000448FEF713FD00BF681CC5B2082DDDDB56
:1022900070BD00000014014070B504464FF4805139
:1022A0001948FEF701FD4FF400511748FEF7FCFCFA
:1022B00000251BE04FF400711348FEF7F5FC04F015
:1022C000800028B14FF480610F48FEF7EFFC04E076
:1022D0004FF480610C48FEF7E7FC4FF400710A48A8
:1022E000FEF7E4FC00BF6400681CC5B2082DE1DB0A
:1022F0004FF480510448FEF7D9FC4FF400510248D6
:10230000FEF7D4FC70BD00000014014070B5044617
:102310004FF480511948FEF7C9FC4FF4005117489B
:10232000FEF7C2FC00251BE04FF400711348FEF7D6
:10233000BBFC04F0800028B14FF480610F48FEF729
:10234000B5FC04E04FF480610C48FEF7ADFC4FF49F
:1023500000710A48FEF7AAFC00BF6400681CC5B201
:10236000082DE1DB4FF480510448FEF79FFC4FF449
:1023700000510248FEF79AFC70BD000000140140B5
:1023800010B586B00446012144F20400FEF7B4FF04
:102390004FF40070ADF8140003208DF816001820DB
:1023A0008DF8170005A91C48FEF7EAFB4FF4806082
:1023B000ADF8140004208DF8170005A91648FEF7A3
:1023C000DFFB25208DF8000003208DF801008DF83B
:1023D000020001208DF803006846FEF7A1FE01947B
:1023E0000020ADF80800ADF80A00ADF80C00ADF81B
:1023F00010000C20ADF80E0001A90848FFF7B6FA4E
:10240000012240F225510548FFF78AFA01210348CD
:10241000FFF750FA06B010BD000801400038014037
:10242000401058BFC0F14040491058BFC1F1404171
:102430008142EFF3008070474FF47F0C1CEAD0120A
:102440001EBF1CEAD11392EA0C0F93EA0C0F00F0A6
:10245000858090EA010F48BF42F4807240F4000C7E
:1024600041F400002CF07F4120F07F4000B5814214
:10247000A2EB03020FF2081CACEB504EC0F10000BF
:102480009EF800E04FEA4E0E00FB0EFC38BF4900FC
:102490004FEA2C1C02F5FA020CFB0EF34FEACE1E9B
:1024A0004FEA112C4FEAC1210EEB635E42EB224250
:1024B0000EFB0CFC4FEA1C5300FB03114FEA112CDE
:1024C0004FEA01310EFB0CFC4FEADC4C00FB0C1117
:1024D000C14228BF09184CEB03335DF804EB10EB45
:1024E000410143EBC250B2F57C0F38BF704729D58C
:1024F00012F0F00F1CBF00F1C04000F00040704728
:10250000008182838485868788898B8C8D8E8F91CC
:102510009293959697999A9C9D9FA0A2A3A5A7A8F0
:10252000AAACAEB0B2B3B5B7B9BCBEC0C2C5C7C91C
:10253000CCCED1D4D7D9DCDFE2E6E9ECF0F3F7FA80
:10254000FE0000004FEA400C0CF1807CBCF17E4F95
:1025500028BF7047B0F1C04000F05FB990EA010FAA
:102560000CEAD11348BF42F48072624538BF63451C
:1025700007D213F47F0F16D080EA010000F000406C
:10258000704710B500F003F9097EFC3E00F005B875
:1025900080EA010000F00040704780EA010000F08E
:1025A000004000F03AB912F47F0F04BF02487047B0
:1025B00080EA010000F031B90000C07FC10DD1F107
:1025C0009E0206DB4FEA002343F0004323FA02F0A9
:1025D0007047004207D54FEA4001B1F1FE4F02D2E9
:1025E0004FF00000704710B500F0D1F849922480F8
:1025F000002070476FEA200070470000B0FA80F3B7
:1026000010FA03F2C3F19D030AD0D90501EB1220A1
:10261000530638BF704700F1010008BF20F00100E9
:102620007047000050EA010C00F113801CF5000F08
:1026300058BFBCF5000F01D48842704707D710F58A
:10264000000F58BF11F5000F15D48842704789421A
:1026500070471CF5000F04D5BCF5000FF7D581427B
:1026600070474FF0807C1CEB400F38BF1CEB410FD4
:1026700001D28142704710B500F089F892244900D8
:102680004FF000504FF08051FFF7CABE4FF47F0C5F
:102690001CEAD0121EBF1CEAD11392EA0C0F93EA77
:1026A0000C0F00F0478090EA010F48BF42F480729F
:1026B0004FF0004C4CEA00204CEA012102EB0302EF
:1026C000A0FB0113A2F50002002918BF43F001038B
:1026D0005B0028BF4FEA330342EB22425FEA132C30
:1026E0004CEBC2502EBFBCEB436FB2F57C0F704772
:1026F0004FEA036CBCF1004F08BF20F00100B2F5B7
:102700007C0F38BF70470BD582F0FF0212F5803F77
:10271000C8BF704700F1C040D8BF00F0004070470C
:1027200000F5000C5FEA4C0C48BF7047B0F1C040A8
:1027300000F073B890EA010F0CEAD11348BF42F4DD
:102740008072624538BF634504D280EA010000F020
:102750000040704710B500F01AF800BF8900013E34
:1027600000F007B800F009B85FEA410C5FEA1C6CA2
:1027700008D080EA010000F050B85FEA400C5FEA40
:102780001C6CF6D14FF00040A0F5800070470EF1B0
:10279000020E2EF0030E5EF8044B244204D44FEADE
:1027A0004102B2F17F4F11D84FEA4003B3F17F4F9E
:1027B0000CD80ED14FEAD07CB2F17F4F0CEB4C0C11
:1027C0000CF1020C08BF4CEBD17C04E04FF0080C7C
:1027D00001E04FEAD17C0CEB4C0324FA03F404F043
:1027E0000704B4F1040C06D20EEB840CBDE81040D3
:1027F0004CF0010C6047DFE80CF0070802024FF0D4
:102800000040A0F5800010BD0846420018BFD2F17C
:10281000807288BF00F0004010BDFF2141EAD05017
:10282000C005704751EA000C00F113801CF5000F41
:1028300058BFBCF5000F01D48142704707D711F58E
:10284000000F58BF10F5000F15D481427047894220
:1028500070471CF5000F04D5BCF5000FF7D5884272
:1028600070474FF0807C1CEB410F38BF1CEB400FD2
:1028700001D28842704780EA010081EA000180EAC3
:102880000100FFF7F8BE000000000000000000009B
:102890000000000000000000000000000000000038
:1028A0000000000000000000000000000000000028
:1028B0000000000000000000008080C0C0E0E06078
:1028C000602030202020002000000080FCF0E0800C
:1028D00000000000000000000000000000000000F8
:1028E00000000000000000000000000000000000E8
:1028F00000000000000000000000000000000000D8
:1029000000000000000000000000000000000000C7
:1029100000000000000000000000000000000000B7
:1029200000000000000000000000000000000000A7
:10293000000080E0F0FCFC7E1F0F07030100000098
:102940000000000000000000000000FAFFFFFFFF91
:10295000FFFCF0C0000000000000000000000000CC
:102960000000000000000000000000000000000067
:102970000000000000000000000000000000000057
:102980000000000000000000000000000000000047
:102990000000000000000000000000000000000037
:1029A0000000000000000000000000000000000027
:1029B000E8FEFFFFFF1F0100000000000000000014
:1029C00000000080C0E0F0F8FC0CA0FFFFFFFFFF5C
:1029D000FFFFFFFFFEF88000000000000000000085
:1029E00000000000000000000000000000000000E7
:1029F00000000000000000000000000000000000D7
:102A000000000000000000000000000000000000C6
:102A100000000000000000000000000000000000B6
:102A200000000000000000000000000000000000A6
:102A30000F7FFFFFFFFAC000000000000000000051
:102A4000000C06070F0F1F7F0380FEBFCFCFC7C349
:102A5000E3E3E36363676F600000000000000000D1
:102A60000000000000000000000000000000000066
:102A70000000000000000000000000000000000056
:102A80000000000000000000000000000000000046
:102A90000000000000000000000000000000000036
:102AA0000000000000000000000000000000000026
:102AB000000001070F3F3F7FFCF8F0E0C08080106E
:102AC0003018180C0C6637331B1D8FCF67370B2F50
:102AD0000A060606060000000000000000000000D4
:102AE00000000000000000000000000000000000E6
:102AF00000000000000000000000000000000000D6
:102B000000000000000000000000000000000000C5
:102B100000000000000000000000000000000000B5
:102B200000000000000000000000000000000000A5
:102B30000000000000000000000101030307070778
:102B400007060E060E060406060203020200000037
:102B50000000000000000000000000000000000075
:102B60000000000000000000000000000000000065
:102B70000000000000000000000000000000000055
:102B80000000000000000000000000000000000045
:102B90000000000000000000000000000000000035
:102BA00000000000000000008080FE8282FE808025
:102BB000FE8282FEFE800000F80808FF08F800FE92
:102BC00002E282FE00000000000202020202FEFE9B
:102BD000020202020200000010F0C00003FF000029
:102BE000FF0000C0700000000000000000000000B6
:102BF00000000000000000000000000000000000D5
:102C000000000000000000000000000000000000C4
:102C100000000000000000000000000000000000B4
:102C20000000000000000000203E0700203F407828
:102C30000F00203F1F0000000F00003F082718076B
:102C40000000013F203800001010101010101F1F4E
:102C5000101010101010000020202320203F2020F2
:102C60003F20212320200000000000000000000081
:102C70000000000000000000000000000000000054
:102C80000000000000000000000020F0201010E014
:102C90000000E0101010E00000605090B00020F242
:102CA0000010FC100020F20000E0101010E00020E6
:102CB000F0201010E0000000000000000000000004
:102CC0000000000000000000000000000000000004
:102CD00000000000000000000000000000000000F4
:102CE00000000000000000000000000000000000E4
:102CF000000000F00804021C22229C6010CC22205C
:102D0000C0020408F00040404040505F5142424140
:102D1000404041424242414040434242414042439E
:102D2000424043424142434240414242424140428A
:102D30004342404243424040404040404040404087
:102D40004040404040404040404040404040404083
:102D50004040404040404040404040404040404073
:102D60004040404040404040404040404040404063
:102D7000404040434448504040434040404142422C
:102D800041504844434000000000000000000000A3
:102D90000000000000000000000000000000000033
:102DA0000000000000000000000000000000000023
:102DB0000000000000000000000000000000000013
:102DC0000000000000000000000000000000000003
:102FC00000000000000000000000E01010E00080A1
:102FD0006010000000000000609090102070000061
:102FE000008080000080E080000080008080000081
:102FF0000000808080000000900000800080800041
:103000000080E080000000000000000000000000E0
:1030100000000000000000000000000000000000B0
:1030200000000000000000000000000000000000A0
:103030000000000000000000000000000000000090
:10304000000000000000000000000001190403005F
:103050000E11110E000000001C081011110E0000CE
:103060000F12120B00001F100881FF8910100F00B3
:10307000000F1010100F00111F10111F1100101F52
:1030800010001F10080000000000000000000000F9
:103090000000000000000000000000000000000030
:1030A0000000000000000000000000000000000020
:1030B0000000000000000000000000000000000010
:1030C0000000000000000000000000000000000000
:1030D00000000000000000000000000000000000F0
:1030E00000000000000000000000000000000000E0
:1030F00000000000000000000000000000000000D0
:1031000000000000000000000000000000000000BF
:1031100000000000000000000000000000000000AF
:10312000000000000000000000000000000000009F
:10313000000000000000000000000000000000008F
:10314000000000000000000000000000000000007F
:10315000000000000000000000000000000000006F
:10316000000000000000000000000000000000005F
:10317000000000000000000000000000000000004F
:10318000000000000000020202020202020202022B
:10319000020202020202020202020202020202020F
:1031A00002020202020202020202020202020202FF
:1031B00002020202020202020202020202020202EF
:1031C00002020202020202020202020202020202DF
:1031D00002020202020202020202020202020202CF
:1031E00002020202020202020202020202020202BF
:1031F00002020202020202020202020202020202AF
:1032000002020202020200000000000000000000B2
:1032100000000000000000000000000000000000AE
:10322000000000000000000000000000000000009E
:10323000000000000000000000000000000000008E
:10324000000000000000000000000000000000007E
:103490000000000000000000FEFFFF030303030321
:1034A000030303FFFFFE0000FFFFFF00000000001A
:1034B000000000FFFFFF00007FFFFFC0C0C0C0C0D2
:1034C000C0C0C0FFFF7F000000000000000000003F
:1034D00000000000000000000000000000000000EC
:1034E00000000000000000000000000000000000DC
:1034F0000060FEFFFF000000000000000000000070
:103500000000FFFFFF0000000000000000000000BE
:103510000000FFFFFF0000000000000000000000AE
:10352000000000000000000000000000000000009B
:1035300000000000000000007E7F7F030303030300
:10354000030303FFFFFE0000000000000080C0F046
:10355000783C0F0703000000C0E0F8FCDECFC3C1D9
:10356000C0C0C0C0C0C000000000000000000000DB
:10357000000000000000000000000000000000004B
:1035800000000000000000007E7F7F0303030303B0
:10359000030303FFFFFE00000000000000081C1CE6
:1035A000363663E3C1C100007FFFFFC0C0C0C0C0AA
:1035B000C0C0C0FFFF7F000000000000000000004E
:1035C00000000000000000000000000000000000FB
:1035D0000000000000000000000000C0F0FC3F0FF1
:1035E00083808000000000C0F0FC3F0F030000005B
:1035F000FFFFFF00000003030303030303030303B0
:10360000FFFFFF03030300000000000000000000B4
:1036100000000000000000000000000000000000AA
:103620000000000000000000FFFFFF03030303038E
:103630000303030303030000070707060606060645
:10364000060606FEFEFC00007FFFFFC0C0C0C0C033
:10365000C0C0C0FFFF7F00000000000000000000AD
:10366000000000000000000000000000000000005A
:103670000000000000000000FEFFFF03030303033F
:103680000303033F3F3E0000FFFFFF0C0C0C0C0C3C
:103690000C0C0CFCFCF800007FFFFFC0C0C0C0C0D9
:1036A000C0C0C0FFFF7F000000000000000000005D
:1036B000000000000000000000000000000000000A
:1036C00000000000000000003F3F3F03030303032E
:1036D0000383F3FF3F07000000000000000000E04C
:1036E000FCFF1F010000000000000000C0F8FF3FC9
:1036F00007000000000000000000000000000000C3
:1037000000000000000000000000000000000000B9
:103710000000000000000000FEFFFF03030303039E
:10372000030303FFFFFE0000E1E3F7363E1C1C1C11
:103730001C3E36F7E3C100007FFFFFC0C0C0C0C021
:10374000C0C0C0FFFF7F00000000000000000000BC
:103750000000000000000000000000000000000069
:103760000000000000000000FEFFFF03030303034E
:10377000030303FFFFFE00001F3F3F3030303030B7
:10378000303030FFFFFF00007CFCFCC0C0C0C0C078
:10379000C0C0C0FFFF7F000000000000000000006C
:1037A0000000000000000000000000000000000019
:1037B0000000000000000000000000000000000009
:1037C00000000000000000000000000000000000F9
:1037D000000000000000000000000000E0E0E00049
:1037E00000000000000000000000000000000000D9
:1037F00000000000000000000000000000000000C9
:1038000000000000000000000000000000000000B8
:1038100000000000000000000000000000000000A8
:103820000000000000000000000000000000000098
:103830000000000000000000000000000000000088
:103840000000000000000000312E4B5031202020ED
:103850002020202020000000332E5456312020202C
:103860002020202020000000322E4B50322020202B
:103870002020202020000000342E5456322020200A
:103880002020202020000000352E416972202020B9
:103890002020202020000000362E416972202020A8
:1038A0002020202020000000372E41697220202097
:1038B0002020202020000000382E41697220202086
:1038C0002020202020000000392E41697220202075
:1038D0002020202020000000342E4558495420206C
:1038E0002020202020000000362E4558495420205A
:1038F0002020202020000000382E45584954202048
:103900002020202020000000392E45584954202036
:103910002020202020000000352E54455354202024
:10392000202020202000000031302E41697220200C
:10393000202020202000000031312E4169722020FB
:103940002020202020000000312E466F726D203193
:103950002020202020200000322E466F726D203162
:103960002020202020200000342E414C41524D20A8
:10397000202020202000000031322E4558495420BC
:103980002020202020000000352E455849542020BA
:103990002020202000000000392E455849542020C6
:1039A0002020202000000000342E544553542020B5
:1039B000202020200000000043616E63656C202001
:1039C0002020202000000000312E466F726D203133
:1039D0002020202020000000322E466F726D203201
:1039E0002020202020000000332E466F726D2033EF
:1039F0002020202020000000322E53505F524745E7
:103A00002020202020000000372E54524156454CE3
:103A10002020202020000000332E414354494F4EE7
:103A20002020202020000000352E414354494F4ED5
:103A30002020202020000000342E4354524C4552B8
:103A40002020202020000000312E4D494E5F56528C
:103A50002020202020000000322E4D41585F565279
:103A60002020202020000000322E526576657273DF
:103A70006520202020200000332E5377697463686E
:103A80002020202020000000436F6E6669726D20A8
:103A90002020202000000000372E52414D50A1C4AC
:103AA0002020202020000000382E52414D50A1C57A
:103AB0002020202020000000322E504F535F53570B
:103AC0003120202020000000332E504F535F5357E9
:103AD0003220202020000000312E4D494E5F5247F9
:103AE0004520202020000000322E4D494E5F5247D5
:103AF0004520202020000000322E4D41585F5247C3
:103B00004520202020000000332E4D41585F5052A8
:103B10004720202020000000352E414C41524D53BB
:103B20002020202000000000342E43484152414311
:103B30005420202020000000322E566F6C746167E4
:103B40006520202020000000322E526576657273B9
:103B50006520202020000000312E506F73697469A9
:103B60007665202020200000312E43757272656E2C
:103B70007420202020000000342E5350524E475F06
:103B80005932202020000000352E41444A5F4D4F1D
:103B90004445202020000000312E4C4541434B413C
:103BA0004745202020000000332E53454E535F52DE
:103BB0004745202020000000362E534855542D4FF5
:103BC0004646202020000000362E4D414E5F4144E5
:103BD0004A20202000000000332E41435441555418
:103BE0004F52202020000000362E5354524B5F438A
:103BF0005452202020000000332E5A45524F5F506F
:103C00004F53202020000000312E54494D455F4F76
:103C10005554202020000000352E54494D455F4F5B
:103C20005554202020000000342E5357315F41436B
:103C30005456202020000000352E5357325F414358
:103C40005456202020000000312E506F7369746993
:103C50007665202020000000332E544F4C5F4241F7
:103C60004E44202000000000312E5354414E444168
:103C70005244202000000000322E4155544F5F4135
:103C8000444A202000000000372E4354524C5F501D
:103C90004152202000000000312E41435455415430
:103CA0004F52202000000000332E41435455415410
:103CB0004F52202000000000342E4D455353414701
:103CC0004553202000000000322E534554504F49E8
:103CD0004E54202000000000382E414E4C475F4FCC
:103CE0005554202000000000372E50415220202043
:103CF0002020202020203E3E00000000B2CBB5A5B1
:103D0000A3BA20202020202020203E3E00000000DA
:103D1000352E414C41524D532020202020203E3E44
:103D200000000000362E4D414E5F41444A202020C5
:103D300020203E3E00000000312E5354414E4441AD
:103D40005244202020203E3E00000000332E4143FC
:103D5000545541544F52202020203E3E0000000088
:103D6000342E4D45535341474553202020203E3E9D
:103D700000000000322E534554504F494E5420202D
:103D800020203E3E00000000382E414E4C475F4F41
:103D90005554202020203E3E00000000325F312E8E
:103DA0005369676E616C202020203E3E00000000B9
:103DB000385F322E414354494F4E2020203E3E0072
:103DC000325F342E414354494F4E2020203E3E0066
:103DD000315F312E4143545541544F5220203E3ED5
:103DE00000000000365F322E4143544155544F527B
:103DF000203E3E00312E5369676E616C53797374B7
:103E00006500000000000000283E000800000020BF
:103E1000300B00006C010008C4410008300B00208A
:103E200038070000C80100081184A24A04000910E4
:103E30000102030406070809920123804043A041C0
:103E400022448220293113FC3C1B086804B20B4B2E
:103E50006401241A094213043EDB08C8206B0402E3
:103E6000203A0220DAA8206B2403203A0320DAB893
:103E7000207AA4203A0420DB183B806A04204A05FB
:103E800080E9206A05203A0620EA88806A06203AFE
:103E90000720EAD8806A07203A08201B98390909C8
:103EA000112032051B383D20D940136408232044DB
:103EB0001320053A0140DA78206BE409203A022009
:103EC000DA58204149203A03201AA8800914204AD0
:103ED00004E01920320C8B610AA829202309011A59
:103EE00074A01AF404A9405AC4A04B0901A04BE8DD
:103EF0003A40EB91114049A00B16083B2049A01A0B
:103F000028200912A04B0901A01A2860A9206B24BF
:103F1000098019C219200A17B8403A0620DA9840D9
:103F200089203A07200A17A8204A08C04A39C0CB7E
:103F3000610AC0230402134C3D0B1508D8403C0411
:103F40000201400A17F8204A02200915C03C040269
:103F500003200B14D838802306031A60800B140842
:103F60003C404B0603800A15B8804B0603800A17B5
:103F7000C82049800A1728603A04200A1738203AD6
:103F800005200A15E8C02308041A10C0CB983B404E
:103F900013E4094A202049C00B16F8392049C00A09
:103FA00017A84049C0DA38E0892049C0DA18C0892A
:103FB0002059C00917603A06200A1708604A07C04E
:103FC000123833080C13610A8208292023060513CE
:103FD000243DDB08484089203A01400A1758203A1E
:103FE0000220DAD8A05A64803C06050320DA782043
:103FF00089403A04200A1788203A05200A15E8C0AB
:10400000230C061BE83CC019200912404B0C06C0CB
:104010000A17682049C00A17582059C009172059A3
:10402000C009172049C00A1798203A06200A17A885
:10403000203A07200A17B8203A08200A17C8203A61
:1040400009200B162839203A0A200A1738203A0B83
:10405000201A7820320C13610AAA0820199F111324
:10406000883D0C1408D83A403C060701400A17F86E
:10407000203A0220DA182013A4094A20203A03200B
:104080000A1568A04C060704400917203A05200BC2
:1040900014E838C032031AD0C09AC84072C92B64E1
:1040A000012049C09AD820BACA2049C09AE820BA4B
:1040B000CB20211A9C600B10683B608B0402609A35
:1040C00038206960492049600B10783A6029202324
:1040D00002041AC0608B483C2081492049609A48FC
:1040E00060C920212AE44099C0814B640520294001
:1040F0000A1958201AB0400A1158608BA407409A38
:1041000068C0B9204A02201AB860414B610A0841D0
:104110002244192049C01A88400A110C2032011982
:104120000416E0101010E01A0F06420F5320F01290
:104130001F1660101090603E18141211100C12E03F
:10414000260C1011120E24806090160605041F0420
:104150001AF03612103E091111110F4812601A0F91
:104160000C120E1A303032706B1807603A0E184974
:104170000C3A0D308152105680601838C01D302C1A
:1041800023200154233C204CE0F8F8183C203C3F0D
:10419000012918500B0C34C404040484641C042C3E
:1041A000030C06CD311C1C7CFC01637C1C5C010FE4
:1041B0000718E12D0102030404200906070809027B
:0441C00004060800E9
:0400000508000215D8
:00000001FF
