:020000040800F2
:10000000B81200201D020008D1190008A51400082C
:100010006D180008A9070008D92600080000000094
:10002000000000000000000000000000211F000888
:10003000190D000800000000851C0008352000088C
:1000400037020008370200083702000837020008AC
:10005000370200083702000837020008370200089C
:10006000370200083702000837020008370200088C
:10007000370200083702000837020008370200087C
:10008000370200083702000837020008370200086C
:10009000370200083702000837020008370200085C
:1000A000370200083702000837020008370200084C
:1000B00037020008992000083702000837020008BC
:1000C000370200083702000837020008370200082C
:1000D00037020008792400083702000837020008B8
:1000E000370200083702000837020008370200080C
:1000F00037020008370200083702000837020008FC
:1001000037020008370200083702000837020008EB
:1001100037020008370200083702000837020008DB
:1001200037020008370200083702000837020008CB
:1001300000F002F800F063F80AA090E8000C824496
:100140008344AAF10107DA4501D100F058F8AFF273
:10015000090EBAE80F0013F0010F18BFFB1A43F0A5
:1001600001031847C84A0000E84A000010F8013BA4
:100170000A4413F0030408BF10F8014B1D1108BF17
:1001800010F8015B641E05D010F8016B641E01F8C5
:10019000016BF9D1002D15D010F8014B03F00C03C1
:1001A0000C2BA1EB04040ABF10F8013BA4EB831451
:1001B000A4EB032405F1010314F8016B5B1E01F8A5
:1001C000016BF9D5914238BF10F8013BD1D370478C
:1001D0000023002400250026103A28BF78C1FBD850
:1001E000520728BF30C148BF0B607047642900F038
:1001F0007780002070471FB51FBD10B510BD00F0FF
:1002000037F91146FFF7F7FF02F0E1FE00F055F96C
:1002100003B4FFF7F2FF03BC02F02EFB094880474E
:1002200009480047FEE7FEE7FEE7FEE7FEE7FEE7D8
:10023000FEE7FEE7FEE7FEE704480549054A064BF0
:10024000704700003920000831010008B80C002078
:10025000B8120020B80E0020B80E00207047000031
:100260000FB4044910B503AA029800F0D3F810BCEB
:100270005DF814FB380B00202DE9F0410E460446D2
:10028000002020622046E168884730B3252805D049
:10029000D4E901219047206A401CF2E7E16820463A
:1002A00000278847050018D0A5F14100192802D879
:1002B00020354FF400673246294620462760FFF775
:1002C00095FF40B1012804D0F61D26F00706083638
:1002D000D8E7361DD6E72846DAE7206ABDE8F08180
:1002E0002DE9F0410646002410687529314616A50F
:1002F00010D0AFF30080002802DA404213A507E0D7
:1003000031688A0701D512A502E0490704D511A575
:10031000012401E0AFF3008000210A2206F1240746
:1003200009E0B0FBF2FCB0FBF2F302FB1C00303042
:1003300078541846491C0028F3D123462A463046F3
:10034000BDE8F04100F00CB8000000002D000000F6
:100350002B00000020000000704770477047704776
:100360002DE9F0470D4699469246044600F12408CF
:100370000168880604D5E06921F01001216000E0E1
:100380000120A84201DD471B00E00027A1697A197E
:1003900002EB0900081AA0612078C00602D42046AA
:1003A000AFF30080002608E0D4E901211AF8060026
:1003B0009047206A401C761C20624E45F4DB207872
:1003C000C0060AD52046AFF3008006E0D4E901213B
:1003D00030209047206A401C2062381EA7F1010798
:1003E000F4DC07E0D4E9012118F805009047206A01
:1003F000401C2062281EA5F10105F3DC2046AFF366
:1004000000802078000602D50220BDE8F087012098
:10041000FBE70000074B70B50D467B4400F011F878
:100420000446284600F020F810B14FF0FF3070BDB0
:10043000204670BDA329000001694A1C02610878AA
:10044000704700B58FB0CDE9013100210591054914
:100450007944CDE9031011466846FFF70DFF0FB050
:1004600000BD0000E5FFFFFF007B00F0800070474B
:10047000754600F029F8AE4605006946534620F05F
:100480000700854618B020B5FFF7D6FEBDE820402E
:100490004FF000064FF000074FF000084FF0000B40
:1004A00021F00701AC46ACE8C009ACE8C009ACE8F3
:1004B000C009ACE8C0098D4670470446AFF3008020
:1004C0002046FFF7A5FE000000487047540C0020AE
:1004D00021B1826842F00102826003E0826822F06A
:1004E00001028260704721B1826842F480728260AA
:1004F00003E0826822F480728260704710B504467F
:100500001248844208D10121401501F0F9FB002175
:10051000601501F0F5FB17E00D48844208D1012178
:10052000001501F0EDFB0021201501F0E9FB0BE0C7
:100530000848844208D10121C80301F0E1FB0021F1
:100540004FF4004001F0DCFB10BD0000002401402E
:1005500000280140003C0140014600208A6802F06A
:1005600004020AB1012000E000207047014600208B
:100570008A6802F008020AB1012000E000207047FA
:1005800030B502460020002350680F4C20400D7902
:100590000C6844EA05242043506090680B4C2040CE
:1005A000D1E902542C434D7944EA4504204390603C
:1005B000D06A20F470000C7C641EE4B2234340EA4D
:1005C0000350D06230BD0000FFFEF0FFFDF7F1FFE9
:1005D000F0B504460D4600200021092D11DDE0682C
:1005E000A5F10A0606EB4607072606FA07F1884337
:1005F000A5F10A0606EB460603FA06F10843E06099
:100600000CE0206905EB4507072606FA07F1884349
:1006100005EB450603FA06F108432061072A0FDAC5
:10062000606B561E06EB86071F2606FA07F1884305
:10063000561E06EB860605FA06F10843606322E0C3
:100640000D2A0FDA206BD61F06EB86071F2606FA47
:1006500007F18843D61F06EB860605FA06F1084324
:10066000206310E0E06AA2F10D0606EB86071F2664
:1006700006FA07F18843A2F10D0606EB860605FA95
:1006800006F10843E062F0BD816841F00801816035
:10069000704721B1826842F4A002826003E0826860
:1006A00022F4A00282607047816841F004018160F9
:1006B0007047000000B587B0012140F2192001F019
:1006C0000FFB4FF4004001F0DFFA0320ADF8040007
:1006D00000208DF8070003208DF8060001A92F489F
:1006E00000F048FE3020ADF8040000208DF807002F
:1006F00003208DF8060001A9294800F03BFE294897
:10070000FFF7FCFE0020029001208DF80C008DF810
:100710000D00002005904FF46020049004208DF817
:10072000180002A91F48FFF72BFF0623012208210A
:100730001C48FFF74DFF0623022209211948FFF745
:1007400047FF062303220E211648FFF741FF062329
:1007500004220F211348FFF73BFF01211148FFF747
:10076000C2FE01210F48FFF7B3FE0E48FFF78CFFD2
:1007700000BF0C48FFF7FAFE0028FAD10948FFF73E
:1007800093FF00BF0748FFF7E7FE0028FAD10121D9
:100790000448FFF77EFF07B000BD0000000C0140D9
:1007A000001001400024014000BFFEE704460D4652
:1007B0000027002602F064F822460121002002F002
:1007C000F5F82AA21921022002F0F0F82BA2192133
:1007D000042002F0EBF82DA20121022002F0E6F83D
:1007E0002BA20121042002F0E1F83EE0002000F0FD
:1007F000A9FE0746012F2DD0022F04D0032F0ED0C3
:10080000042F30D117E021A20121022002F0CEF8FE
:100810001FA20121042002F0C9F80E2624E01CA228
:100820000121022002F0C2F818A20121042002F0E6
:10083000BDF80D2618E00D2E03D13146284601F0F3
:1008400001F901201349087040F2EE201249088096
:1008500001F00EF801200F49087040F2EE200E4919
:10086000088001F005F800BF00BFBFE743616E6379
:10087000656C20202020202000000000436F6E6661
:1008800069726D202020202000000000A1F60000E9
:10089000A1F50000140000201600002006460D46B9
:1008A00000240027D32D07D0DD2D0FD0A5F2213055
:1008B000B0B10A2828D11DE08E498F48006802F0A7
:1008C000FFFD804602F094FD84B21EE089498B480A
:1008D000006802F0F5FD804602F08AFD84B214E063
:1008E00084498748006802F0EBFD804602F080FDF5
:1008F00084B20AE07F498348006802F0E1FD804647
:1009000002F076FD84B200E000BF00BF01F0B8FF46
:1009100032460121002002F049F87BA26E21062018
:1009200002F00AFAE5E0032000F00CFE0746012F72
:100930007AD0022F04D0032F3FD0042F75D17BE053
:10094000D32D07D0DD2D17D0A5F22130D0B10A2844
:1009500030D129E067496948006802F0B1FD80465E
:10096000204602F065FD8146414602F075FE00D842
:1009700001E0601C84B21EE0FA2C00DB01E0601C88
:1009800084B218E05B495F48006802F099FD804638
:10099000204602F04DFD8146414602F05DFE00D842
:1009A00001E0601C84B206E0FA2C00DB01E0601C70
:1009B00084B200E000BF00BF8EE0D32D07D0DD2D54
:1009C0000BD0A5F22130D0B10A2832D11DE0142C71
:1009D00000DC01E0601E84B22CE046494648006815
:1009E00002F06EFD8046204602F022FD814641461F
:1009F00002F032FD00D801E0601E84B21AE0142C2F
:100A000000DC01E0601E84B214E03A493C48006812
:100A100002F056FD8046204602F00AFD814641461E
:100A200002F01AFD02D803E04FE054E0601E84B2E9
:100A300000E000BF00BF4FE0D32D07D0DD2D12D066
:100A4000A5F22130E0B10A2834D126E0204602F098
:100A5000EFFC2949086027492748006802F006FC96
:100A60002549086027E0204602F0E2FC234908609F
:100A700020492248006802F0F9FB204908601AE08A
:100A8000204602F0D5FC1E4908601A491C4800683F
:100A900002F0ECFB1A4908600DE0204602F0C8FCA9
:100AA0001849086013491748006802F0DFFB154930
:100AB000086000E000BF00BF01201449087040F248
:100AC000EE201349088000F0D3FE40F2EE201049DA
:100AD000088000F0CDFE00BF00BF0027204600F0D8
:100AE0003BFA0C48008840F25721884201D100F0BF
:100AF000DBFC18E700002041340000203800002013
:100B000060000020640000206D41000014000020FF
:100B1000160000203A0A002021B1026842F00102CA
:100B2000026004E002684FF6FE731A4002607047EC
:100B300010B50121084601F0B3F8114800F028F87B
:100B4000104811490860114848600020886004205E
:100B5000C8600020086180204861400088618000F2
:100B6000C86120200862C0014862002088620448F1
:100B700000F0B4F801210248FFF7CEFF10BD0000DD
:100B8000080002404C240140600B0020220B002092
:100B900001684FF6FE721140016000210160416062
:100BA0008160C1604B49884208D14A490839496887
:100BB00041F00F01474A083A51608AE04549143133
:100BC000884208D143490839496841F0F001414A57
:100BD000083A51607DE03F492831884208D13D49BB
:100BE0000839496841F470613A4A083A516070E046
:100BF00038493C31884208D136490839496841F4BE
:100C00007041344A083A516063E0324950318842B9
:100C100008D130490839496841F470212D4A083A11
:100C2000516056E02B496431884208D1294908397E
:100C3000496841F47001274A083A516049E0254962
:100C40007831884208D123490839496841F07061F8
:100C5000204A083A51603CE01F49884206D1011FF2
:100C6000096841F00F01021F116032E01A49143186
:100C7000884208D11849091F096841F0F001164A55
:100C8000121F116025E014492831884208D1124909
:100C9000091F096841F470610F4A121F116018E0C2
:100CA0000D493C31884208D10B49091F096841F4BC
:100CB0007041094A121F11600BE007495031884208
:100CC00007D10549091F096841F47021024A121F22
:100CD00011607047080002400804024010B500226D
:100CE000026847F6F0739A430C6A8B6823430C69D9
:100CF00023434C6923438C692343CC6923434C6AC7
:100D000023438C6A23431A430260CB6843600B6819
:100D100083604B68C36010BD704700002DE9F0414F
:100D20000446002700250026642094FBF0F0C7B29B
:100D3000642094FBF0F100FB11400A2190FBF1F0DC
:100D4000C5B2642094FBF0F100FB11400A2190FB36
:100D5000F1F201FB1200C6B2B4F57A7F06D100278A
:100D6000714A2321062001F0DBFE04E06F4A2321B3
:100D7000062001F0D5FE0A2F42D2DFE807F0050B6E
:100D800011171D23292F353B694A2A21062001F01E
:100D9000C7FE35E0644A2A21062001F0C1FE2FE09B
:100DA000644A2A21062001F0BBFE29E0624A2A217A
:100DB000062001F0B5FE23E0604A2A21062001F05A
:100DC000AFFE1DE05E4A2A21062001F0A9FE17E0D1
:100DD0005C4A2A21062001F0A3FE11E05A4A2A218A
:100DE000062001F09DFE0BE0584A2A21062001F062
:100DF00097FE05E0564A2A21062001F091FE00BF29
:100E000000BF0A2D42D2DFE805F0050B11171D23A4
:100E1000292F353B464A3121062001F081FE35E07D
:100E2000414A3121062001F07BFE2FE0414A312169
:100E3000062001F075FE29E03F4A3121062001F02D
:100E40006FFE23E03D4A3121062001F069FE1DE0DE
:100E50003B4A3121062001F063FE17E0394A312177
:100E6000062001F05DFE11E0374A3121062001F035
:100E700057FE0BE0354A3121062001F051FE05E016
:100E8000334A3121062001F04BFE00BF00BF0A2E7D
:100E900042D2DFE806F0050B11171D23292F353B41
:100EA000234A3C21062001F03BFE35E01E4A3C214E
:100EB000062001F035FE2FE01E4A3C21062001F0FD
:100EC0002FFE29E01C4A3C21062001F029FE23E0E8
:100ED0001A4A3C21062001F023FE1DE0184A3C215D
:100EE000062001F01DFE17E0164A3C21062001F005
:100EF00017FE11E0144A3C21062001F011FE0BE020
:100F0000124A3C21062001F00BFE05E0104A3C216C
:100F1000062001F005FE00BF00BF0E4A3721062063
:100F200001F0FEFDBDE8F0814A0A0020540B0020CC
:100F30003E0A0020560A0020620A00206E0A0020A5
:100F40007A0A0020860A0020920A00209E0A0020C9
:100F5000AA0A0020B60A00202DE9F0410446002725
:100F600000250026642094FBF0F0C7B2642094FBB7
:100F7000F0F100FB11400A2190FBF1F0C5B26420B2
:100F800094FBF0F100FB11400A2190FBF1F201FB10
:100F90001200C6B2B4F57A7F05D10027714A02204B
:100FA00001F016FE04E0704A0A21022001F010FE52
:100FB0000A2F42D2DFE807F0050B11171D23292F56
:100FC000353B6A4A1E21022001F002FE35E0654AE7
:100FD0001E21022001F0FCFD2FE0654A1E210220A7
:100FE00001F0F6FD29E0634A1E21022001F0F0FD28
:100FF00023E0614A1E21022001F0EAFD1DE05F4A64
:101000001E21022001F0E4FD17E05D4A1E210220AE
:1010100001F0DEFD11E05B4A1E21022001F0D8FD47
:101020000BE0594A1E21022001F0D2FD05E0574A8B
:101030001E21022001F0CCFD00BF00BF0A2D42D2CC
:10104000DFE805F0050B11171D23292F353B474A13
:101050003221022001F0BCFD35E0424A322102205B
:1010600001F0B6FD2FE0424A3221022001F0B0FD2E
:1010700029E0404A3221022001F0AAFD23E03E4A45
:101080003221022001F0A4FD1DE03C4A3221022061
:1010900001F09EFD17E03A4A3221022001F098FD4E
:1010A00011E0384A3221022001F092FD0BE0364A6D
:1010B0003221022001F08CFD05E0344A3221022069
:1010C00001F086FD00BF00BF0A2E42D2DFE806F025
:1010D000050B11171D23292F353B244A52210220CD
:1010E00001F076FD35E01F4A5221022001F070FD2B
:1010F0002FE01F4A5221022001F06AFD29E01D4A1B
:101100005221022001F064FD23E01B4A52210220FB
:1011100001F05EFD1DE0194A5221022001F058FD48
:1011200017E0174A5221022001F052FD11E0154A42
:101130005221022001F04CFD0BE0134A5221022003
:1011400001F046FD05E0114A5221022001F040FD68
:1011500000BF00BF0E4A4221022001F039FDBDE868
:10116000F08100000A4300082A460008BA4200083D
:101170005A430008AA430008FA4300084A440008FA
:101180009A440008EA4400083A4500088A450008E5
:10119000DA45000870B53A4800680578032D01DD8E
:1011A000032000E02846064636480078A84215DBB2
:1011B00034480078FF2802D10020324908703148B5
:1011C0000078A84203DB00202E49087006E02D4875
:1011D0000078002802DC681E2A49087001F050FBE4
:1011E0002748006801214268002001F0DFFB254804
:1011F0000078032822DB002418E022490978C91E60
:10120000631C19441E4B1B6803EB41118A68611C67
:101210004906080E192101F0C9FB611C4906080E98
:1012200019A2012101F0C2FB601CC4B2B442E4DB8C
:1012300016A20121062001F0B9FB20E0002413E0F2
:101240000F49096801EB44118A68611C4906080EC0
:10125000192101F0ABFB611C4906080E0AA201210D
:1012600001F0A4FB601CC4B2B442E9DB0549097873
:10127000491C4906080E05A2012101F097FB70BD2B
:101280006C00002074000020A1F50000A1F6000011
:101290000D48008840F2E731884209D10B480088A8
:1012A000401C0A4908800A480088401C08490880F8
:1012B00006480088B0F5167F05D100200349088054
:1012C0000120034908807047380A00203A0A0020AC
:1012D0003C0A002008B50121202000F001FD4FF458
:1012E0007E40ADF8000010208DF8030003208DF83B
:1012F000020069460C4800F03DF84FF47E410A4870
:1013000000F0CCF84FF48040ADF8000010208DF8CC
:1013100003006946044800F02DF84FF4804102486C
:1013200000F0BCF808BD00000014014008B54FF4FF
:101330008040ADF8000014208DF8030003208DF8E4
:1013400002006946014800F015F808BD001401408C
:1013500008B54FF48040ADF8000003208DF802007E
:1013600028208DF803006946014800F003F808BD05
:10137000001401402DE9F04102460025002600201E
:1013800000230024002791F803C00CF00F0591F80A
:1013900003C00CF0100CBCF1000F03D091F802C098
:1013A0004CEA050591F800C0BCF1000F31D014687B
:1013B00000202BE04FF0010C0CFA00F3B1F800C054
:1013C0000CEA03069E4220D183004FF00F0C0CFA6A
:1013D00003F7BC4305FA03FC4CEA040491F803C08C
:1013E000BCF1280F06D14FF0010C0CFA00FCC2F83A
:1013F00014C00AE091F803C0BCF1480F05D14FF0CA
:10140000010C0CFA00FCC2F810C0401C0828D1D313
:101410001460B1F800C0BCF1FF0F34DD5468002047
:101420002EE000F1080C4FF0010808FA0CF3B1F8B7
:1014300000C00CEA03069E4221D183004FF00F0C3E
:101440000CFA03F7BC4305FA03FC4CEA040491F8D8
:1014500003C0BCF1280F05D100F1080C08FA0CF804
:10146000C2F8148091F803C0BCF1480F07D100F115
:10147000080C4FF0010808FA0CF8C2F81080401C64
:101480000828CED35460BDE8F0810246002093685E
:101490000B400BB1012000E0002070474161704714
:1014A0000161704700BFFEE701F0EAF90B4801F067
:1014B0005BFA0B4801780BA0FEF7D2FE0DE0104856
:1014C0000078012801D100F0D3F90E480088FFF719
:1014D00043FD0C480088FFF721FCF0E7BA3A00080A
:1014E00030000020534554504F494E545F50323025
:1014F0005F5369676E616C3A25640D0A0000000055
:10150000140000203A0A002008B50121442000F010
:10151000E7FB1C20ADF8000048208DF80300694669
:101520000648FFF727FF0120ADF8000028208DF8BE
:10153000030069460248FFF71DFF08BD001801407F
:101540000008014010B5044614B101204649087056
:101550004548007800286AD04448007801280BD01C
:1015600043480078012807D042480078012803D07A
:101570004148007801285AD1032C12D13C48007808
:10158000012805D13D4A2A21062001F04FFB08E041
:1015900038480078012804D1394A4B21062001F04F
:1015A00045FB384800882D2803DC364800881E2873
:1015B00017DA354800882D2803DC334800881E28B8
:1015C0000FDA324800882D2803DC304800881E28B6
:1015D00007DA2F4800882D2844DC2D4800881E2873
:1015E00040DB2148047021480078012804D1002004
:1015F00024490880012010BD1D480078012804D12D
:101600000020214908800220F5E71A4800780128C7
:1016100004D100201D4908800320ECE7164800781B
:1016200001281FD100201A4908800420E3E70F4851
:101630000078B8B90E480078A0B90E48007888B98B
:101640000D48007870B9012007490870032C09D1B2
:10165000104A2A21062001F0E9FA0F4A4B21062000
:1016600001F0E4FA0020C6E7240000201400002066
:10167000180000201C00002020000020DA0A0020B2
:101680000A0B0020160000201A0000201E00002077
:1016900022000020C20A0020F20A002010B5604893
:1016A0000088142190FBF1F201FB1200002879D18F
:1016B00004215C48FFF7E9FE08BB5948008828214F
:1016C00090FBF1F201FB1200F0B904215548FFF73D
:1016D000DCFE70B90120544908700020534908808D
:1016E00001205349088053480088401C5149088014
:1016F0000AE000204C4908704E49088004E00020B0
:10170000494908704B49088001214B48FFF7BDFE4D
:10171000012821D1424800880A2190FBF1F201FB07
:101720001200F0B901214448FFF7AFFE01280DD1A6
:101730004249087000203D49088001203C4908804A
:101740003F480088401C3E4908800AE000203B4991
:1017500008703B49088004E0002038490870384987
:10176000088008212F48FFF790FE10BB2C48008806
:101770000A2190FBF1F201FB1200F8B90821294877
:10178000FFF783FE78B901202E4908700020274911
:1017900008800120264908802B480088401C2A49DF
:1017A00008800BE03BE000202649087026490880AD
:1017B00004E00020234908702349088010211948BB
:1017C000FFF763FE08BB16480088282190FBF1F262
:1017D00001FB1200F0B910211248FFF756FE70B954
:1017E00001201A4908700020104908800120104982
:1017F000088017480088401C154908800AE000202E
:10180000124908701249088004E000200F4908704E
:101810000F49088002480088401C0149088010BD1B
:10182000380A002000180140140000203A0A002065
:101830003C0A00201600002000080140180000208B
:101840001A0000201C0000201E00002020000020A4
:1018500022000020044801F087F84FF47A7001F06C
:101860005DF8FFF721FE0000BA36000800BFFEE772
:1018700000249FE05048007801286ED14F4800882E
:1018800040F2EE218842F4D100204B490870FFF766
:1018900081FC8CE00020FFF755FE0446012C60D04F
:1018A000022C04D0032C0AD0042C76D10FE044483B
:1018B0000078401E42490870FFF76CFC6EE040481B
:1018C0000078401C3E490870FFF764FC66E03D4824
:1018D00000683B49097800EB4110007B0B2802D0DF
:1018E0000C283BD11AE0374800683549097800EBED
:1018F0004110806988B13348006833490860314835
:1019000000682F49097800EB411080692D49086073
:1019100000202B490870FFF73DFC20E029480068B3
:101920002749097800EB41100069A8B1254B1B68D5
:10193000234D2D7803EB4513998A224B1B68204DCC
:101940002D7803EB451398681E4B1B681C4D2D78B2
:1019500003EB45131A69904701E029E000BF00BF7F
:101960001CE019480068A8B11648006814490978B5
:1019700000EB411040781249087013480068114983
:10198000086008460068C0690F490860FFF702FC5C
:1019900002E002E0FFF788FD00E000BF00BF0B4857
:1019A000008840F25721884201D1FFF77DFD71E7A1
:1019B000FFF77AFD5EE7000014000020160000200B
:1019C000740000206C000020700000203A0A002003
:1019D0007047000070B5002100230F22C47804B3C3
:1019E000154C246804F4E064C4F5E064210AC1F1F4
:1019F0000403CA40447804FA03F184781440214374
:101A000009010E4C0678A155047804F01F05012445
:101A1000AC4005786D11AD0005F1E025C5F8004139
:101A200009E0047804F01F050124AC40044D067859
:101A3000761145F8264070BD0CED00E000E400E0B2
:101A400080E100E040F2A513C21A984275D041DC53
:101A5000E72873D01CDC832871D00CDC67286FD09A
:101A600004DC65286DD066286CD18AE06F286AD0C6
:101A70007928F9D193E0CB2871D004DCC9286FD044
:101A8000CA28F1D19BE0D3286BD0DD28ECD19FE0B0
:101A900040F22D13C21A984270D00EDCFB286ED093
:101AA00004DCF1286CD0F228DED19AE0A0F2051215
:101AB000002A6ED00A2AD7D19FE0152A6AD004DC0A
:101AC0000A2A68D0142ACFD19AE0642A72D06E2AEA
:101AD000CAD198E0C82A6ED01CDC6E2A6CD00CDC0F
:101AE000502A6AD004DC0A2A68D0142ABCD18DE0BE
:101AF0005A2A6ED0642AB7D18CE08C2A6AD004DCD2
:101B0000782A68D0822A1DD187E0B42A70D0BE2AF4
:101B100018D185E0B2F5967F6BD015DCDC2A69D050
:101B200004DCC92A67D0D22A0CD185E0B2F58C7FBB
:101B30006FD0B2F5917F05D181E065E04CE031E0F6
:101B400023E017E077E027E0B2F5C37F7BD009DC24
:101B5000B2F59B7F75D0B2F5BE7F7DD172E032E0E9
:101B600024E034E0B2F5C87F6ED0A2F29112002AD0
:101B700072D16DE001223A4B1A706EE03EE034E023
:101B80002BE00222364B1A7067E00322344B1A70A6
:101B900063E031E035E032E0324B19705DE0324B0A
:101BA00019705AE00022314B1A7056E00122304B76
:101BB0001A7052E026E034E02DE028E025E0022211
:101BC0002B4B1A7049E00322294B1A7045E044E080
:101BD00043E01DE022E01FE03FE00122254B1A70A8
:101BE0003BE00222234B1A7037E0234B197034E09C
:101BF00015E025E021E018E02FE02EE02DE02CE0BC
:101C00002BE02AE029E028E027E026E025E024E098
:101C100023E013E021E020E01FE01EE01DE01CE0D7
:101C20001BE00122154B1A7017E00222134B1A70A9
:101C300013E008E005E00FE00FE00EE00DE00CE03F
:101C40000BE00AE009E008E001220D4B1A7004E005
:101C500002220B4B1A7000E000BF00BF704700006B
:101C60002C0000202D0000202E0000202F0000203E
:101C7000300000203D0000203E00002058000020E1
:101C8000680000207047000001460020034A5068A9
:101C900020F44040084350607047000000100240AC
:101CA00029B1064A52690243044B5A6104E0034ACF
:101CB00052698243014B5A61704700000010024094
:101CC00029B1064AD2690243044BDA6104E0034AAF
:101CD000D2698243014BDA61704700000010024074
:101CE00029B1064A92690243044B9A6104E0034A0F
:101CF00092698243014B9A617047000000100240D4
:101D000029B1064AD2680243044BDA6004E0034A70
:101D1000D2688243014BDA60704700000010024035
:101D20000F48006840F001000D490860084640680F
:101D30000C4908400A494860084600680A490840BA
:101D4000074908600846006820F4802008600846BB
:101D5000406820F4FE0048604FF41F008860704720
:101D6000001002400000FFF8FFFFF6FE30B5002132
:101D70000022002400232D4D6D6805F00C0121B1D7
:101D8000042905D0082923D105E0294D056022E06A
:101D9000274D05601FE0254D6D6805F47012234D39
:101DA0006D6805F48034022505EB92421CB9214D83
:101DB000554305600BE01D4D6D6805F400351DB100
:101DC0001C4D5543056002E0194D5543056002E086
:101DD000174D056000BF00BF144D6D6805F0F001A0
:101DE0000909154D6B5C0568DD4045600F4D6D6858
:101DF00005F4E061090A104D6B5C4568DD408560C3
:101E00000A4D6D6805F46051C90A0B4D6B5C45685D
:101E1000DD40C560054D6D6805F44041890B074DF7
:101E20006B5CC568B5FBF3F5056130BD0010024081
:101E300000127A0000093D003E0B00204E0B0020EE
:101E400010B501460022002300204A11012A02D1C8
:101E5000094C236806E0022A02D1074C236A01E0FC
:101E6000054C636A01F01F02012494401C400CB130
:101E7000012000E0002010BD001002400248406830
:101E800000F00C00704700000010024001460020E6
:101E9000034A506820F0F00008435060704700008B
:101EA00000100240014908607047000000004242F3
:101EB00001460020034A506820F4E0600843506067
:101EC000704700000010024001460020034A50689D
:101ED00020F4605040EAC10050607047001002409A
:101EE0000149086670470000000042420246002097
:101EF000044B586820F47C1042EA01031843014B5C
:101F0000586070470010024001460020034A5068A4
:101F100020F00300084350607047000000100240AA
:101F2000704710B500F002F810BD00000CB500209D
:101F3000019000903348006840F4803031490860D7
:101F400000BF3048006800F4003000900198401C49
:101F50000190009818B90198B0F5A06FF1D1294807
:101F6000006800F4003010B10120009001E0002072
:101F700000900098012843D12348006840F01000E9
:101F8000214908600846006820F003000860084600
:101F9000006840F0020008601A484068194948602B
:101FA0000846406848600846406840F480604860E1
:101FB0000846406820F47C1048600846406840F4B9
:101FC000E81048600846006840F08070086000BF74
:101FD0000C48006800F000700028F9D009484068FB
:101FE00020F00300074948600846406840F00200BE
:101FF000486000BF0348406800F00C000828F9D191
:102000000CBD00000010024000200240042808D14E
:102010004FF0E021096941F004014FF0E022116125
:1020200007E04FF0E021096921F004014FF0E022C0
:10203000116170477047000010B51348006840F008
:1020400001001149086008464068104908400E49DF
:102050004860084600680E4908400B490860084679
:10206000006820F4802008600846406820F4FE00E4
:1020700048604FF41F008860FFF753FF4FF0006087
:102080000449086010BD0000001002400000FFF885
:10209000FFFFF6FE08ED00E010B5FFF7FFFAFFF7CF
:1020A000F7F801210B4800F0D5F888B10A480088FC
:1020B000B0F57A7F03DB01200749088004E0064879
:1020C0000088401C044908800121024800F0B3F850
:1020D00010BD000000040040380A00207FB505460E
:1020E0000C4601210220FFF7EBFDADF80850ADF8DA
:1020F00004400020ADF80A00ADF8060001A90E4822
:1021000000F068F9012211460B4800F0B4F81D20D8
:102110008DF8000006208DF8010000208DF80200E7
:1021200001208DF803006846FFF754FC01210248A6
:1021300000F084F87FBD00000004004000B589B0C5
:1021400001210420FFF7BCFD01210820FFF7C8FD95
:1021500001210846FFF7C4FD4FF44070ADF82000A0
:1021600018208DF8230003208DF8220008A92248AA
:10217000FFF700F940F2E730ADF8180040F23F10E9
:10218000ADF814000020ADF81A00ADF8160005A94E
:102190001A4800F01FF96020ADF804000120ADF8E6
:1021A00006004FF47A70ADF80A000020ADF80C007C
:1021B00001A9124800F068F80821104800F0B4F8AE
:1021C00001A90E4800F0BAF808210C4800F0F4F814
:1021D00000220821094800F01FF800220C210748BE
:1021E00000F01AF80121054800F00AF8012103481F
:1021F00000F024F809B000BD000C014000080040C8
:1022000021B1028842F08002028004E002884FF689
:102210007F731A400280704730B5002301248C4040
:10222000A3B2048C9C430484048C02FA01F5ADB281
:102230002C43048430BDCA430282704721B1028816
:1022400042F00102028004E002884FF6FE731A4059
:102250000280704730B50246002000230024158A12
:1022600005EA0103958905EA010413B10CB10120C7
:1022700000E0002030BD1AB183890B43838102E066
:1022800083898B438381704770B50024002200232B
:10229000058C4FF6FF6635400584028C8388848B5D
:1022A0004FF68F752C404FF6FC752C400D882C4353
:1022B0004FF6FF552A400D894FF6FF7606EA0525B1
:1022C0002A434D8806EA05252A43154DA84202D027
:1022D000144DA8421DD14FF2FF752A404D894FF68B
:1022E000FF7606EA05252A434FF6FF352A408D88FA
:1022F00006EA05252A434EF6FF752B404DF6FF757D
:102300002B408D8906EA05152B43CD8906EA051574
:102310002B4383808483CD888587028470BD000031
:10232000002C0140003401400A460021818B4FF609
:10233000F7731940114381837047000070B5002284
:1023400000230024058C4EF6FF7635400584038C6F
:102350008488828B48F6FF752A404FF6FF452A4055
:102360000D884FF6FF7606EA05252A434DF6FF75E0
:102370002B400D8906EA05352B434D8806EA0535C5
:102380002B430B4DA84202D00A4DA84208D14BF670
:10239000FF752C408D894FF6FF7606EA85152C4394
:1023A00084808283CD88A0F84050038470BD0000F3
:1023B000002C0140003401400A460021818B4FF27D
:1023C000FF7319404FF6FF7303EA02231943818319
:1023D00070470000002202881D4B98420ED01D4B12
:1023E00098420BD0B0F1804F08D01B4B984205D0DB
:1023F0001A4B984202D01A4B984204D14FF68F7371
:102400001A404B881A43174B984207D0164B9842F4
:1024100004D04FF6FF431A40CB881A4302808B88C2
:1024200083850B8803850A4B98420BD0094B984251
:1024300008D00E4B984205D00D4B984202D00D4B60
:10244000984201D10B7A03860123838270470000F2
:10245000002C01400034014000040040000800400E
:10246000000C0040001000400014004000400140FB
:10247000004401400048014010B540F225511D487C
:1024800000F04AF810B31B4800F002F9C4B21A4831
:10249000008800F40040C8B91748008800F4804064
:1024A00060B10A2C03D000201349088020E01248B4
:1024B000008840F400401049088019E00D2C06D136
:1024C0000D48008840F480400B49088010E00A481D
:1024D0000088C0F30D0009490C5407480088401CCF
:1024E0000549088008460088C72801DD00200880CB
:1024F00010BD0000003801403C0B00208C0B002078
:1025000021B1828942F40052828104E082894DF631
:10251000FF731A408281704770B502460024002381
:102520000025002040F66A16B14200D100BFC1F379
:10253000421501F01F03012606FA03F3012D02D113
:102540009689334006E0022D02D1168A334001E01D
:10255000968A33400C12012606FA04F41688344099
:1025600013B10CB1012000E0002070BDF0B50346AE
:10257000002400260025002040F66A17B94200D149
:1025800000BF1846C1F3421401F01F06012707FAE5
:1025900006F5012C01D10C3004E0022C01D11030E1
:1025A00000E014301AB107682F43076002E00768A3
:1025B000AF430760F0BD00002DE9F04786B0054647
:1025C0000E460024A24600BFA1460027B08900B1F4
:1025D00000BF2F462C8A4CF6FF700440F08804435D
:1025E0002C82AC894EF6F3100440B0883189084340
:1025F000718908430443AC81AC8A4FF6FF40044024
:10260000B0890443AC8201A8FFF7B0FB1F488742A2
:1026100002D1DDF810A001E0DDF80CA0A88900F4DB
:10262000004040B10AEBCA0000EB0A1031684900D3
:10263000B0FBF1F807E00AEBCA0000EB0A103168C2
:102640008900B0FBF1F86420B8FBF0F00401200928
:10265000642101FB1089A88900F4004040B13220B8
:1026600000EBC900B0FBF1F000F00700044308E004
:10267000322000EB09106421B0FBF1F000F00F00F4
:1026800004432C8106B0BDE8F0870000003801400B
:1026900001468888C0F308007047000070B5044602
:1026A0000D460A4800680A49097800EB4110407855
:1026B0000749087007480068044908600846006830
:1026C000C06904490860FEF765FD70BD6C0000201C
:1026D000740000207000002000BFFEE706460D4693
:1026E00000240027A5F2592010B10A2814D109E0CE
:1026F0005A495B48006800F0E3FE804600F078FE2F
:1027000084B20AE055495748006800F0D9FE804677
:1027100000F06EFE84B200E000BF00BF00F0B0F831
:1027200032460121002000F041F94FA26E2106201F
:1027300000F002FB90E00320FEF704FF0746012FA4
:1027400076D0022F04D0032F27D0042F76D145E076
:10275000A5F2592020B10A2814D028281AD118E04F
:102760003E494048006800F0ABFE8046204600F03D
:102770005FFE8146414600F06FFF00D801E0601C1B
:1027800084B208E0B4F57A7F00DB01E0601C84B21B
:1027900001E000E000BF00BF51E0A5F2592010B1F8
:1027A0000A2818D105E0002C00DC01E0601E84B28C
:1027B00012E02A492A48006800F082FE804620463E
:1027C00000F036FE8146414600F046FE00D801E0AA
:1027D000601E84B200E000BF00BF30E0D32D02D005
:1027E000DD2D1AD10CE0204600F022FE1C490860C5
:1027F0001A491B48006800F039FD194908600DE0CE
:10280000204600F015FE1749086014491548006875
:1028100000F02CFD1349086000E000BF00BF01205C
:102820001249087040F2EE2011490880FFF720F8A5
:1028300040F2EE200E490880FFF71AF800BF00BFF3
:1028400000272046FEF788FB0A48008840F25721FF
:10285000884201D1FEF728FE6DE70000000020410C
:10286000500000205400002025000000140000202B
:10287000160000203A0A0020014600BF7047000001
:1028800070B54FF400511348FEF708FE4FF40041B5
:102890001048FEF705FE002414E004F1B00000F03B
:1028A00015FC002000F012FC102000F00FFC0025A9
:1028B00004E0002000F044FC681CC5B2802DF8DB69
:1028C000601CC4B2082CE8DB4FF400510148FEF74D
:1028D000E7FD70BD0014014010B56FF00400FFF774
:1028E00095FB0A4800680A49B0FBF1F009490870F5
:1028F0000846007800EB4001C1EBC0104FF6FF71B5
:1029000001EAC0000449088010BD0000000000205A
:1029100000127A00320B0020340B00200146114ACD
:1029200012884A434FF0E0235A6100229A611A4606
:10293000126942F001021A6100BF4FF0E0221069F3
:1029400000F001021AB100F48032002AF5D04FF0F5
:10295000E022126922F001024FF0E0231A61002206
:102960009A617047340B002070B504464FF4005153
:102970000D48FEF793FD00250DE0E9B2002000F0C0
:1029800015FB002604E0207800F0DAFB641C761CBE
:10299000802EF8D36D1C082DEFD34FF40051024860
:1029A000FEF77EFD70BD0000001401402DE9F047E8
:1029B0008EB082460E4615460024A6E0285DB0285B
:1029C00036DB285DF72833DC601C285CA1282FDB70
:1029D000285DB0385E2148434F490860601C285C80
:1029E00000F2AD20096808444B49086008460068B9
:1029F0004001086008460068C0F3074708460088A1
:102A0000C0F30728084690F80090202006AB4A46FD
:102A100041460090384600F017FA06AA3146504663
:102A200000F0A8F8A01CC4B206F11000C6B26CE019
:102A3000285DA12835DB285DA32832DC601C285CDA
:102A4000A1282EDB285DA1385E2148433249086069
:102A5000601C285CA138096808442F4908600846B2
:102A600000684001086008460068C0F30747084650
:102A70000088C0F30728084690F80090202006AB95
:102A80004A4641460090384600F0DEF906AA314633
:102A9000504600F06FF8A01CC4B206F11000C6B298
:102AA00033E0285D20282EDB285D7E282BDC285D86
:102AB0002038194908600846006800010860084687
:102AC0000068164908441449086008460068C0F3C5
:102AD000074708460088C0F30728084690F800908A
:102AE000102002AB4A4641460090384600F0ACF94F
:102AF00002AA3146504600F0F5F8601CC4B206F157
:102B00000800C6B201E0601CC4B2285D00283FF78F
:102B100055AF0EB0BDE8F0872800002080CF03003D
:102B20002DE9F04104460E4615464FF40051104879
:102B3000FEF7B4FC4FF002080FE0E1B2304600F0BF
:102B400035FA002704E0287800F0FAFA6D1C7F1CA3
:102B5000062FF8D3641CA8F10108B8F1000FECD1DE
:102B60004FF400510248FEF79BFCBDE8F0810000E5
:102B7000001401402DE9F04104460E4615464FF47D
:102B800000511248FEF78AFC4FF400410F48FEF74F
:102B900087FC4FF002080FE0E1B2F0B200F006FA55
:102BA000002704E0287800F0CBFA6D1C7F1C102F62
:102BB000F8D3641CA8F10108B8F1000FECD14FF470
:102BC00000510248FEF76CFCBDE8F08100140140A2
:102BD0002DE9F04104460E4615464FF400511248C7
:102BE000FEF75CFC4FF400410F48FEF759FC4FF034
:102BF00004080FE0E1B2F0B200F0D8F9002704E0D9
:102C0000287800F09DFA6D1C7F1C102FF8D3641CEF
:102C1000A8F10108B8F1000FECD14FF400510248BF
:102C2000FEF73EFCBDE8F081001401402DE9F041C3
:102C300004460E4615464FF400511048FEF72EFC90
:102C40004FF002080FE0E1B2304600F0AFF9002784
:102C500004E0287800F074FA6D1C7F1C0C2FF8D368
:102C6000641CA8F10108B8F1000FECD14FF4005139
:102C70000248FEF715FCBDE8F08100000014014099
:102C80002DE9F04706460C46154606F1AF0000F068
:102C9000FF084FF400511248FEF700FC04F00F004B
:102CA000401E00F0FF09102000EB141A404600F00F
:102CB0000DFA504600F00AFA484600F007FA0027DD
:102CC00004E0287800F03CFA6D1C7F1C062FF8D336
:102CD0004FF400510248FEF7E3FBBDE8F087000027
:102CE000001401402DE9F04104460E4615464FF40C
:102CF00000511048FEF7D2FB4FF002080FE0E1B29E
:102D0000304600F053F9002704E0287800F018FA64
:102D10006D1C7F1C082FF8D3641CA8F10108B8F1C2
:102D2000000FECD14FF400510248FEF7B9FBBDE8AB
:102D3000F0810000001401402DE9FE4F82460E464E
:102D40001546002432E0285D20282DDB285D7E28F2
:102D50002ADC285D20381849086008460068C00051
:102D60000860084600681549084413490860084689
:102D70000068C0F3074708460088C0F307280846E4
:102D800090F80090082001AB4A4641460090384632
:102D900000F05AF801AA31465046FFF771FF601C57
:102DA000C4B2B01DC6B201E0601CC4B2285D0028E8
:102DB000C9DCBDE8FE8F000028000020C0BF030072
:102DC00000BF054A128802F04002002AF9D0C2B2C0
:102DD000014B1B1D1A8070470038014070B500245C
:102DE0004FF400711748FEF75BFB00BFFEF7B0FA27
:102DF000002520E04FF480411248FEF751FB00BF50
:102E00004FF400710F48FEF749FB00BF6006040E47
:102E10004FF480410B48FEF738FB18B1601CC4B278
:102E200000BF01E0E4B200BF4FF400710548FEF7B7
:102E300037FB681CC5B2082DDCDBFEF777FA2046AD
:102E400070BD0000001401402DE9F04780460D469A
:102E500016461F46DDF820904FF400411448FEF757
:102E60001DFB4FF400511248FEF71AFB4FF400719E
:102E70000F48FEF713FB032000F0FEF8404600F079
:102E8000FBF8284600F0F8F8304600F0F5F800248A
:102E900004E0FFF7A3FF3855601CC4B24C45F8DBD3
:102EA0004FF400410248FEF7FBFABDE8F08700004E
:102EB0000014014010B54FF4C870FFF72FFDFEF766
:102EC00009FA4FF400613848FEF7E8FA4FF4C87089
:102ED000FFF724FD4FF400613348FEF7E1FA4FF4A9
:102EE00000513148FEF7DAFA4FF400412E48FEF760
:102EF000D7FAAE2000F0EAF8202000F0E7F8102022
:102F000000F0E4F8B02000F0E1F8C82000F0DEF8AE
:102F1000002000F0DBF8102000F0D8F8402000F08E
:102F2000D5F8812000F0D2F8FF2000F0CFF8A120E2
:102F300000F0CCF8A62000F0C9F8A82000F0C6F8F0
:102F40003F2000F0C3F8A42000F0C0F8D32000F028
:102F5000BDF8002000F0BAF8D52000F0B7F8F02056
:102F600000F0B4F8D92000F0B1F8222000F0AEF85B
:102F7000DA2000F0ABF8122000F0A8F8DB2000F017
:102F8000A5F8202000F0A2F88D2000F09FF8142072
:102F900000F09CF8AF2000F099F84FF4005102487F
:102FA000FEF77EFA10BD00000014014070B5044623
:102FB0000D4605F1B00000F089F8102141EA141027
:102FC00000F084F804F00F0000F080F870BD00BF3E
:102FD00000F01CF8FFF780FC4FF4165000F0EAF800
:102FE000FEF792FA40F27F210920FFF777F8FFF70A
:102FF00061FFFDF79DFDFDF75DFBFFF79FF8FFF714
:103000003FFC01E0FEF726FCFCE7000010B5FEF7F0
:1030100087FE0120FEF746FF00BF2120FEF710FFCC
:103020000028FAD00020FEF731FF4FF48060FEF751
:103030003FFF0020FEF748FF4FF460110020FEF72D
:1030400055FF0C48006840F032000A490860012032
:10305000FEF746FF00BF3920FEF7F2FE0028FAD047
:103060000220FEF751FF00BFFEF708FF0828FBD142
:1030700010BD00000020024070B5044600251FE08E
:1030800004F0800030B14FF480610F48FEF708FA79
:1030900000BF05E04FF480610B48FEF7FFF900BF69
:1030A0006006040E4FF400710748FEF7F7F900BF01
:1030B0004FF400710448FEF7F3F900BF681CC5B275
:1030C000082DDDDB70BD00000014014070B5044622
:1030D0004FF480511948FEF7E1F94FF400511748B9
:1030E000FEF7DCF900251BE04FF400711348FEF7F2
:1030F000D5F904F0800028B14FF480610F48FEF745
:10310000CFF904E04FF480610C48FEF7C7F94FF4A3
:1031100000710A48FEF7C4F900BF6400681CC5B21C
:10312000082DE1DB4FF480510448FEF7B9F94FF464
:1031300000510248FEF7B4F970BD000000140140D0
:1031400070B504464FF480511948FEF7A9F94FF4C1
:1031500000511748FEF7A2F900251BE04FF400715B
:103160001348FEF79BF904F0800028B14FF480610A
:103170000F48FEF795F904E04FF480610C48FEF724
:103180008DF94FF400710A48FEF78AF900BF640018
:10319000681CC5B2082DE1DB4FF480510448FEF7EE
:1031A0007FF94FF400510248FEF77AF970BD000034
:1031B0000014014010B586B00446012144F2040019
:1031C000FEF78EFD4FF40070ADF8140003208DF86B
:1031D000160018208DF8170005A91C48FEF7CAF83C
:1031E0004FF48060ADF8140004208DF8170005A995
:1031F0001648FEF7BFF825208DF8000003208DF853
:1032000001008DF8020001208DF803006846FEF7EA
:10321000E1FB01940020ADF80800ADF80A00ADF81C
:103220000C00ADF810000C20ADF80E0001A9084804
:10323000FFF7C2F9012240F225510548FFF796F940
:1032400001210348FFF75CF906B010BD00080140FA
:1032500000380140401058BFC0F14040491058BFED
:10326000C1F140418142EFF3008070474FF47F0C81
:103270001CEAD0121EBF1CEAD11392EA0C0F93EA8B
:103280000C0F00F0858090EA010F48BF42F4807275
:1032900040F4000C41F400002CF07F4120F07F400E
:1032A00000B58142A2EB03020FF2081CACEB504EBA
:1032B000C0F100009EF800E04FEA4E0E00FB0EFC4D
:1032C00038BF49004FEA2C1C02F5FA020CFB0EF342
:1032D0004FEACE1E4FEA112C4FEAC1210EEB635E7E
:1032E00042EB22420EFB0CFC4FEA1C5300FB031185
:1032F0004FEA112C4FEA01310EFB0CFC4FEADC4C7B
:1033000000FB0C11C14228BF09184CEB03335DF8D8
:1033100004EB10EB410143EBC250B2F57C0F38BF18
:10332000704729D512F0F00F1CBF00F1C04000F02B
:1033300000407047008182838485868788898B8CD2
:103340008D8E8F919293959697999A9C9D9FA0A20E
:10335000A3A5A7A8AAACAEB0B2B3B5B7B9BCBEC05E
:10336000C2C5C7C9CCCED1D4D7D9DCDFE2E6E9ECFF
:10337000F0F3F7FAFE0000004FEA400C0CF1807CFD
:10338000BCF17E4F28BF7047B0F1C04000F05FB97C
:1033900090EA010F0CEAD11348BF42F480726245F3
:1033A00038BF634507D213F47F0F16D080EA0100BF
:1033B00000F00040704710B500F003F9097EFC3EB4
:1033C00000F005B880EA010000F00040704780EA94
:1033D000010000F0004000F03AB912F47F0F04BF82
:1033E0000248704780EA010000F031B90000C07F58
:1033F000C10DD1F19E0206DB4FEA002343F00043EA
:1034000023FA02F07047004207D54FEA4001B1F1BC
:10341000FE4F02D24FF00000704710B500F0D1F817
:1034200049922480002070476FEA20007047000016
:10343000B0FA80F310FA03F2C3F19D030AD0D90564
:1034400001EB1220530638BF704700F1010008BF9E
:1034500020F001007047000050EA010C00F11380D9
:103460001CF5000F58BFBCF5000F01D4884270470F
:1034700007D710F5000F58BF11F5000F15D488427B
:103480007047894270471CF5000F04D5BCF5000F4A
:10349000F7D5814270474FF0807C1CEB400F38BF5E
:1034A0001CEB410F01D28142704710B500F089F842
:1034B000922449004FF000504FF08051FFF7CABEF0
:1034C0004FF47F0C1CEAD0121EBF1CEAD11392EA03
:1034D0000C0F93EA0C0F00F0478090EA010F48BFF1
:1034E00042F480724FF0004C4CEA00204CEA01217B
:1034F00002EB0302A0FB0113A2F50002002918BF92
:1035000043F001035B0028BF4FEA330342EB224242
:103510005FEA132C4CEBC2502EBFBCEB436FB2F5ED
:103520007C0F70474FEA036CBCF1004F08BF20F0DE
:103530000100B2F57C0F38BF70470BD582F0FF0257
:1035400012F5803FC8BF704700F1C040D8BF00F0FF
:103550000040704700F5000C5FEA4C0C48BF704714
:10356000B0F1C04000F073B890EA010F0CEAD1133B
:1035700048BF42F48072624538BF634504D280EA96
:10358000010000F00040704710B500F01AF800BFCD
:103590008900013E00F007B800F009B85FEA410C6D
:1035A0005FEA1C6C08D080EA010000F050B85FEAC6
:1035B000400C5FEA1C6CF6D14FF00040A0F5800093
:1035C00070470EF1020E2EF0030E5EF8044B2442FB
:1035D00004D44FEA4102B2F17F4F11D84FEA4003C1
:1035E000B3F17F4F0CD80ED14FEAD07CB2F17F4FB0
:1035F0000CEB4C0C0CF1020C08BF4CEBD17C04E042
:103600004FF0080C01E04FEAD17C0CEB4C0324FA9C
:1036100003F404F00704B4F1040C06D20EEB840C9E
:10362000BDE810404CF0010C6047DFE80CF00708E3
:1036300002024FF00040A0F5800010BD0846420095
:1036400018BFD2F1807288BF00F0004010BDFF218A
:1036500041EAD050C005704751EA000C00F11380D8
:103660001CF5000F58BFBCF5000F01D48142704714
:1036700007D711F5000F58BF10F5000F15D4814280
:103680007047894270471CF5000F04D5BCF5000F48
:10369000F7D5884270474FF0807C1CEB410F38BF54
:1036A0001CEB400F01D28842704780EA010081EA9A
:1036B000000180EA0100FFF7F8BE000000000000F2
:1036C00000000000000000000000000000000000FA
:1036D00000000000000000000000000000000000EA
:1036E000000000000000000000000000008080C01A
:1036F000C0E0E0606020302020200020000000803A
:10370000FCF0E0800000000000000000000000006D
:1037100000000000000000000000000000000000A9
:103720000000000000000000000000000000000099
:103730000000000000000000000000000000000089
:103740000000000000000000000000000000000079
:103750000000000000000000000000000000000069
:1037600000000000000080E0F0FCFC7E1F0F07035B
:10377000010000000000000000000000000000FA4E
:10378000FFFFFFFFFFFCF0C0000000000000000092
:103790000000000000000000000000000000000029
:1037A0000000000000000000000000000000000019
:1037B0000000000000000000000000000000000009
:1037C00000000000000000000000000000000000F9
:1037D00000000000000000000000000000000000E9
:1037E00000000000E8FEFFFFFF1F010000000000D6
:1037F0000000000000000080C0E0F0F8FC0CA0FF1A
:10380000FFFFFFFFFFFFFFFFFEF88000000000004A
:1038100000000000000000000000000000000000A8
:103820000000000000000000000000000000000098
:103830000000000000000000000000000000000088
:103840000000000000000000000000000000000078
:103850000000000000000000000000000000000068
:10386000000000000F7FFFFFFFFAC0000000000013
:1038700000000000000C06070F0F1F7F0380FEBF33
:10388000CFCFC7C3E3E3E36363676F60000000006B
:103890000000000000000000000000000000000028
:1038A0000000000000000000000000000000000018
:1038B0000000000000000000000000000000000008
:1038C00000000000000000000000000000000000F8
:1038D00000000000000000000000000000000000E8
:1038E00000000000000001070F3F3F7FFCF8F0E000
:1038F000C08080103018180C0C6637331B1D8FCF1A
:1039000067370B2F0A0606060600000000000000BD
:1039100000000000000000000000000000000000A7
:103920000000000000000000000000000000000097
:103930000000000000000000000000000000000087
:103940000000000000000000000000000000000077
:103950000000000000000000000000000000000067
:103960000000000000000000000000000001010352
:103970000307070707060E060E06040606020302E3
:103980000200000000000000000000000000000035
:103990000000000000000000000000000000000027
:1039A0000000000000000000000000000000000017
:1039B0000000000000000000000000000000000007
:1039C00000000000000000000000000000000000F7
:1039D0000000000000000000000000008080FE8267
:1039E00082FE8080FE8282FEFE800000F80808FFD2
:1039F00008F800FE02E282FE00000000000202025F
:103A00000202FEFE020202020200000010F0C000EC
:103A100003FF0000FF0000C0700000000000000075
:103A20000000000000000000000000000000000096
:103A30000000000000000000000000000000000086
:103A40000000000000000000000000000000000076
:103A5000000000000000000000000000203E070001
:103A6000203F40780F00203F1F0000000F00003F64
:103A7000082718070000013F203800001010101020
:103A800010101F1F101010101010000020202320F5
:103A9000203F20203F2021232020000000000000A4
:103AA0000000000000000000000000000000000016
:103AB000000000000000000000000000000020F0F6
:103AC000201010E00000E0101010E00000605090A6
:103AD000B00020F20010FC100020F20000E01010F6
:103AE00010E00020F0201010E000000000000000B6
:103AF00000000000000000000000000000000000C6
:103B000000000000000000000000000000000000B5
:103B100000000000000000000000000000000000A5
:103B200000000000000000F00804021C22229C603B
:103B300010CC2220C0020408F00040404040505FFA
:103B40005142424140404142424241404043424250
:103B5000414042434240434241424342404142424B
:103B60004241404243424042434240404040404044
:103B70004040404040404040404040404040404045
:103B80004040404040404040404040404040404035
:103B90004040404040404040404040404040404025
:103BA00040404040404040434448504040434040F3
:103BB0004041424241504844434000000000000060
:103BC00000000000000000000000000000000000F5
:103BD00000000000000000000000000000000000E5
:103BE00000000000000000000000000000000000D5
:103BF00000000000000000000000000000000000C5
:103DF0000000000000000000000000000000E010D3
:103E000010E0008060100000000000006090901042
:103E100020700000008080000080E08000008000B2
:103E20008080000000008080800000009000008002
:103E3000008080000080E0800000000000000000A2
:103E40000000000000000000000000000000000072
:103E50000000000000000000000000000000000062
:103E60000000000000000000000000000000000052
:103E70000000000000000000000000000000000141
:103E8000190403000E11110E000000001C0810118F
:103E9000110E00000F12120B00001F100881FF8985
:103EA00010100F00000F1010100F00111F10111F25
:103EB0001100101F10001F1008000000000000007B
:103EC00000000000000000000000000000000000F2
:103ED00000000000000000000000000000000000E2
:103EE00000000000000000000000000000000000D2
:103EF00000000000000000000000000000000000C2
:103F000000000000000000000000000000000000B1
:103F100000000000000000000000000000000000A1
:103F20000000000000000000000000000000000091
:103F30000000000000000000000000000000000081
:103F40000000000000000000000000000000000071
:103F50000000000000000000000000000000000061
:103F60000000000000000000000000000000000051
:103F70000000000000000000000000000000000041
:103F80000000000000000000000000000000000031
:103F90000000000000000000000000000000000021
:103FA0000000000000000000000000000000000011
:103FB00000000000000000000000020202020202F5
:103FC00002020202020202020202020202020202D1
:103FD00002020202020202020202020202020202C1
:103FE00002020202020202020202020202020202B1
:103FF00002020202020202020202020202020202A1
:104000000202020202020202020202020202020290
:104010000202020202020202020202020202020280
:104020000202020202020202020202020202020270
:10403000020202020202020202020000000000006C
:104040000000000000000000000000000000000070
:104050000000000000000000000000000000000060
:104060000000000000000000000000000000000050
:104070000000000000000000000000000000000040
:1042C000000000000000000000000000FEFFFF03EF
:1042D00003030303030303FFFFFE0000FFFFFF00D0
:1042E00000000000000000FFFFFF00007FFFFFC094
:1042F000C0C0C0C0C0C0C0FFFF7F00000000000001
:1043000000000000000000000000000000000000AD
:10431000000000000000000000000000000000009D
:10432000000000000060FEFFFF0000000000000031
:10433000000000000000FFFFFF0000000000000080
:10434000000000000000FFFFFF0000000000000070
:10435000000000000000000000000000000000005D
:104360000000000000000000000000007E7F7F03CE
:1043700003030303030303FFFFFE0000000000002C
:104380000080C0F0783C0F0703000000C0E0F8FC9C
:10439000DECFC3C1C0C0C0C0C0C00000000000006C
:1043A000000000000000000000000000000000000D
:1043B0000000000000000000000000007E7F7F037E
:1043C00003030303030303FFFFFE000000000000DC
:1043D00000081C1C363663E3C1C100007FFFFFC02C
:1043E000C0C0C0C0C0C0C0FFFF7F00000000000010
:1043F00000000000000000000000000000000000BD
:10440000000000000000000000000000000000C0EC
:10441000F0FC3F0F83808000000000C0F0FC3F0FE5
:1044200003000000FFFFFF0000000303030303037A
:1044300003030303FFFFFF0303030000000000006A
:10444000000000000000000000000000000000006C
:10445000000000000000000000000000FFFFFF035C
:104460000303030303030303030300000707070613
:1044700006060606060606FEFEFC00007FFFFFC0DD
:10448000C0C0C0C0C0C0C0FFFF7F0000000000006F
:10449000000000000000000000000000000000001C
:1044A000000000000000000000000000FEFFFF030D
:1044B000030303030303033F3F3E0000FFFFFF0C22
:1044C0000C0C0C0C0C0C0CFCFCF800007FFFFFC06B
:1044D000C0C0C0C0C0C0C0FFFF7F0000000000001F
:1044E00000000000000000000000000000000000CC
:1044F0000000000000000000000000003F3F3F03FC
:10450000030303030383F3FF3F07000000000000E1
:10451000000000E0FCFF1F010000000000000000A0
:10452000C0F8FF3F0700000000000000000000008E
:10453000000000000000000000000000000000007B
:10454000000000000000000000000000FEFFFF036C
:1045500003030303030303FFFFFE0000E1E3F73659
:104560003E1C1C1C1C3E36F7E3C100007FFFFFC051
:10457000C0C0C0C0C0C0C0FFFF7F0000000000007E
:10458000000000000000000000000000000000002B
:10459000000000000000000000000000FEFFFF031C
:1045A00003030303030303FFFFFE00001F3F3F302D
:1045B00030303030303030FFFFFF00007CFCFCC07A
:1045C000C0C0C0C0C0C0C0FFFF7F0000000000002E
:1045D00000000000000000000000000000000000DB
:1045E00000000000000000000000000000000000CB
:1045F00000000000000000000000000000000000BB
:1046000000000000000000000000000000000000AA
:10461000E0E0E000000000000000000000000000FA
:10462000000000000000000000000000000000008A
:10463000000000000000000000000000000000007A
:10464000000000000000000000000000000000006A
:10465000000000000000000000000000000000005A
:10466000000000000000000000000000000000004A
:10467000000000000000000000000000312E4B5040
:10468000312020202020202020000000332E5456EE
:10469000312020202020202020000000322E4B50EE
:1046A000322020202020202020000000342E5456CC
:1046B000322020202020202020000000352E4169BB
:1046C000722020202020202020000000362E41696A
:1046D000722020202020202020000000372E416959
:1046E000722020202020202020000000382E416948
:1046F000722020202020202020000000392E416937
:10470000722020202020202020000000342E455838
:10471000495420202020202020000000362E45581B
:10472000495420202020202020000000382E455809
:10473000495420202020202020000000392E4558F8
:10474000495420202020202020000000352E5445F0
:1047500053542020202020202000000031302E4102
:1047600069722020202020202000000031312E41BD
:10477000697220202020202020000000312E466F6A
:10478000726D20312020202020200000322E466F24
:10479000726D20322020202020200000342E414C39
:1047A00041524D20202020202000000031322E4593
:1047B000584954202020202020000000352E455844
:1047C000495420202020202000000000342E544591
:1047D00053542020202020200000000043616E63FD
:1047E000656C20202020202000000000312E466F24
:1047F000726D20312020202020000000322E466FD4
:10480000726D20322020202020000000332E466FC1
:10481000726D20332020202020000000322E5350C3
:104820005F5247452020202020000000372E5452A0
:104830004156454C2020202020000000332E4143CB
:1048400054494F4E2020202020000000352E4143A7
:1048500054494F4E2020202020000000342E435485
:10486000524C45522020202020000000312E4D497E
:104870004E5F56522020202020000000322E4D4155
:10488000585F56522020202020000000322E526512
:10489000766572736520202020200000332E537728
:1048A000697463682020202020000000436F6E663A
:1048B00069726D202020202000000000372E524118
:1048C0004D50A1C42020202020000000382E52414D
:1048D0004D50A1C52020202020000000322E504F36
:1048E000535F53573120202020000000332E504FBB
:1048F000535F53573220202020000000312E4D49B5
:104900004E5F52474520202020000000322E4D49A6
:104910004E5F52474520202020000000322E4D419E
:10492000585F52474520202020000000332E4D4183
:10493000585F50524720202020000000352E414C67
:1049400041524D532020202000000000342E4348C7
:10495000415241435420202020000000322E566F47
:104960006C7461676520202020000000322E5265A3
:10497000766572736520202020000000312E506F74
:10498000736974697665202020200000312E4375FC
:104990007272656E7420202020000000342E535067
:1049A000524E475F5932202020000000352E4144EE
:1049B0004A5F4D4F4445202020000000312E4C45D9
:1049C00041434B414745202020000000332E5345F2
:1049D0004E535F524745202020000000362E53489A
:1049E00055542D4F4646202020000000362E4D41C4
:1049F0004E5F41444A20202000000000332E4143F6
:104A0000544155544F52202020000000362E53545C
:104A1000524B5F435452202020000000332E5A4551
:104A2000524F5F504F53202020000000312E544938
:104A30004D455F4F5554202020000000352E54492D
:104A40004D455F4F5554202020000000342E535711
:104A5000315F41435456202020000000352E53572B
:104A6000325F41435456202020000000312E506F09
:104A7000736974697665202020000000332E544F3E
:104A80004C5F42414E44202000000000312E535420
:104A9000414E44415244202000000000322E415536
:104AA000544F5F41444A202000000000372E4354F9
:104AB000524C5F504152202000000000312E4143F3
:104AC000545541544F52202000000000332E4143E2
:104AD000545541544F52202000000000342E4D45C3
:104AE000535341474553202000000000322E5345C8
:104AF00054504F494E54202000000000382E414EA3
:104B00004C475F4F5554202000000000372E504185
:104B1000522020202020202020203E3E00000000A7
:104B2000B2CBB5A5A3BA20202020202020203E3ED5
:104B300000000000352E414C41524D5320202020D2
:104B400020203E3E00000000362E4D414E5F414485
:104B50004A20202020203E3E00000000312E5354E9
:104B6000414E44415244202020203E3E000000009F
:104B7000332E4143545541544F52202020203E3E75
:104B800000000000342E4D4553534147455320202B
:104B900020203E3E00000000322E534554504F4925
:104BA0004E54202020203E3E00000000382E414E72
:104BB0004C475F4F5554202020203E3E000000000F
:104BC000325F312E5369676E616C202020203E3E9B
:104BD00000000000385F322E414354494F4E2020E0
:104BE000203E3E00325F342E414354494F4E202038
:104BF000203E3E00315F312E4143545541544F52C7
:104C000020203E3E00000000365F322E41435441DA
:104C100055544F52203E3E00312E5369676E616CF1
:104C20005379737465000000000000004C4C0008CC
:104C300000000020540B00006C0100080850000820
:104C4000540B002064070000D0010008500600A2A9
:104C50004A040001D00A0102030406070809000102
:104C6000E2011150080080400000A0410DC2021C6A
:104C700043C8420401102C6005780000204212084D
:104C800010900A204B00088C4A00080B5A43780108
:104C900024120876D006284C0008EC206318022065
:104CA000320220D2CC4063380320320340D2DC6091
:104CB00072B820320440D33C49806204204205800F
:104CC000E120620520320680E2AC806206203207D5
:104CD000C0E2FC804207E0160510165C00E6BC004E
:104CE000240408002028560500129C40120CB837F6
:104CF000AD073366004856050002177C20450003C7
:104D000016CC4720450052BC20C39D26201609F52D
:104D10001698A0C3184CC052D8A0430901A0530C48
:104D20004940B005080008D34041A0922C20B2DDD4
:104D30002041A0D64C80812041A0D74C4860620918
:104D40008045A00217DC4045A00316BC482045A0C2
:104D50000217CC204A08200515201A04F61670C048
:104D60000215FC60470402C002151CE04704022043
:104D700003161C4A20452006150CA01C060603003D
:104D80000084400302152C404F060340030615DC47
:104D9000004F060340030217EC2055A0011760499D
:104DA0004002175C2045A00A151C601E0876042EE0
:104DB0003400030A1449A057080440021648205D35
:104DC00000040117404D000302175C405D00040D14
:104DD000154003430804C002170C204D00040217BD
:104DE0002C60496006162CC01D01041E48000552A7
:104DF0006C401EDD8003A35902204D0004927C20EC
:104E0000B2632045C0EEFCA0045D20034F06050000
:104E1000040E159C60034F060500040217AC200524
:104E20001CC01C060C0600000CC0050F147C46407C
:104E3000035F0C06C00401172045C002178C204DEB
:104E4000C0040217AC205DC0040117204D200402ED
:104E500017CC204D20040217DC204DC0050217ECB2
:104E6000204D20040217FC204A09800216472036F4
:104E70000AE002176C20460BA00916405C050700EB
:104E800000AC80046D8005A32103208D80046DA0FB
:104E900005B22B204D4006DE3C60056AB8405A073B
:104EA000400115C05F0607A0050117200D1C000476
:104EB000218B1EF440059EECA0069E6504085E034F
:104EC000000892FC20B266204D40059E0C8003B283
:104ED00067402C040000C060089D20049EC944085F
:104EE0006160925C20B2CA204D6004929C6092CBBB
:104EF000401E02C0042EE4C0039D2004B2F1204DE8
:104F0000C003926C60D2F2402E08E00391E08F6DF6
:104F100002640821603D20039120D26E202ED480AF
:104F20000391E08F3503640871409520A23620423A
:104F300002204FDC47D803E5A05E02C0060714AC90
:104F400048C04E01180A1008E0101010E0000F06CB
:104F50002E0F7E093F20F08509300E1F00601010D3
:104F600090600018141211100C1C08E0000C1011B5
:104F7000120E0E0A1C05609000007D0410051F042F
:104F800000F03C30081000091111110F48100460A6
:104F9000000F0C10040E003030267087620760325C
:104FA0000E18410C320D306D0F0A4E10630A3C058D
:104FB000601838C0FF091005302C2320014F233C16
:104FC000690A4004E0F8F8183004203C3F01211839
:104FD0004C0A0C34C404040484641CF90A2E03AB88
:104FE0000431B710041C7CFC015F7C1C0E0B0F10FD
:104FF0000F07F90A0111012D360B6D3A0B1F020440
:0850000017040200000000008B
:040000050800021DD0
:00000001FF
